{
	"contracts/Wallet.sol": {
		"Wallet": {
			"abi": [
				{
					"inputs": [
						{
							"internalType": "string",
							"name": "accountPassphrase",
							"type": "string"
						},
						{
							"internalType": "address payable",
							"name": "guardian1",
							"type": "address"
						},
						{
							"internalType": "address payable",
							"name": "guardian2",
							"type": "address"
						}
					],
					"stateMutability": "nonpayable",
					"type": "constructor"
				},
				{
					"stateMutability": "payable",
					"type": "fallback"
				},
				{
					"inputs": [],
					"name": "checkBalance",
					"outputs": [
						{
							"internalType": "uint256",
							"name": "",
							"type": "uint256"
						}
					],
					"stateMutability": "view",
					"type": "function"
				},
				{
					"inputs": [],
					"name": "deposit",
					"outputs": [],
					"stateMutability": "payable",
					"type": "function"
				},
				{
					"inputs": [
						{
							"internalType": "string",
							"name": "accountPassphrase",
							"type": "string"
						}
					],
					"name": "login",
					"outputs": [],
					"stateMutability": "nonpayable",
					"type": "function"
				},
				{
					"inputs": [
						{
							"internalType": "uint256",
							"name": "amount",
							"type": "uint256"
						},
						{
							"internalType": "address payable",
							"name": "account",
							"type": "address"
						}
					],
					"name": "updateAllowance",
					"outputs": [],
					"stateMutability": "nonpayable",
					"type": "function"
				},
				{
					"inputs": [],
					"name": "withdrawAllFunds",
					"outputs": [],
					"stateMutability": "nonpayable",
					"type": "function"
				},
				{
					"inputs": [
						{
							"internalType": "uint256",
							"name": "amount",
							"type": "uint256"
						},
						{
							"internalType": "address payable",
							"name": "toAccount",
							"type": "address"
						}
					],
					"name": "withdrawToAccount",
					"outputs": [],
					"stateMutability": "nonpayable",
					"type": "function"
				},
				{
					"inputs": [
						{
							"internalType": "uint256",
							"name": "amount",
							"type": "uint256"
						}
					],
					"name": "withdrawToCaller",
					"outputs": [],
					"stateMutability": "nonpayable",
					"type": "function"
				},
				{
					"stateMutability": "payable",
					"type": "receive"
				}
			],
			"devdoc": {
				"kind": "dev",
				"methods": {},
				"version": 1
			},
			"evm": {
				"assembly": "    /* \"contracts/Wallet.sol\":61:2564  contract Wallet {... */\n  mstore(0x40, 0x80)\n    /* \"contracts/Wallet.sol\":242:523  constructor(string memory accountPassphrase, address payable guardian1, address payable  guardian2) {... */\n  callvalue\n  dup1\n  iszero\n  tag_1\n  jumpi\n  0x00\n  dup1\n  revert\ntag_1:\n  pop\n  mload(0x40)\n  sub(codesize, bytecodeSize)\n  dup1\n  bytecodeSize\n  dup4\n  codecopy\n  dup2\n  dup2\n  add\n  0x40\n  mstore\n  dup2\n  add\n  swap1\n  tag_2\n  swap2\n  swap1\n  tag_3\n  jump\t// in\ntag_2:\n    /* \"contracts/Wallet.sol\":363:384  address(this).balance */\n  selfbalance\n    /* \"contracts/Wallet.sol\":353:360  balance */\n  0x00\n    /* \"contracts/Wallet.sol\":353:384  balance = address(this).balance */\n  dup2\n  swap1\n  sstore\n  pop\n    /* \"contracts/Wallet.sol\":408:425  accountPassphrase */\n  dup3\n    /* \"contracts/Wallet.sol\":395:405  passphrase */\n  0x01\n    /* \"contracts/Wallet.sol\":395:425  passphrase = accountPassphrase */\n  swap1\n  dup2\n  tag_6\n  swap2\n  swap1\n  tag_7\n  jump\t// in\ntag_6:\n  pop\n    /* \"contracts/Wallet.sol\":466:470  true */\n  0x01\n    /* \"contracts/Wallet.sol\":436:452  guardianAccounts */\n  0x02\n    /* \"contracts/Wallet.sol\":436:463  guardianAccounts[guardian1] */\n  0x00\n    /* \"contracts/Wallet.sol\":453:462  guardian1 */\n  dup5\n    /* \"contracts/Wallet.sol\":436:463  guardianAccounts[guardian1] */\n  0xffffffffffffffffffffffffffffffffffffffff\n  and\n  0xffffffffffffffffffffffffffffffffffffffff\n  and\n  dup2\n  mstore\n  0x20\n  add\n  swap1\n  dup2\n  mstore\n  0x20\n  add\n  0x00\n  keccak256\n  0x00\n    /* \"contracts/Wallet.sol\":436:470  guardianAccounts[guardian1] = true */\n  0x0100\n  exp\n  dup2\n  sload\n  dup2\n  0xff\n  mul\n  not\n  and\n  swap1\n  dup4\n  iszero\n  iszero\n  mul\n  or\n  swap1\n  sstore\n  pop\n    /* \"contracts/Wallet.sol\":511:515  true */\n  0x01\n    /* \"contracts/Wallet.sol\":481:497  guardianAccounts */\n  0x02\n    /* \"contracts/Wallet.sol\":481:508  guardianAccounts[guardian2] */\n  0x00\n    /* \"contracts/Wallet.sol\":498:507  guardian2 */\n  dup4\n    /* \"contracts/Wallet.sol\":481:508  guardianAccounts[guardian2] */\n  0xffffffffffffffffffffffffffffffffffffffff\n  and\n  0xffffffffffffffffffffffffffffffffffffffff\n  and\n  dup2\n  mstore\n  0x20\n  add\n  swap1\n  dup2\n  mstore\n  0x20\n  add\n  0x00\n  keccak256\n  0x00\n    /* \"contracts/Wallet.sol\":481:515  guardianAccounts[guardian2] = true */\n  0x0100\n  exp\n  dup2\n  sload\n  dup2\n  0xff\n  mul\n  not\n  and\n  swap1\n  dup4\n  iszero\n  iszero\n  mul\n  or\n  swap1\n  sstore\n  pop\n    /* \"contracts/Wallet.sol\":242:523  constructor(string memory accountPassphrase, address payable guardian1, address payable  guardian2) {... */\n  pop\n  pop\n  pop\n    /* \"contracts/Wallet.sol\":61:2564  contract Wallet {... */\n  jump(tag_8)\n    /* \"#utility.yul\":7:82   */\ntag_9:\n    /* \"#utility.yul\":40:46   */\n  0x00\n    /* \"#utility.yul\":73:75   */\n  0x40\n    /* \"#utility.yul\":67:76   */\n  mload\n    /* \"#utility.yul\":57:76   */\n  swap1\n  pop\n    /* \"#utility.yul\":7:82   */\n  swap1\n  jump\t// out\n    /* \"#utility.yul\":88:205   */\ntag_10:\n    /* \"#utility.yul\":197:198   */\n  0x00\n    /* \"#utility.yul\":194:195   */\n  dup1\n    /* \"#utility.yul\":187:199   */\n  revert\n    /* \"#utility.yul\":211:328   */\ntag_11:\n    /* \"#utility.yul\":320:321   */\n  0x00\n    /* \"#utility.yul\":317:318   */\n  dup1\n    /* \"#utility.yul\":310:322   */\n  revert\n    /* \"#utility.yul\":334:451   */\ntag_12:\n    /* \"#utility.yul\":443:444   */\n  0x00\n    /* \"#utility.yul\":440:441   */\n  dup1\n    /* \"#utility.yul\":433:445   */\n  revert\n    /* \"#utility.yul\":457:574   */\ntag_13:\n    /* \"#utility.yul\":566:567   */\n  0x00\n    /* \"#utility.yul\":563:564   */\n  dup1\n    /* \"#utility.yul\":556:568   */\n  revert\n    /* \"#utility.yul\":580:682   */\ntag_14:\n    /* \"#utility.yul\":621:627   */\n  0x00\n    /* \"#utility.yul\":672:674   */\n  0x1f\n    /* \"#utility.yul\":668:675   */\n  not\n    /* \"#utility.yul\":663:665   */\n  0x1f\n    /* \"#utility.yul\":656:661   */\n  dup4\n    /* \"#utility.yul\":652:666   */\n  add\n    /* \"#utility.yul\":648:676   */\n  and\n    /* \"#utility.yul\":638:676   */\n  swap1\n  pop\n    /* \"#utility.yul\":580:682   */\n  swap2\n  swap1\n  pop\n  jump\t// out\n    /* \"#utility.yul\":688:868   */\ntag_15:\n    /* \"#utility.yul\":736:813   */\n  0x4e487b7100000000000000000000000000000000000000000000000000000000\n    /* \"#utility.yul\":733:734   */\n  0x00\n    /* \"#utility.yul\":726:814   */\n  mstore\n    /* \"#utility.yul\":833:837   */\n  0x41\n    /* \"#utility.yul\":830:831   */\n  0x04\n    /* \"#utility.yul\":823:838   */\n  mstore\n    /* \"#utility.yul\":857:861   */\n  0x24\n    /* \"#utility.yul\":854:855   */\n  0x00\n    /* \"#utility.yul\":847:862   */\n  revert\n    /* \"#utility.yul\":874:1155   */\ntag_16:\n    /* \"#utility.yul\":957:984   */\n  tag_54\n    /* \"#utility.yul\":979:983   */\n  dup3\n    /* \"#utility.yul\":957:984   */\n  tag_14\n  jump\t// in\ntag_54:\n    /* \"#utility.yul\":949:955   */\n  dup2\n    /* \"#utility.yul\":945:985   */\n  add\n    /* \"#utility.yul\":1087:1093   */\n  dup2\n    /* \"#utility.yul\":1075:1085   */\n  dup2\n    /* \"#utility.yul\":1072:1094   */\n  lt\n    /* \"#utility.yul\":1051:1069   */\n  0xffffffffffffffff\n    /* \"#utility.yul\":1039:1049   */\n  dup3\n    /* \"#utility.yul\":1036:1070   */\n  gt\n    /* \"#utility.yul\":1033:1095   */\n  or\n    /* \"#utility.yul\":1030:1118   */\n  iszero\n  tag_55\n  jumpi\n    /* \"#utility.yul\":1098:1116   */\n  tag_56\n  tag_15\n  jump\t// in\ntag_56:\n    /* \"#utility.yul\":1030:1118   */\ntag_55:\n    /* \"#utility.yul\":1138:1148   */\n  dup1\n    /* \"#utility.yul\":1134:1136   */\n  0x40\n    /* \"#utility.yul\":1127:1149   */\n  mstore\n    /* \"#utility.yul\":917:1155   */\n  pop\n    /* \"#utility.yul\":874:1155   */\n  pop\n  pop\n  jump\t// out\n    /* \"#utility.yul\":1161:1290   */\ntag_17:\n    /* \"#utility.yul\":1195:1201   */\n  0x00\n    /* \"#utility.yul\":1222:1242   */\n  tag_58\n  tag_9\n  jump\t// in\ntag_58:\n    /* \"#utility.yul\":1212:1242   */\n  swap1\n  pop\n    /* \"#utility.yul\":1251:1284   */\n  tag_59\n    /* \"#utility.yul\":1279:1283   */\n  dup3\n    /* \"#utility.yul\":1271:1277   */\n  dup3\n    /* \"#utility.yul\":1251:1284   */\n  tag_16\n  jump\t// in\ntag_59:\n    /* \"#utility.yul\":1161:1290   */\n  swap2\n  swap1\n  pop\n  jump\t// out\n    /* \"#utility.yul\":1296:1604   */\ntag_18:\n    /* \"#utility.yul\":1358:1362   */\n  0x00\n    /* \"#utility.yul\":1448:1466   */\n  0xffffffffffffffff\n    /* \"#utility.yul\":1440:1446   */\n  dup3\n    /* \"#utility.yul\":1437:1467   */\n  gt\n    /* \"#utility.yul\":1434:1490   */\n  iszero\n  tag_61\n  jumpi\n    /* \"#utility.yul\":1470:1488   */\n  tag_62\n  tag_15\n  jump\t// in\ntag_62:\n    /* \"#utility.yul\":1434:1490   */\ntag_61:\n    /* \"#utility.yul\":1508:1537   */\n  tag_63\n    /* \"#utility.yul\":1530:1536   */\n  dup3\n    /* \"#utility.yul\":1508:1537   */\n  tag_14\n  jump\t// in\ntag_63:\n    /* \"#utility.yul\":1500:1537   */\n  swap1\n  pop\n    /* \"#utility.yul\":1592:1596   */\n  0x20\n    /* \"#utility.yul\":1586:1590   */\n  dup2\n    /* \"#utility.yul\":1582:1597   */\n  add\n    /* \"#utility.yul\":1574:1597   */\n  swap1\n  pop\n    /* \"#utility.yul\":1296:1604   */\n  swap2\n  swap1\n  pop\n  jump\t// out\n    /* \"#utility.yul\":1610:1917   */\ntag_19:\n    /* \"#utility.yul\":1678:1679   */\n  0x00\n    /* \"#utility.yul\":1688:1801   */\ntag_65:\n    /* \"#utility.yul\":1702:1708   */\n  dup4\n    /* \"#utility.yul\":1699:1700   */\n  dup2\n    /* \"#utility.yul\":1696:1709   */\n  lt\n    /* \"#utility.yul\":1688:1801   */\n  iszero\n  tag_67\n  jumpi\n    /* \"#utility.yul\":1787:1788   */\n  dup1\n    /* \"#utility.yul\":1782:1785   */\n  dup3\n    /* \"#utility.yul\":1778:1789   */\n  add\n    /* \"#utility.yul\":1772:1790   */\n  mload\n    /* \"#utility.yul\":1768:1769   */\n  dup2\n    /* \"#utility.yul\":1763:1766   */\n  dup5\n    /* \"#utility.yul\":1759:1770   */\n  add\n    /* \"#utility.yul\":1752:1791   */\n  mstore\n    /* \"#utility.yul\":1724:1726   */\n  0x20\n    /* \"#utility.yul\":1721:1722   */\n  dup2\n    /* \"#utility.yul\":1717:1727   */\n  add\n    /* \"#utility.yul\":1712:1727   */\n  swap1\n  pop\n    /* \"#utility.yul\":1688:1801   */\n  jump(tag_65)\ntag_67:\n    /* \"#utility.yul\":1819:1825   */\n  dup4\n    /* \"#utility.yul\":1816:1817   */\n  dup2\n    /* \"#utility.yul\":1813:1826   */\n  gt\n    /* \"#utility.yul\":1810:1911   */\n  iszero\n  tag_68\n  jumpi\n    /* \"#utility.yul\":1899:1900   */\n  0x00\n    /* \"#utility.yul\":1890:1896   */\n  dup5\n    /* \"#utility.yul\":1885:1888   */\n  dup5\n    /* \"#utility.yul\":1881:1897   */\n  add\n    /* \"#utility.yul\":1874:1901   */\n  mstore\n    /* \"#utility.yul\":1810:1911   */\ntag_68:\n    /* \"#utility.yul\":1659:1917   */\n  pop\n    /* \"#utility.yul\":1610:1917   */\n  pop\n  pop\n  pop\n  jump\t// out\n    /* \"#utility.yul\":1923:2344   */\ntag_20:\n    /* \"#utility.yul\":2012:2017   */\n  0x00\n    /* \"#utility.yul\":2037:2103   */\n  tag_70\n    /* \"#utility.yul\":2053:2102   */\n  tag_71\n    /* \"#utility.yul\":2095:2101   */\n  dup5\n    /* \"#utility.yul\":2053:2102   */\n  tag_18\n  jump\t// in\ntag_71:\n    /* \"#utility.yul\":2037:2103   */\n  tag_17\n  jump\t// in\ntag_70:\n    /* \"#utility.yul\":2028:2103   */\n  swap1\n  pop\n    /* \"#utility.yul\":2126:2132   */\n  dup3\n    /* \"#utility.yul\":2119:2124   */\n  dup2\n    /* \"#utility.yul\":2112:2133   */\n  mstore\n    /* \"#utility.yul\":2164:2168   */\n  0x20\n    /* \"#utility.yul\":2157:2162   */\n  dup2\n    /* \"#utility.yul\":2153:2169   */\n  add\n    /* \"#utility.yul\":2202:2205   */\n  dup5\n    /* \"#utility.yul\":2193:2199   */\n  dup5\n    /* \"#utility.yul\":2188:2191   */\n  dup5\n    /* \"#utility.yul\":2184:2200   */\n  add\n    /* \"#utility.yul\":2181:2206   */\n  gt\n    /* \"#utility.yul\":2178:2290   */\n  iszero\n  tag_72\n  jumpi\n    /* \"#utility.yul\":2209:2288   */\n  tag_73\n  tag_13\n  jump\t// in\ntag_73:\n    /* \"#utility.yul\":2178:2290   */\ntag_72:\n    /* \"#utility.yul\":2299:2338   */\n  tag_74\n    /* \"#utility.yul\":2331:2337   */\n  dup5\n    /* \"#utility.yul\":2326:2329   */\n  dup3\n    /* \"#utility.yul\":2321:2324   */\n  dup6\n    /* \"#utility.yul\":2299:2338   */\n  tag_19\n  jump\t// in\ntag_74:\n    /* \"#utility.yul\":2018:2344   */\n  pop\n    /* \"#utility.yul\":1923:2344   */\n  swap4\n  swap3\n  pop\n  pop\n  pop\n  jump\t// out\n    /* \"#utility.yul\":2364:2719   */\ntag_21:\n    /* \"#utility.yul\":2431:2436   */\n  0x00\n    /* \"#utility.yul\":2480:2483   */\n  dup3\n    /* \"#utility.yul\":2473:2477   */\n  0x1f\n    /* \"#utility.yul\":2465:2471   */\n  dup4\n    /* \"#utility.yul\":2461:2478   */\n  add\n    /* \"#utility.yul\":2457:2484   */\n  slt\n    /* \"#utility.yul\":2447:2569   */\n  tag_76\n  jumpi\n    /* \"#utility.yul\":2488:2567   */\n  tag_77\n  tag_12\n  jump\t// in\ntag_77:\n    /* \"#utility.yul\":2447:2569   */\ntag_76:\n    /* \"#utility.yul\":2598:2604   */\n  dup2\n    /* \"#utility.yul\":2592:2605   */\n  mload\n    /* \"#utility.yul\":2623:2713   */\n  tag_78\n    /* \"#utility.yul\":2709:2712   */\n  dup5\n    /* \"#utility.yul\":2701:2707   */\n  dup3\n    /* \"#utility.yul\":2694:2698   */\n  0x20\n    /* \"#utility.yul\":2686:2692   */\n  dup7\n    /* \"#utility.yul\":2682:2699   */\n  add\n    /* \"#utility.yul\":2623:2713   */\n  tag_20\n  jump\t// in\ntag_78:\n    /* \"#utility.yul\":2614:2713   */\n  swap2\n  pop\n    /* \"#utility.yul\":2437:2719   */\n  pop\n    /* \"#utility.yul\":2364:2719   */\n  swap3\n  swap2\n  pop\n  pop\n  jump\t// out\n    /* \"#utility.yul\":2725:2851   */\ntag_22:\n    /* \"#utility.yul\":2762:2769   */\n  0x00\n    /* \"#utility.yul\":2802:2844   */\n  0xffffffffffffffffffffffffffffffffffffffff\n    /* \"#utility.yul\":2795:2800   */\n  dup3\n    /* \"#utility.yul\":2791:2845   */\n  and\n    /* \"#utility.yul\":2780:2845   */\n  swap1\n  pop\n    /* \"#utility.yul\":2725:2851   */\n  swap2\n  swap1\n  pop\n  jump\t// out\n    /* \"#utility.yul\":2857:2961   */\ntag_23:\n    /* \"#utility.yul\":2902:2909   */\n  0x00\n    /* \"#utility.yul\":2931:2955   */\n  tag_81\n    /* \"#utility.yul\":2949:2954   */\n  dup3\n    /* \"#utility.yul\":2931:2955   */\n  tag_22\n  jump\t// in\ntag_81:\n    /* \"#utility.yul\":2920:2955   */\n  swap1\n  pop\n    /* \"#utility.yul\":2857:2961   */\n  swap2\n  swap1\n  pop\n  jump\t// out\n    /* \"#utility.yul\":2967:3105   */\ntag_24:\n    /* \"#utility.yul\":3048:3080   */\n  tag_83\n    /* \"#utility.yul\":3074:3079   */\n  dup2\n    /* \"#utility.yul\":3048:3080   */\n  tag_23\n  jump\t// in\ntag_83:\n    /* \"#utility.yul\":3041:3046   */\n  dup2\n    /* \"#utility.yul\":3038:3081   */\n  eq\n    /* \"#utility.yul\":3028:3099   */\n  tag_84\n  jumpi\n    /* \"#utility.yul\":3095:3096   */\n  0x00\n    /* \"#utility.yul\":3092:3093   */\n  dup1\n    /* \"#utility.yul\":3085:3097   */\n  revert\n    /* \"#utility.yul\":3028:3099   */\ntag_84:\n    /* \"#utility.yul\":2967:3105   */\n  pop\n  jump\t// out\n    /* \"#utility.yul\":3111:3270   */\ntag_25:\n    /* \"#utility.yul\":3176:3181   */\n  0x00\n    /* \"#utility.yul\":3207:3213   */\n  dup2\n    /* \"#utility.yul\":3201:3214   */\n  mload\n    /* \"#utility.yul\":3192:3214   */\n  swap1\n  pop\n    /* \"#utility.yul\":3223:3264   */\n  tag_86\n    /* \"#utility.yul\":3258:3263   */\n  dup2\n    /* \"#utility.yul\":3223:3264   */\n  tag_24\n  jump\t// in\ntag_86:\n    /* \"#utility.yul\":3111:3270   */\n  swap3\n  swap2\n  pop\n  pop\n  jump\t// out\n    /* \"#utility.yul\":3276:4144   */\ntag_3:\n    /* \"#utility.yul\":3390:3396   */\n  0x00\n    /* \"#utility.yul\":3398:3404   */\n  dup1\n    /* \"#utility.yul\":3406:3412   */\n  0x00\n    /* \"#utility.yul\":3455:3457   */\n  0x60\n    /* \"#utility.yul\":3443:3452   */\n  dup5\n    /* \"#utility.yul\":3434:3441   */\n  dup7\n    /* \"#utility.yul\":3430:3453   */\n  sub\n    /* \"#utility.yul\":3426:3458   */\n  slt\n    /* \"#utility.yul\":3423:3542   */\n  iszero\n  tag_88\n  jumpi\n    /* \"#utility.yul\":3461:3540   */\n  tag_89\n  tag_10\n  jump\t// in\ntag_89:\n    /* \"#utility.yul\":3423:3542   */\ntag_88:\n    /* \"#utility.yul\":3602:3603   */\n  0x00\n    /* \"#utility.yul\":3591:3600   */\n  dup5\n    /* \"#utility.yul\":3587:3604   */\n  add\n    /* \"#utility.yul\":3581:3605   */\n  mload\n    /* \"#utility.yul\":3632:3650   */\n  0xffffffffffffffff\n    /* \"#utility.yul\":3624:3630   */\n  dup2\n    /* \"#utility.yul\":3621:3651   */\n  gt\n    /* \"#utility.yul\":3618:3735   */\n  iszero\n  tag_90\n  jumpi\n    /* \"#utility.yul\":3654:3733   */\n  tag_91\n  tag_11\n  jump\t// in\ntag_91:\n    /* \"#utility.yul\":3618:3735   */\ntag_90:\n    /* \"#utility.yul\":3759:3833   */\n  tag_92\n    /* \"#utility.yul\":3825:3832   */\n  dup7\n    /* \"#utility.yul\":3816:3822   */\n  dup3\n    /* \"#utility.yul\":3805:3814   */\n  dup8\n    /* \"#utility.yul\":3801:3823   */\n  add\n    /* \"#utility.yul\":3759:3833   */\n  tag_21\n  jump\t// in\ntag_92:\n    /* \"#utility.yul\":3749:3833   */\n  swap4\n  pop\n    /* \"#utility.yul\":3552:3843   */\n  pop\n    /* \"#utility.yul\":3882:3884   */\n  0x20\n    /* \"#utility.yul\":3908:3980   */\n  tag_93\n    /* \"#utility.yul\":3972:3979   */\n  dup7\n    /* \"#utility.yul\":3963:3969   */\n  dup3\n    /* \"#utility.yul\":3952:3961   */\n  dup8\n    /* \"#utility.yul\":3948:3970   */\n  add\n    /* \"#utility.yul\":3908:3980   */\n  tag_25\n  jump\t// in\ntag_93:\n    /* \"#utility.yul\":3898:3980   */\n  swap3\n  pop\n    /* \"#utility.yul\":3853:3990   */\n  pop\n    /* \"#utility.yul\":4029:4031   */\n  0x40\n    /* \"#utility.yul\":4055:4127   */\n  tag_94\n    /* \"#utility.yul\":4119:4126   */\n  dup7\n    /* \"#utility.yul\":4110:4116   */\n  dup3\n    /* \"#utility.yul\":4099:4108   */\n  dup8\n    /* \"#utility.yul\":4095:4117   */\n  add\n    /* \"#utility.yul\":4055:4127   */\n  tag_25\n  jump\t// in\ntag_94:\n    /* \"#utility.yul\":4045:4127   */\n  swap2\n  pop\n    /* \"#utility.yul\":4000:4137   */\n  pop\n    /* \"#utility.yul\":3276:4144   */\n  swap3\n  pop\n  swap3\n  pop\n  swap3\n  jump\t// out\n    /* \"#utility.yul\":4150:4249   */\ntag_26:\n    /* \"#utility.yul\":4202:4208   */\n  0x00\n    /* \"#utility.yul\":4236:4241   */\n  dup2\n    /* \"#utility.yul\":4230:4242   */\n  mload\n    /* \"#utility.yul\":4220:4242   */\n  swap1\n  pop\n    /* \"#utility.yul\":4150:4249   */\n  swap2\n  swap1\n  pop\n  jump\t// out\n    /* \"#utility.yul\":4255:4435   */\ntag_27:\n    /* \"#utility.yul\":4303:4380   */\n  0x4e487b7100000000000000000000000000000000000000000000000000000000\n    /* \"#utility.yul\":4300:4301   */\n  0x00\n    /* \"#utility.yul\":4293:4381   */\n  mstore\n    /* \"#utility.yul\":4400:4404   */\n  0x22\n    /* \"#utility.yul\":4397:4398   */\n  0x04\n    /* \"#utility.yul\":4390:4405   */\n  mstore\n    /* \"#utility.yul\":4424:4428   */\n  0x24\n    /* \"#utility.yul\":4421:4422   */\n  0x00\n    /* \"#utility.yul\":4414:4429   */\n  revert\n    /* \"#utility.yul\":4441:4761   */\ntag_28:\n    /* \"#utility.yul\":4485:4491   */\n  0x00\n    /* \"#utility.yul\":4522:4523   */\n  0x02\n    /* \"#utility.yul\":4516:4520   */\n  dup3\n    /* \"#utility.yul\":4512:4524   */\n  div\n    /* \"#utility.yul\":4502:4524   */\n  swap1\n  pop\n    /* \"#utility.yul\":4569:4570   */\n  0x01\n    /* \"#utility.yul\":4563:4567   */\n  dup3\n    /* \"#utility.yul\":4559:4571   */\n  and\n    /* \"#utility.yul\":4590:4608   */\n  dup1\n    /* \"#utility.yul\":4580:4661   */\n  tag_98\n  jumpi\n    /* \"#utility.yul\":4646:4650   */\n  0x7f\n    /* \"#utility.yul\":4638:4644   */\n  dup3\n    /* \"#utility.yul\":4634:4651   */\n  and\n    /* \"#utility.yul\":4624:4651   */\n  swap2\n  pop\n    /* \"#utility.yul\":4580:4661   */\ntag_98:\n    /* \"#utility.yul\":4708:4710   */\n  0x20\n    /* \"#utility.yul\":4700:4706   */\n  dup3\n    /* \"#utility.yul\":4697:4711   */\n  lt\n    /* \"#utility.yul\":4677:4695   */\n  dup2\n    /* \"#utility.yul\":4674:4712   */\n  sub\n    /* \"#utility.yul\":4671:4755   */\n  tag_99\n  jumpi\n    /* \"#utility.yul\":4727:4745   */\n  tag_100\n  tag_27\n  jump\t// in\ntag_100:\n    /* \"#utility.yul\":4671:4755   */\ntag_99:\n    /* \"#utility.yul\":4492:4761   */\n  pop\n    /* \"#utility.yul\":4441:4761   */\n  swap2\n  swap1\n  pop\n  jump\t// out\n    /* \"#utility.yul\":4767:4908   */\ntag_29:\n    /* \"#utility.yul\":4816:4820   */\n  0x00\n    /* \"#utility.yul\":4839:4842   */\n  dup2\n    /* \"#utility.yul\":4831:4842   */\n  swap1\n  pop\n    /* \"#utility.yul\":4862:4865   */\n  dup2\n    /* \"#utility.yul\":4859:4860   */\n  0x00\n    /* \"#utility.yul\":4852:4866   */\n  mstore\n    /* \"#utility.yul\":4896:4900   */\n  0x20\n    /* \"#utility.yul\":4893:4894   */\n  0x00\n    /* \"#utility.yul\":4883:4901   */\n  keccak256\n    /* \"#utility.yul\":4875:4901   */\n  swap1\n  pop\n    /* \"#utility.yul\":4767:4908   */\n  swap2\n  swap1\n  pop\n  jump\t// out\n    /* \"#utility.yul\":4914:5007   */\ntag_30:\n    /* \"#utility.yul\":4951:4957   */\n  0x00\n    /* \"#utility.yul\":4998:5000   */\n  0x20\n    /* \"#utility.yul\":4993:4995   */\n  0x1f\n    /* \"#utility.yul\":4986:4991   */\n  dup4\n    /* \"#utility.yul\":4982:4996   */\n  add\n    /* \"#utility.yul\":4978:5001   */\n  div\n    /* \"#utility.yul\":4968:5001   */\n  swap1\n  pop\n    /* \"#utility.yul\":4914:5007   */\n  swap2\n  swap1\n  pop\n  jump\t// out\n    /* \"#utility.yul\":5013:5120   */\ntag_31:\n    /* \"#utility.yul\":5057:5065   */\n  0x00\n    /* \"#utility.yul\":5107:5112   */\n  dup3\n    /* \"#utility.yul\":5101:5105   */\n  dup3\n    /* \"#utility.yul\":5097:5113   */\n  shl\n    /* \"#utility.yul\":5076:5113   */\n  swap1\n  pop\n    /* \"#utility.yul\":5013:5120   */\n  swap3\n  swap2\n  pop\n  pop\n  jump\t// out\n    /* \"#utility.yul\":5126:5519   */\ntag_32:\n    /* \"#utility.yul\":5195:5201   */\n  0x00\n    /* \"#utility.yul\":5245:5246   */\n  0x08\n    /* \"#utility.yul\":5233:5243   */\n  dup4\n    /* \"#utility.yul\":5229:5247   */\n  mul\n    /* \"#utility.yul\":5268:5365   */\n  tag_105\n    /* \"#utility.yul\":5298:5364   */\n  0xffffffffffffffffffffffffffffffffffffffffffffffffffffffffffffffff\n    /* \"#utility.yul\":5287:5296   */\n  dup3\n    /* \"#utility.yul\":5268:5365   */\n  tag_31\n  jump\t// in\ntag_105:\n    /* \"#utility.yul\":5386:5425   */\n  tag_106\n    /* \"#utility.yul\":5416:5424   */\n  dup7\n    /* \"#utility.yul\":5405:5414   */\n  dup4\n    /* \"#utility.yul\":5386:5425   */\n  tag_31\n  jump\t// in\ntag_106:\n    /* \"#utility.yul\":5374:5425   */\n  swap6\n  pop\n    /* \"#utility.yul\":5458:5462   */\n  dup1\n    /* \"#utility.yul\":5454:5463   */\n  not\n    /* \"#utility.yul\":5447:5452   */\n  dup5\n    /* \"#utility.yul\":5443:5464   */\n  and\n    /* \"#utility.yul\":5434:5464   */\n  swap4\n  pop\n    /* \"#utility.yul\":5507:5511   */\n  dup1\n    /* \"#utility.yul\":5497:5505   */\n  dup7\n    /* \"#utility.yul\":5493:5512   */\n  and\n    /* \"#utility.yul\":5486:5491   */\n  dup5\n    /* \"#utility.yul\":5483:5513   */\n  or\n    /* \"#utility.yul\":5473:5513   */\n  swap3\n  pop\n    /* \"#utility.yul\":5202:5519   */\n  pop\n  pop\n    /* \"#utility.yul\":5126:5519   */\n  swap4\n  swap3\n  pop\n  pop\n  pop\n  jump\t// out\n    /* \"#utility.yul\":5525:5602   */\ntag_33:\n    /* \"#utility.yul\":5562:5569   */\n  0x00\n    /* \"#utility.yul\":5591:5596   */\n  dup2\n    /* \"#utility.yul\":5580:5596   */\n  swap1\n  pop\n    /* \"#utility.yul\":5525:5602   */\n  swap2\n  swap1\n  pop\n  jump\t// out\n    /* \"#utility.yul\":5608:5668   */\ntag_34:\n    /* \"#utility.yul\":5636:5639   */\n  0x00\n    /* \"#utility.yul\":5657:5662   */\n  dup2\n    /* \"#utility.yul\":5650:5662   */\n  swap1\n  pop\n    /* \"#utility.yul\":5608:5668   */\n  swap2\n  swap1\n  pop\n  jump\t// out\n    /* \"#utility.yul\":5674:5816   */\ntag_35:\n    /* \"#utility.yul\":5724:5733   */\n  0x00\n    /* \"#utility.yul\":5757:5810   */\n  tag_110\n    /* \"#utility.yul\":5775:5809   */\n  tag_111\n    /* \"#utility.yul\":5784:5808   */\n  tag_112\n    /* \"#utility.yul\":5802:5807   */\n  dup5\n    /* \"#utility.yul\":5784:5808   */\n  tag_33\n  jump\t// in\ntag_112:\n    /* \"#utility.yul\":5775:5809   */\n  tag_34\n  jump\t// in\ntag_111:\n    /* \"#utility.yul\":5757:5810   */\n  tag_33\n  jump\t// in\ntag_110:\n    /* \"#utility.yul\":5744:5810   */\n  swap1\n  pop\n    /* \"#utility.yul\":5674:5816   */\n  swap2\n  swap1\n  pop\n  jump\t// out\n    /* \"#utility.yul\":5822:5897   */\ntag_36:\n    /* \"#utility.yul\":5865:5868   */\n  0x00\n    /* \"#utility.yul\":5886:5891   */\n  dup2\n    /* \"#utility.yul\":5879:5891   */\n  swap1\n  pop\n    /* \"#utility.yul\":5822:5897   */\n  swap2\n  swap1\n  pop\n  jump\t// out\n    /* \"#utility.yul\":5903:6172   */\ntag_37:\n    /* \"#utility.yul\":6013:6052   */\n  tag_115\n    /* \"#utility.yul\":6044:6051   */\n  dup4\n    /* \"#utility.yul\":6013:6052   */\n  tag_35\n  jump\t// in\ntag_115:\n    /* \"#utility.yul\":6074:6165   */\n  tag_116\n    /* \"#utility.yul\":6123:6164   */\n  tag_117\n    /* \"#utility.yul\":6147:6163   */\n  dup3\n    /* \"#utility.yul\":6123:6164   */\n  tag_36\n  jump\t// in\ntag_117:\n    /* \"#utility.yul\":6115:6121   */\n  dup5\n    /* \"#utility.yul\":6108:6112   */\n  dup5\n    /* \"#utility.yul\":6102:6113   */\n  sload\n    /* \"#utility.yul\":6074:6165   */\n  tag_32\n  jump\t// in\ntag_116:\n    /* \"#utility.yul\":6068:6072   */\n  dup3\n    /* \"#utility.yul\":6061:6166   */\n  sstore\n    /* \"#utility.yul\":5979:6172   */\n  pop\n    /* \"#utility.yul\":5903:6172   */\n  pop\n  pop\n  pop\n  jump\t// out\n    /* \"#utility.yul\":6178:6251   */\ntag_38:\n    /* \"#utility.yul\":6223:6226   */\n  0x00\n    /* \"#utility.yul\":6178:6251   */\n  swap1\n  jump\t// out\n    /* \"#utility.yul\":6257:6446   */\ntag_39:\n    /* \"#utility.yul\":6334:6366   */\n  tag_120\n  tag_38\n  jump\t// in\ntag_120:\n    /* \"#utility.yul\":6375:6440   */\n  tag_121\n    /* \"#utility.yul\":6433:6439   */\n  dup2\n    /* \"#utility.yul\":6425:6431   */\n  dup5\n    /* \"#utility.yul\":6419:6423   */\n  dup5\n    /* \"#utility.yul\":6375:6440   */\n  tag_37\n  jump\t// in\ntag_121:\n    /* \"#utility.yul\":6310:6446   */\n  pop\n    /* \"#utility.yul\":6257:6446   */\n  pop\n  pop\n  jump\t// out\n    /* \"#utility.yul\":6452:6638   */\ntag_40:\n    /* \"#utility.yul\":6512:6632   */\ntag_123:\n    /* \"#utility.yul\":6529:6532   */\n  dup2\n    /* \"#utility.yul\":6522:6527   */\n  dup2\n    /* \"#utility.yul\":6519:6533   */\n  lt\n    /* \"#utility.yul\":6512:6632   */\n  iszero\n  tag_125\n  jumpi\n    /* \"#utility.yul\":6583:6622   */\n  tag_126\n    /* \"#utility.yul\":6620:6621   */\n  0x00\n    /* \"#utility.yul\":6613:6618   */\n  dup3\n    /* \"#utility.yul\":6583:6622   */\n  tag_39\n  jump\t// in\ntag_126:\n    /* \"#utility.yul\":6556:6557   */\n  0x01\n    /* \"#utility.yul\":6549:6554   */\n  dup2\n    /* \"#utility.yul\":6545:6558   */\n  add\n    /* \"#utility.yul\":6536:6558   */\n  swap1\n  pop\n    /* \"#utility.yul\":6512:6632   */\n  jump(tag_123)\ntag_125:\n    /* \"#utility.yul\":6452:6638   */\n  pop\n  pop\n  jump\t// out\n    /* \"#utility.yul\":6644:7187   */\ntag_41:\n    /* \"#utility.yul\":6745:6747   */\n  0x1f\n    /* \"#utility.yul\":6740:6743   */\n  dup3\n    /* \"#utility.yul\":6737:6748   */\n  gt\n    /* \"#utility.yul\":6734:7180   */\n  iszero\n  tag_128\n  jumpi\n    /* \"#utility.yul\":6779:6817   */\n  tag_129\n    /* \"#utility.yul\":6811:6816   */\n  dup2\n    /* \"#utility.yul\":6779:6817   */\n  tag_29\n  jump\t// in\ntag_129:\n    /* \"#utility.yul\":6863:6892   */\n  tag_130\n    /* \"#utility.yul\":6881:6891   */\n  dup5\n    /* \"#utility.yul\":6863:6892   */\n  tag_30\n  jump\t// in\ntag_130:\n    /* \"#utility.yul\":6853:6861   */\n  dup2\n    /* \"#utility.yul\":6849:6893   */\n  add\n    /* \"#utility.yul\":7046:7048   */\n  0x20\n    /* \"#utility.yul\":7034:7044   */\n  dup6\n    /* \"#utility.yul\":7031:7049   */\n  lt\n    /* \"#utility.yul\":7028:7077   */\n  iszero\n  tag_131\n  jumpi\n    /* \"#utility.yul\":7067:7075   */\n  dup2\n    /* \"#utility.yul\":7052:7075   */\n  swap1\n  pop\n    /* \"#utility.yul\":7028:7077   */\ntag_131:\n    /* \"#utility.yul\":7090:7170   */\n  tag_132\n    /* \"#utility.yul\":7146:7168   */\n  tag_133\n    /* \"#utility.yul\":7164:7167   */\n  dup6\n    /* \"#utility.yul\":7146:7168   */\n  tag_30\n  jump\t// in\ntag_133:\n    /* \"#utility.yul\":7136:7144   */\n  dup4\n    /* \"#utility.yul\":7132:7169   */\n  add\n    /* \"#utility.yul\":7119:7130   */\n  dup3\n    /* \"#utility.yul\":7090:7170   */\n  tag_40\n  jump\t// in\ntag_132:\n    /* \"#utility.yul\":6749:7180   */\n  pop\n  pop\n    /* \"#utility.yul\":6734:7180   */\ntag_128:\n    /* \"#utility.yul\":6644:7187   */\n  pop\n  pop\n  pop\n  jump\t// out\n    /* \"#utility.yul\":7193:7310   */\ntag_42:\n    /* \"#utility.yul\":7247:7255   */\n  0x00\n    /* \"#utility.yul\":7297:7302   */\n  dup3\n    /* \"#utility.yul\":7291:7295   */\n  dup3\n    /* \"#utility.yul\":7287:7303   */\n  shr\n    /* \"#utility.yul\":7266:7303   */\n  swap1\n  pop\n    /* \"#utility.yul\":7193:7310   */\n  swap3\n  swap2\n  pop\n  pop\n  jump\t// out\n    /* \"#utility.yul\":7316:7485   */\ntag_43:\n    /* \"#utility.yul\":7360:7366   */\n  0x00\n    /* \"#utility.yul\":7393:7444   */\n  tag_136\n    /* \"#utility.yul\":7441:7442   */\n  0x00\n    /* \"#utility.yul\":7437:7443   */\n  not\n    /* \"#utility.yul\":7429:7434   */\n  dup5\n    /* \"#utility.yul\":7426:7427   */\n  0x08\n    /* \"#utility.yul\":7422:7435   */\n  mul\n    /* \"#utility.yul\":7393:7444   */\n  tag_42\n  jump\t// in\ntag_136:\n    /* \"#utility.yul\":7389:7445   */\n  not\n    /* \"#utility.yul\":7474:7478   */\n  dup1\n    /* \"#utility.yul\":7468:7472   */\n  dup4\n    /* \"#utility.yul\":7464:7479   */\n  and\n    /* \"#utility.yul\":7454:7479   */\n  swap2\n  pop\n    /* \"#utility.yul\":7367:7485   */\n  pop\n    /* \"#utility.yul\":7316:7485   */\n  swap3\n  swap2\n  pop\n  pop\n  jump\t// out\n    /* \"#utility.yul\":7490:7785   */\ntag_44:\n    /* \"#utility.yul\":7566:7570   */\n  0x00\n    /* \"#utility.yul\":7712:7741   */\n  tag_138\n    /* \"#utility.yul\":7737:7740   */\n  dup4\n    /* \"#utility.yul\":7731:7735   */\n  dup4\n    /* \"#utility.yul\":7712:7741   */\n  tag_43\n  jump\t// in\ntag_138:\n    /* \"#utility.yul\":7704:7741   */\n  swap2\n  pop\n    /* \"#utility.yul\":7774:7777   */\n  dup3\n    /* \"#utility.yul\":7771:7772   */\n  0x02\n    /* \"#utility.yul\":7767:7778   */\n  mul\n    /* \"#utility.yul\":7761:7765   */\n  dup3\n    /* \"#utility.yul\":7758:7779   */\n  or\n    /* \"#utility.yul\":7750:7779   */\n  swap1\n  pop\n    /* \"#utility.yul\":7490:7785   */\n  swap3\n  swap2\n  pop\n  pop\n  jump\t// out\n    /* \"#utility.yul\":7790:9185   */\ntag_7:\n    /* \"#utility.yul\":7907:7944   */\n  tag_140\n    /* \"#utility.yul\":7940:7943   */\n  dup3\n    /* \"#utility.yul\":7907:7944   */\n  tag_26\n  jump\t// in\ntag_140:\n    /* \"#utility.yul\":8009:8027   */\n  0xffffffffffffffff\n    /* \"#utility.yul\":8001:8007   */\n  dup2\n    /* \"#utility.yul\":7998:8028   */\n  gt\n    /* \"#utility.yul\":7995:8051   */\n  iszero\n  tag_141\n  jumpi\n    /* \"#utility.yul\":8031:8049   */\n  tag_142\n  tag_15\n  jump\t// in\ntag_142:\n    /* \"#utility.yul\":7995:8051   */\ntag_141:\n    /* \"#utility.yul\":8075:8113   */\n  tag_143\n    /* \"#utility.yul\":8107:8111   */\n  dup3\n    /* \"#utility.yul\":8101:8112   */\n  sload\n    /* \"#utility.yul\":8075:8113   */\n  tag_28\n  jump\t// in\ntag_143:\n    /* \"#utility.yul\":8160:8227   */\n  tag_144\n    /* \"#utility.yul\":8220:8226   */\n  dup3\n    /* \"#utility.yul\":8212:8218   */\n  dup3\n    /* \"#utility.yul\":8206:8210   */\n  dup6\n    /* \"#utility.yul\":8160:8227   */\n  tag_41\n  jump\t// in\ntag_144:\n    /* \"#utility.yul\":8254:8255   */\n  0x00\n    /* \"#utility.yul\":8278:8282   */\n  0x20\n    /* \"#utility.yul\":8265:8282   */\n  swap1\n  pop\n    /* \"#utility.yul\":8310:8312   */\n  0x1f\n    /* \"#utility.yul\":8302:8308   */\n  dup4\n    /* \"#utility.yul\":8299:8313   */\n  gt\n    /* \"#utility.yul\":8327:8328   */\n  0x01\n    /* \"#utility.yul\":8322:8940   */\n  dup2\n  eq\n  tag_146\n  jumpi\n    /* \"#utility.yul\":8984:8985   */\n  0x00\n    /* \"#utility.yul\":9001:9007   */\n  dup5\n    /* \"#utility.yul\":8998:9075   */\n  iszero\n  tag_147\n  jumpi\n    /* \"#utility.yul\":9050:9059   */\n  dup3\n    /* \"#utility.yul\":9045:9048   */\n  dup8\n    /* \"#utility.yul\":9041:9060   */\n  add\n    /* \"#utility.yul\":9035:9061   */\n  mload\n    /* \"#utility.yul\":9026:9061   */\n  swap1\n  pop\n    /* \"#utility.yul\":8998:9075   */\ntag_147:\n    /* \"#utility.yul\":9101:9168   */\n  tag_148\n    /* \"#utility.yul\":9161:9167   */\n  dup6\n    /* \"#utility.yul\":9154:9159   */\n  dup3\n    /* \"#utility.yul\":9101:9168   */\n  tag_44\n  jump\t// in\ntag_148:\n    /* \"#utility.yul\":9095:9099   */\n  dup7\n    /* \"#utility.yul\":9088:9169   */\n  sstore\n    /* \"#utility.yul\":8957:9179   */\n  pop\n    /* \"#utility.yul\":8292:9179   */\n  jump(tag_145)\n    /* \"#utility.yul\":8322:8940   */\ntag_146:\n    /* \"#utility.yul\":8374:8378   */\n  0x1f\n    /* \"#utility.yul\":8370:8379   */\n  not\n    /* \"#utility.yul\":8362:8368   */\n  dup5\n    /* \"#utility.yul\":8358:8380   */\n  and\n    /* \"#utility.yul\":8408:8445   */\n  tag_149\n    /* \"#utility.yul\":8440:8444   */\n  dup7\n    /* \"#utility.yul\":8408:8445   */\n  tag_29\n  jump\t// in\ntag_149:\n    /* \"#utility.yul\":8467:8468   */\n  0x00\n    /* \"#utility.yul\":8481:8689   */\ntag_150:\n    /* \"#utility.yul\":8495:8502   */\n  dup3\n    /* \"#utility.yul\":8492:8493   */\n  dup2\n    /* \"#utility.yul\":8489:8503   */\n  lt\n    /* \"#utility.yul\":8481:8689   */\n  iszero\n  tag_152\n  jumpi\n    /* \"#utility.yul\":8574:8583   */\n  dup5\n    /* \"#utility.yul\":8569:8572   */\n  dup10\n    /* \"#utility.yul\":8565:8584   */\n  add\n    /* \"#utility.yul\":8559:8585   */\n  mload\n    /* \"#utility.yul\":8551:8557   */\n  dup3\n    /* \"#utility.yul\":8544:8586   */\n  sstore\n    /* \"#utility.yul\":8625:8626   */\n  0x01\n    /* \"#utility.yul\":8617:8623   */\n  dup3\n    /* \"#utility.yul\":8613:8627   */\n  add\n    /* \"#utility.yul\":8603:8627   */\n  swap2\n  pop\n    /* \"#utility.yul\":8672:8674   */\n  0x20\n    /* \"#utility.yul\":8661:8670   */\n  dup6\n    /* \"#utility.yul\":8657:8675   */\n  add\n    /* \"#utility.yul\":8644:8675   */\n  swap5\n  pop\n    /* \"#utility.yul\":8518:8522   */\n  0x20\n    /* \"#utility.yul\":8515:8516   */\n  dup2\n    /* \"#utility.yul\":8511:8523   */\n  add\n    /* \"#utility.yul\":8506:8523   */\n  swap1\n  pop\n    /* \"#utility.yul\":8481:8689   */\n  jump(tag_150)\ntag_152:\n    /* \"#utility.yul\":8717:8723   */\n  dup7\n    /* \"#utility.yul\":8708:8715   */\n  dup4\n    /* \"#utility.yul\":8705:8724   */\n  lt\n    /* \"#utility.yul\":8702:8881   */\n  iszero\n  tag_153\n  jumpi\n    /* \"#utility.yul\":8775:8784   */\n  dup5\n    /* \"#utility.yul\":8770:8773   */\n  dup10\n    /* \"#utility.yul\":8766:8785   */\n  add\n    /* \"#utility.yul\":8760:8786   */\n  mload\n    /* \"#utility.yul\":8818:8866   */\n  tag_154\n    /* \"#utility.yul\":8860:8864   */\n  0x1f\n    /* \"#utility.yul\":8852:8858   */\n  dup10\n    /* \"#utility.yul\":8848:8865   */\n  and\n    /* \"#utility.yul\":8837:8846   */\n  dup3\n    /* \"#utility.yul\":8818:8866   */\n  tag_43\n  jump\t// in\ntag_154:\n    /* \"#utility.yul\":8810:8816   */\n  dup4\n    /* \"#utility.yul\":8803:8867   */\n  sstore\n    /* \"#utility.yul\":8725:8881   */\n  pop\n    /* \"#utility.yul\":8702:8881   */\ntag_153:\n    /* \"#utility.yul\":8927:8928   */\n  0x01\n    /* \"#utility.yul\":8923:8924   */\n  0x02\n    /* \"#utility.yul\":8915:8921   */\n  dup9\n    /* \"#utility.yul\":8911:8925   */\n  mul\n    /* \"#utility.yul\":8907:8929   */\n  add\n    /* \"#utility.yul\":8901:8905   */\n  dup9\n    /* \"#utility.yul\":8894:8930   */\n  sstore\n    /* \"#utility.yul\":8329:8940   */\n  pop\n  pop\n  pop\n    /* \"#utility.yul\":8292:9179   */\ntag_145:\n  pop\n    /* \"#utility.yul\":7882:9185   */\n  pop\n  pop\n  pop\n    /* \"#utility.yul\":7790:9185   */\n  pop\n  pop\n  jump\t// out\n    /* \"contracts/Wallet.sol\":61:2564  contract Wallet {... */\ntag_8:\n  dataSize(sub_0)\n  dup1\n  dataOffset(sub_0)\n  0x00\n  codecopy\n  0x00\n  return\nstop\n\nsub_0: assembly {\n        /* \"contracts/Wallet.sol\":61:2564  contract Wallet {... */\n      mstore(0x40, 0x80)\n      jumpi(tag_1, lt(calldatasize, 0x04))\n      shr(0xe0, calldataload(0x00))\n      dup1\n      0xbd541302\n      gt\n      tag_10\n      jumpi\n      dup1\n      0xbd541302\n      eq\n      tag_6\n      jumpi\n      dup1\n      0xc71daccb\n      eq\n      tag_7\n      jumpi\n      dup1\n      0xd0e30db0\n      eq\n      tag_8\n      jumpi\n      dup1\n      0xeacc2940\n      eq\n      tag_9\n      jumpi\n      jump(tag_2)\n    tag_10:\n      dup1\n      0x3a7d280c\n      eq\n      tag_3\n      jumpi\n      dup1\n      0x49649fbf\n      eq\n      tag_4\n      jumpi\n      dup1\n      0xa49b5cb4\n      eq\n      tag_5\n      jumpi\n      jump(tag_2)\n    tag_1:\n      jumpi(tag_2, calldatasize)\n        /* \"contracts/Wallet.sol\":2266:2275  msg.value */\n      callvalue\n        /* \"contracts/Wallet.sol\":2256:2263  balance */\n      sload(0x00)\n        /* \"contracts/Wallet.sol\":2256:2275  balance + msg.value */\n      tag_13\n      swap2\n      swap1\n      tag_14\n      jump\t// in\n    tag_13:\n        /* \"contracts/Wallet.sol\":2246:2253  balance */\n      0x00\n        /* \"contracts/Wallet.sol\":2246:2275  balance = balance + msg.value */\n      dup2\n      swap1\n      sstore\n      stop\n        /* \"contracts/Wallet.sol\":61:2564  contract Wallet {... */\n    tag_2:\n        /* \"contracts/Wallet.sol\":2351:2360  msg.value */\n      callvalue\n        /* \"contracts/Wallet.sol\":2341:2348  balance */\n      sload(0x00)\n        /* \"contracts/Wallet.sol\":2341:2360  balance + msg.value */\n      tag_17\n      swap2\n      swap1\n      tag_14\n      jump\t// in\n    tag_17:\n        /* \"contracts/Wallet.sol\":2331:2338  balance */\n      0x00\n        /* \"contracts/Wallet.sol\":2331:2360  balance = balance + msg.value */\n      dup2\n      swap1\n      sstore\n      stop\n        /* \"contracts/Wallet.sol\":877:1055  function login(string memory accountPassphrase) public {... */\n    tag_3:\n      callvalue\n      dup1\n      iszero\n      tag_18\n      jumpi\n      0x00\n      dup1\n      revert\n    tag_18:\n      pop\n      tag_19\n      0x04\n      dup1\n      calldatasize\n      sub\n      dup2\n      add\n      swap1\n      tag_20\n      swap2\n      swap1\n      tag_21\n      jump\t// in\n    tag_20:\n      tag_22\n      jump\t// in\n    tag_19:\n      stop\n        /* \"contracts/Wallet.sol\":672:869  function withdrawAllFunds() public {... */\n    tag_4:\n      callvalue\n      dup1\n      iszero\n      tag_23\n      jumpi\n      0x00\n      dup1\n      revert\n    tag_23:\n      pop\n      tag_24\n      tag_25\n      jump\t// in\n    tag_24:\n      stop\n        /* \"contracts/Wallet.sol\":1679:2120  function withdrawToAccount(uint amount, address payable toAccount) public {... */\n    tag_5:\n      callvalue\n      dup1\n      iszero\n      tag_26\n      jumpi\n      0x00\n      dup1\n      revert\n    tag_26:\n      pop\n      tag_27\n      0x04\n      dup1\n      calldatasize\n      sub\n      dup2\n      add\n      swap1\n      tag_28\n      swap2\n      swap1\n      tag_29\n      jump\t// in\n    tag_28:\n      tag_30\n      jump\t// in\n    tag_27:\n      stop\n        /* \"contracts/Wallet.sol\":1237:1671  function withdrawToCaller(uint amount) public {... */\n    tag_6:\n      callvalue\n      dup1\n      iszero\n      tag_31\n      jumpi\n      0x00\n      dup1\n      revert\n    tag_31:\n      pop\n      tag_32\n      0x04\n      dup1\n      calldatasize\n      sub\n      dup2\n      add\n      swap1\n      tag_33\n      swap2\n      swap1\n      tag_34\n      jump\t// in\n    tag_33:\n      tag_35\n      jump\t// in\n    tag_32:\n      stop\n        /* \"contracts/Wallet.sol\":531:664  function checkBalance() public view returns(uint){... */\n    tag_7:\n      callvalue\n      dup1\n      iszero\n      tag_36\n      jumpi\n      0x00\n      dup1\n      revert\n    tag_36:\n      pop\n      tag_37\n      tag_38\n      jump\t// in\n    tag_37:\n      mload(0x40)\n      tag_39\n      swap2\n      swap1\n      tag_40\n      jump\t// in\n    tag_39:\n      mload(0x40)\n      dup1\n      swap2\n      sub\n      swap1\n      return\n        /* \"contracts/Wallet.sol\":2128:2200  function deposit() public payable{... */\n    tag_8:\n      tag_41\n      tag_42\n      jump\t// in\n    tag_41:\n      stop\n        /* \"contracts/Wallet.sol\":1063:1229  function updateAllowance(uint amount, address payable account) public{... */\n    tag_9:\n      callvalue\n      dup1\n      iszero\n      tag_43\n      jumpi\n      0x00\n      dup1\n      revert\n    tag_43:\n      pop\n      tag_44\n      0x04\n      dup1\n      calldatasize\n      sub\n      dup2\n      add\n      swap1\n      tag_45\n      swap2\n      swap1\n      tag_29\n      jump\t// in\n    tag_45:\n      tag_46\n      jump\t// in\n    tag_44:\n      stop\n        /* \"contracts/Wallet.sol\":877:1055  function login(string memory accountPassphrase) public {... */\n    tag_22:\n        /* \"contracts/Wallet.sol\":951:996  compareStrings(accountPassphrase, passphrase) */\n      tag_48\n        /* \"contracts/Wallet.sol\":966:983  accountPassphrase */\n      dup2\n        /* \"contracts/Wallet.sol\":985:995  passphrase */\n      0x01\n        /* \"contracts/Wallet.sol\":951:996  compareStrings(accountPassphrase, passphrase) */\n      dup1\n      sload\n      tag_49\n      swap1\n      tag_50\n      jump\t// in\n    tag_49:\n      dup1\n      0x1f\n      add\n      0x20\n      dup1\n      swap2\n      div\n      mul\n      0x20\n      add\n      mload(0x40)\n      swap1\n      dup2\n      add\n      0x40\n      mstore\n      dup1\n      swap3\n      swap2\n      swap1\n      dup2\n      dup2\n      mstore\n      0x20\n      add\n      dup3\n      dup1\n      sload\n      tag_51\n      swap1\n      tag_50\n      jump\t// in\n    tag_51:\n      dup1\n      iszero\n      tag_52\n      jumpi\n      dup1\n      0x1f\n      lt\n      tag_53\n      jumpi\n      0x0100\n      dup1\n      dup4\n      sload\n      div\n      mul\n      dup4\n      mstore\n      swap2\n      0x20\n      add\n      swap2\n      jump(tag_52)\n    tag_53:\n      dup3\n      add\n      swap2\n      swap1\n      0x00\n      mstore\n      keccak256(0x00, 0x20)\n      swap1\n    tag_54:\n      dup2\n      sload\n      dup2\n      mstore\n      swap1\n      0x01\n      add\n      swap1\n      0x20\n      add\n      dup1\n      dup4\n      gt\n      tag_54\n      jumpi\n      dup3\n      swap1\n      sub\n      0x1f\n      and\n      dup3\n      add\n      swap2\n    tag_52:\n      pop\n      pop\n      pop\n      pop\n      pop\n        /* \"contracts/Wallet.sol\":951:965  compareStrings */\n      tag_55\n        /* \"contracts/Wallet.sol\":951:996  compareStrings(accountPassphrase, passphrase) */\n      jump\t// in\n    tag_48:\n        /* \"contracts/Wallet.sol\":943:1019  require(compareStrings(accountPassphrase, passphrase), \"Invalid passphrase\") */\n      tag_56\n      jumpi\n      mload(0x40)\n      0x08c379a000000000000000000000000000000000000000000000000000000000\n      dup2\n      mstore\n      0x04\n      add\n      tag_57\n      swap1\n      tag_58\n      jump\t// in\n    tag_57:\n      mload(0x40)\n      dup1\n      swap2\n      sub\n      swap1\n      revert\n    tag_56:\n        /* \"contracts/Wallet.sol\":1043:1047  true */\n      0x01\n        /* \"contracts/Wallet.sol\":1030:1040  isLoggedIn */\n      0x04\n      0x00\n        /* \"contracts/Wallet.sol\":1030:1047  isLoggedIn = true */\n      0x0100\n      exp\n      dup2\n      sload\n      dup2\n      0xff\n      mul\n      not\n      and\n      swap1\n      dup4\n      iszero\n      iszero\n      mul\n      or\n      swap1\n      sstore\n      pop\n        /* \"contracts/Wallet.sol\":877:1055  function login(string memory accountPassphrase) public {... */\n      pop\n      jump\t// out\n        /* \"contracts/Wallet.sol\":672:869  function withdrawAllFunds() public {... */\n    tag_25:\n        /* \"contracts/Wallet.sol\":726:742  guardianAccounts */\n      0x02\n        /* \"contracts/Wallet.sol\":726:754  guardianAccounts[msg.sender] */\n      0x00\n        /* \"contracts/Wallet.sol\":743:753  msg.sender */\n      caller\n        /* \"contracts/Wallet.sol\":726:754  guardianAccounts[msg.sender] */\n      0xffffffffffffffffffffffffffffffffffffffff\n      and\n      0xffffffffffffffffffffffffffffffffffffffff\n      and\n      dup2\n      mstore\n      0x20\n      add\n      swap1\n      dup2\n      mstore\n      0x20\n      add\n      0x00\n      keccak256\n      0x00\n      swap1\n      sload\n      swap1\n      0x0100\n      exp\n      swap1\n      div\n      0xff\n      and\n        /* \"contracts/Wallet.sol\":718:813  require(guardianAccounts[msg.sender], \"Wallet transfer cannot be done to non-guardian account\") */\n      tag_60\n      jumpi\n      mload(0x40)\n      0x08c379a000000000000000000000000000000000000000000000000000000000\n      dup2\n      mstore\n      0x04\n      add\n      tag_61\n      swap1\n      tag_62\n      jump\t// in\n    tag_61:\n      mload(0x40)\n      dup1\n      swap2\n      sub\n      swap1\n      revert\n    tag_60:\n        /* \"contracts/Wallet.sol\":832:842  msg.sender */\n      caller\n        /* \"contracts/Wallet.sol\":824:852  payable(msg.sender).transfer */\n      0xffffffffffffffffffffffffffffffffffffffff\n      and\n        /* \"contracts/Wallet.sol\":824:861  payable(msg.sender).transfer(balance) */\n      0x08fc\n        /* \"contracts/Wallet.sol\":853:860  balance */\n      sload(0x00)\n        /* \"contracts/Wallet.sol\":824:861  payable(msg.sender).transfer(balance) */\n      swap1\n      dup2\n      iszero\n      mul\n      swap1\n      mload(0x40)\n      0x00\n      mload(0x40)\n      dup1\n      dup4\n      sub\n      dup2\n      dup6\n      dup9\n      dup9\n      call\n      swap4\n      pop\n      pop\n      pop\n      pop\n      iszero\n      dup1\n      iszero\n      tag_64\n      jumpi\n      returndatasize\n      0x00\n      dup1\n      returndatacopy\n      revert(0x00, returndatasize)\n    tag_64:\n      pop\n        /* \"contracts/Wallet.sol\":672:869  function withdrawAllFunds() public {... */\n      jump\t// out\n        /* \"contracts/Wallet.sol\":1679:2120  function withdrawToAccount(uint amount, address payable toAccount) public {... */\n    tag_30:\n        /* \"contracts/Wallet.sol\":1772:1782  isLoggedIn */\n      0x04\n      0x00\n      swap1\n      sload\n      swap1\n      0x0100\n      exp\n      swap1\n      div\n      0xff\n      and\n        /* \"contracts/Wallet.sol\":1764:1804  require(isLoggedIn, \"You have to login\") */\n      tag_66\n      jumpi\n      mload(0x40)\n      0x08c379a000000000000000000000000000000000000000000000000000000000\n      dup2\n      mstore\n      0x04\n      add\n      tag_67\n      swap1\n      tag_68\n      jump\t// in\n    tag_67:\n      mload(0x40)\n      dup1\n      swap2\n      sub\n      swap1\n      revert\n    tag_66:\n        /* \"contracts/Wallet.sol\":1847:1853  amount */\n      dup2\n        /* \"contracts/Wallet.sol\":1823:1832  allowance */\n      0x03\n        /* \"contracts/Wallet.sol\":1823:1843  allowance[toAccount] */\n      0x00\n        /* \"contracts/Wallet.sol\":1833:1842  toAccount */\n      dup4\n        /* \"contracts/Wallet.sol\":1823:1843  allowance[toAccount] */\n      0xffffffffffffffffffffffffffffffffffffffff\n      and\n      0xffffffffffffffffffffffffffffffffffffffff\n      and\n      dup2\n      mstore\n      0x20\n      add\n      swap1\n      dup2\n      mstore\n      0x20\n      add\n      0x00\n      keccak256\n      sload\n        /* \"contracts/Wallet.sol\":1823:1853  allowance[toAccount] >= amount */\n      lt\n      iszero\n        /* \"contracts/Wallet.sol\":1815:1912  require(allowance[toAccount] >= amount,  \"Withdrawal Amount is greater than available allowance\") */\n      tag_69\n      jumpi\n      mload(0x40)\n      0x08c379a000000000000000000000000000000000000000000000000000000000\n      dup2\n      mstore\n      0x04\n      add\n      tag_70\n      swap1\n      tag_71\n      jump\t// in\n    tag_70:\n      mload(0x40)\n      dup1\n      swap2\n      sub\n      swap1\n      revert\n    tag_69:\n        /* \"contracts/Wallet.sol\":1942:1948  amount */\n      dup2\n        /* \"contracts/Wallet.sol\":1931:1938  balance */\n      sload(0x00)\n        /* \"contracts/Wallet.sol\":1931:1948  balance >= amount */\n      lt\n      iszero\n        /* \"contracts/Wallet.sol\":1923:2004  require(balance >= amount, \"Withdrawal Amount is greater than available balance\") */\n      tag_72\n      jumpi\n      mload(0x40)\n      0x08c379a000000000000000000000000000000000000000000000000000000000\n      dup2\n      mstore\n      0x04\n      add\n      tag_73\n      swap1\n      tag_74\n      jump\t// in\n    tag_73:\n      mload(0x40)\n      dup1\n      swap2\n      sub\n      swap1\n      revert\n    tag_72:\n        /* \"contracts/Wallet.sol\":2028:2034  amount */\n      dup2\n        /* \"contracts/Wallet.sol\":2017:2024  balance */\n      0x00\n      dup1\n        /* \"contracts/Wallet.sol\":2017:2034  balance -= amount */\n      dup3\n      dup3\n      sload\n      tag_75\n      swap2\n      swap1\n      tag_76\n      jump\t// in\n    tag_75:\n      swap3\n      pop\n      pop\n      dup2\n      swap1\n      sstore\n      pop\n        /* \"contracts/Wallet.sol\":2069:2075  amount */\n      dup2\n        /* \"contracts/Wallet.sol\":2045:2054  allowance */\n      0x03\n        /* \"contracts/Wallet.sol\":2045:2065  allowance[toAccount] */\n      0x00\n        /* \"contracts/Wallet.sol\":2055:2064  toAccount */\n      dup4\n        /* \"contracts/Wallet.sol\":2045:2065  allowance[toAccount] */\n      0xffffffffffffffffffffffffffffffffffffffff\n      and\n      0xffffffffffffffffffffffffffffffffffffffff\n      and\n      dup2\n      mstore\n      0x20\n      add\n      swap1\n      dup2\n      mstore\n      0x20\n      add\n      0x00\n      keccak256\n      0x00\n        /* \"contracts/Wallet.sol\":2045:2075  allowance[toAccount] -= amount */\n      dup3\n      dup3\n      sload\n      tag_77\n      swap2\n      swap1\n      tag_76\n      jump\t// in\n    tag_77:\n      swap3\n      pop\n      pop\n      dup2\n      swap1\n      sstore\n      pop\n        /* \"contracts/Wallet.sol\":2086:2095  toAccount */\n      dup1\n        /* \"contracts/Wallet.sol\":2086:2104  toAccount.transfer */\n      0xffffffffffffffffffffffffffffffffffffffff\n      and\n        /* \"contracts/Wallet.sol\":2086:2112  toAccount.transfer(amount) */\n      0x08fc\n        /* \"contracts/Wallet.sol\":2105:2111  amount */\n      dup4\n        /* \"contracts/Wallet.sol\":2086:2112  toAccount.transfer(amount) */\n      swap1\n      dup2\n      iszero\n      mul\n      swap1\n      mload(0x40)\n      0x00\n      mload(0x40)\n      dup1\n      dup4\n      sub\n      dup2\n      dup6\n      dup9\n      dup9\n      call\n      swap4\n      pop\n      pop\n      pop\n      pop\n      iszero\n      dup1\n      iszero\n      tag_79\n      jumpi\n      returndatasize\n      0x00\n      dup1\n      returndatacopy\n      revert(0x00, returndatasize)\n    tag_79:\n      pop\n        /* \"contracts/Wallet.sol\":1679:2120  function withdrawToAccount(uint amount, address payable toAccount) public {... */\n      pop\n      pop\n      jump\t// out\n        /* \"contracts/Wallet.sol\":1237:1671  function withdrawToCaller(uint amount) public {... */\n    tag_35:\n        /* \"contracts/Wallet.sol\":1302:1312  isLoggedIn */\n      0x04\n      0x00\n      swap1\n      sload\n      swap1\n      0x0100\n      exp\n      swap1\n      div\n      0xff\n      and\n        /* \"contracts/Wallet.sol\":1294:1334  require(isLoggedIn, \"You have to login\") */\n      tag_81\n      jumpi\n      mload(0x40)\n      0x08c379a000000000000000000000000000000000000000000000000000000000\n      dup2\n      mstore\n      0x04\n      add\n      tag_82\n      swap1\n      tag_68\n      jump\t// in\n    tag_82:\n      mload(0x40)\n      dup1\n      swap2\n      sub\n      swap1\n      revert\n    tag_81:\n        /* \"contracts/Wallet.sol\":1378:1384  amount */\n      dup1\n        /* \"contracts/Wallet.sol\":1353:1362  allowance */\n      0x03\n        /* \"contracts/Wallet.sol\":1353:1374  allowance[msg.sender] */\n      0x00\n        /* \"contracts/Wallet.sol\":1363:1373  msg.sender */\n      caller\n        /* \"contracts/Wallet.sol\":1353:1374  allowance[msg.sender] */\n      0xffffffffffffffffffffffffffffffffffffffff\n      and\n      0xffffffffffffffffffffffffffffffffffffffff\n      and\n      dup2\n      mstore\n      0x20\n      add\n      swap1\n      dup2\n      mstore\n      0x20\n      add\n      0x00\n      keccak256\n      sload\n        /* \"contracts/Wallet.sol\":1353:1384  allowance[msg.sender] >= amount */\n      lt\n      iszero\n        /* \"contracts/Wallet.sol\":1345:1442  require(allowance[msg.sender] >= amount, \"Withdrawal Amount is greater than available allowance\") */\n      tag_83\n      jumpi\n      mload(0x40)\n      0x08c379a000000000000000000000000000000000000000000000000000000000\n      dup2\n      mstore\n      0x04\n      add\n      tag_84\n      swap1\n      tag_71\n      jump\t// in\n    tag_84:\n      mload(0x40)\n      dup1\n      swap2\n      sub\n      swap1\n      revert\n    tag_83:\n        /* \"contracts/Wallet.sol\":1472:1478  amount */\n      dup1\n        /* \"contracts/Wallet.sol\":1461:1468  balance */\n      sload(0x00)\n        /* \"contracts/Wallet.sol\":1461:1478  balance >= amount */\n      lt\n      iszero\n        /* \"contracts/Wallet.sol\":1453:1534  require(balance >= amount, \"Withdrawal Amount is greater than available balance\") */\n      tag_85\n      jumpi\n      mload(0x40)\n      0x08c379a000000000000000000000000000000000000000000000000000000000\n      dup2\n      mstore\n      0x04\n      add\n      tag_86\n      swap1\n      tag_74\n      jump\t// in\n    tag_86:\n      mload(0x40)\n      dup1\n      swap2\n      sub\n      swap1\n      revert\n    tag_85:\n        /* \"contracts/Wallet.sol\":1566:1572  amount */\n      dup1\n        /* \"contracts/Wallet.sol\":1555:1562  balance */\n      0x00\n      dup1\n        /* \"contracts/Wallet.sol\":1555:1572  balance -= amount */\n      dup3\n      dup3\n      sload\n      tag_87\n      swap2\n      swap1\n      tag_76\n      jump\t// in\n    tag_87:\n      swap3\n      pop\n      pop\n      dup2\n      swap1\n      sstore\n      pop\n        /* \"contracts/Wallet.sol\":1609:1615  amount */\n      dup1\n        /* \"contracts/Wallet.sol\":1583:1592  allowance */\n      0x03\n        /* \"contracts/Wallet.sol\":1583:1604  allowance[msg.sender] */\n      0x00\n        /* \"contracts/Wallet.sol\":1593:1603  msg.sender */\n      caller\n        /* \"contracts/Wallet.sol\":1583:1604  allowance[msg.sender] */\n      0xffffffffffffffffffffffffffffffffffffffff\n      and\n      0xffffffffffffffffffffffffffffffffffffffff\n      and\n      dup2\n      mstore\n      0x20\n      add\n      swap1\n      dup2\n      mstore\n      0x20\n      add\n      0x00\n      keccak256\n      0x00\n        /* \"contracts/Wallet.sol\":1583:1615  allowance[msg.sender]  -= amount */\n      dup3\n      dup3\n      sload\n      tag_88\n      swap2\n      swap1\n      tag_76\n      jump\t// in\n    tag_88:\n      swap3\n      pop\n      pop\n      dup2\n      swap1\n      sstore\n      pop\n        /* \"contracts/Wallet.sol\":1634:1644  msg.sender */\n      caller\n        /* \"contracts/Wallet.sol\":1626:1654  payable(msg.sender).transfer */\n      0xffffffffffffffffffffffffffffffffffffffff\n      and\n        /* \"contracts/Wallet.sol\":1626:1662  payable(msg.sender).transfer(amount) */\n      0x08fc\n        /* \"contracts/Wallet.sol\":1655:1661  amount */\n      dup3\n        /* \"contracts/Wallet.sol\":1626:1662  payable(msg.sender).transfer(amount) */\n      swap1\n      dup2\n      iszero\n      mul\n      swap1\n      mload(0x40)\n      0x00\n      mload(0x40)\n      dup1\n      dup4\n      sub\n      dup2\n      dup6\n      dup9\n      dup9\n      call\n      swap4\n      pop\n      pop\n      pop\n      pop\n      iszero\n      dup1\n      iszero\n      tag_90\n      jumpi\n      returndatasize\n      0x00\n      dup1\n      returndatacopy\n      revert(0x00, returndatasize)\n    tag_90:\n      pop\n        /* \"contracts/Wallet.sol\":1237:1671  function withdrawToCaller(uint amount) public {... */\n      pop\n      jump\t// out\n        /* \"contracts/Wallet.sol\":531:664  function checkBalance() public view returns(uint){... */\n    tag_38:\n        /* \"contracts/Wallet.sol\":575:579  uint */\n      0x00\n        /* \"contracts/Wallet.sol\":599:609  isLoggedIn */\n      0x04\n      0x00\n      swap1\n      sload\n      swap1\n      0x0100\n      exp\n      swap1\n      div\n      0xff\n      and\n        /* \"contracts/Wallet.sol\":591:631  require(isLoggedIn, \"You have to login\") */\n      tag_92\n      jumpi\n      mload(0x40)\n      0x08c379a000000000000000000000000000000000000000000000000000000000\n      dup2\n      mstore\n      0x04\n      add\n      tag_93\n      swap1\n      tag_68\n      jump\t// in\n    tag_93:\n      mload(0x40)\n      dup1\n      swap2\n      sub\n      swap1\n      revert\n    tag_92:\n        /* \"contracts/Wallet.sol\":649:656  balance */\n      sload(0x00)\n        /* \"contracts/Wallet.sol\":642:656  return balance */\n      swap1\n      pop\n        /* \"contracts/Wallet.sol\":531:664  function checkBalance() public view returns(uint){... */\n      swap1\n      jump\t// out\n        /* \"contracts/Wallet.sol\":2128:2200  function deposit() public payable{... */\n    tag_42:\n        /* \"contracts/Wallet.sol\":2183:2192  msg.value */\n      callvalue\n        /* \"contracts/Wallet.sol\":2172:2179  balance */\n      0x00\n      dup1\n        /* \"contracts/Wallet.sol\":2172:2192  balance += msg.value */\n      dup3\n      dup3\n      sload\n      tag_95\n      swap2\n      swap1\n      tag_14\n      jump\t// in\n    tag_95:\n      swap3\n      pop\n      pop\n      dup2\n      swap1\n      sstore\n      pop\n        /* \"contracts/Wallet.sol\":2128:2200  function deposit() public payable{... */\n      jump\t// out\n        /* \"contracts/Wallet.sol\":1063:1229  function updateAllowance(uint amount, address payable account) public{... */\n    tag_46:\n        /* \"contracts/Wallet.sol\":1151:1161  isLoggedIn */\n      0x04\n      0x00\n      swap1\n      sload\n      swap1\n      0x0100\n      exp\n      swap1\n      div\n      0xff\n      and\n        /* \"contracts/Wallet.sol\":1143:1183  require(isLoggedIn, \"You have to login\") */\n      tag_97\n      jumpi\n      mload(0x40)\n      0x08c379a000000000000000000000000000000000000000000000000000000000\n      dup2\n      mstore\n      0x04\n      add\n      tag_98\n      swap1\n      tag_68\n      jump\t// in\n    tag_98:\n      mload(0x40)\n      dup1\n      swap2\n      sub\n      swap1\n      revert\n    tag_97:\n        /* \"contracts/Wallet.sol\":1215:1221  amount */\n      dup2\n        /* \"contracts/Wallet.sol\":1194:1203  allowance */\n      0x03\n        /* \"contracts/Wallet.sol\":1194:1212  allowance[account] */\n      0x00\n        /* \"contracts/Wallet.sol\":1204:1211  account */\n      dup4\n        /* \"contracts/Wallet.sol\":1194:1212  allowance[account] */\n      0xffffffffffffffffffffffffffffffffffffffff\n      and\n      0xffffffffffffffffffffffffffffffffffffffff\n      and\n      dup2\n      mstore\n      0x20\n      add\n      swap1\n      dup2\n      mstore\n      0x20\n      add\n      0x00\n      keccak256\n        /* \"contracts/Wallet.sol\":1194:1221  allowance[account] = amount */\n      dup2\n      swap1\n      sstore\n      pop\n        /* \"contracts/Wallet.sol\":1063:1229  function updateAllowance(uint amount, address payable account) public{... */\n      pop\n      pop\n      jump\t// out\n        /* \"contracts/Wallet.sol\":2376:2557  function compareStrings(string memory s1, string memory s2) pure internal returns (bool) {... */\n    tag_55:\n        /* \"contracts/Wallet.sol\":2459:2463  bool */\n      0x00\n        /* \"contracts/Wallet.sol\":2545:2547  s2 */\n      dup2\n        /* \"contracts/Wallet.sol\":2528:2548  abi.encodePacked(s2) */\n      add(0x20, mload(0x40))\n      tag_100\n      swap2\n      swap1\n      tag_101\n      jump\t// in\n    tag_100:\n      mload(0x40)\n      0x20\n      dup2\n      dup4\n      sub\n      sub\n      dup2\n      mstore\n      swap1\n      0x40\n      mstore\n        /* \"contracts/Wallet.sol\":2518:2549  keccak256(abi.encodePacked(s2)) */\n      dup1\n      mload\n      swap1\n      0x20\n      add\n      keccak256\n        /* \"contracts/Wallet.sol\":2510:2512  s1 */\n      dup4\n        /* \"contracts/Wallet.sol\":2493:2513  abi.encodePacked(s1) */\n      add(0x20, mload(0x40))\n      tag_102\n      swap2\n      swap1\n      tag_101\n      jump\t// in\n    tag_102:\n      mload(0x40)\n      0x20\n      dup2\n      dup4\n      sub\n      sub\n      dup2\n      mstore\n      swap1\n      0x40\n      mstore\n        /* \"contracts/Wallet.sol\":2483:2514  keccak256(abi.encodePacked(s1)) */\n      dup1\n      mload\n      swap1\n      0x20\n      add\n      keccak256\n        /* \"contracts/Wallet.sol\":2483:2549  keccak256(abi.encodePacked(s1)) == keccak256(abi.encodePacked(s2)) */\n      eq\n        /* \"contracts/Wallet.sol\":2476:2549  return keccak256(abi.encodePacked(s1)) == keccak256(abi.encodePacked(s2)) */\n      swap1\n      pop\n        /* \"contracts/Wallet.sol\":2376:2557  function compareStrings(string memory s1, string memory s2) pure internal returns (bool) {... */\n      swap3\n      swap2\n      pop\n      pop\n      jump\t// out\n        /* \"#utility.yul\":7:84   */\n    tag_103:\n        /* \"#utility.yul\":44:51   */\n      0x00\n        /* \"#utility.yul\":73:78   */\n      dup2\n        /* \"#utility.yul\":62:78   */\n      swap1\n      pop\n        /* \"#utility.yul\":7:84   */\n      swap2\n      swap1\n      pop\n      jump\t// out\n        /* \"#utility.yul\":90:270   */\n    tag_104:\n        /* \"#utility.yul\":138:215   */\n      0x4e487b7100000000000000000000000000000000000000000000000000000000\n        /* \"#utility.yul\":135:136   */\n      0x00\n        /* \"#utility.yul\":128:216   */\n      mstore\n        /* \"#utility.yul\":235:239   */\n      0x11\n        /* \"#utility.yul\":232:233   */\n      0x04\n        /* \"#utility.yul\":225:240   */\n      mstore\n        /* \"#utility.yul\":259:263   */\n      0x24\n        /* \"#utility.yul\":256:257   */\n      0x00\n        /* \"#utility.yul\":249:264   */\n      revert\n        /* \"#utility.yul\":276:581   */\n    tag_14:\n        /* \"#utility.yul\":316:319   */\n      0x00\n        /* \"#utility.yul\":335:355   */\n      tag_145\n        /* \"#utility.yul\":353:354   */\n      dup3\n        /* \"#utility.yul\":335:355   */\n      tag_103\n      jump\t// in\n    tag_145:\n        /* \"#utility.yul\":330:355   */\n      swap2\n      pop\n        /* \"#utility.yul\":369:389   */\n      tag_146\n        /* \"#utility.yul\":387:388   */\n      dup4\n        /* \"#utility.yul\":369:389   */\n      tag_103\n      jump\t// in\n    tag_146:\n        /* \"#utility.yul\":364:389   */\n      swap3\n      pop\n        /* \"#utility.yul\":523:524   */\n      dup3\n        /* \"#utility.yul\":455:521   */\n      0xffffffffffffffffffffffffffffffffffffffffffffffffffffffffffffffff\n        /* \"#utility.yul\":451:525   */\n      sub\n        /* \"#utility.yul\":448:449   */\n      dup3\n        /* \"#utility.yul\":445:526   */\n      gt\n        /* \"#utility.yul\":442:549   */\n      iszero\n      tag_147\n      jumpi\n        /* \"#utility.yul\":529:547   */\n      tag_148\n      tag_104\n      jump\t// in\n    tag_148:\n        /* \"#utility.yul\":442:549   */\n    tag_147:\n        /* \"#utility.yul\":573:574   */\n      dup3\n        /* \"#utility.yul\":570:571   */\n      dup3\n        /* \"#utility.yul\":566:575   */\n      add\n        /* \"#utility.yul\":559:575   */\n      swap1\n      pop\n        /* \"#utility.yul\":276:581   */\n      swap3\n      swap2\n      pop\n      pop\n      jump\t// out\n        /* \"#utility.yul\":587:662   */\n    tag_105:\n        /* \"#utility.yul\":620:626   */\n      0x00\n        /* \"#utility.yul\":653:655   */\n      0x40\n        /* \"#utility.yul\":647:656   */\n      mload\n        /* \"#utility.yul\":637:656   */\n      swap1\n      pop\n        /* \"#utility.yul\":587:662   */\n      swap1\n      jump\t// out\n        /* \"#utility.yul\":668:785   */\n    tag_106:\n        /* \"#utility.yul\":777:778   */\n      0x00\n        /* \"#utility.yul\":774:775   */\n      dup1\n        /* \"#utility.yul\":767:779   */\n      revert\n        /* \"#utility.yul\":791:908   */\n    tag_107:\n        /* \"#utility.yul\":900:901   */\n      0x00\n        /* \"#utility.yul\":897:898   */\n      dup1\n        /* \"#utility.yul\":890:902   */\n      revert\n        /* \"#utility.yul\":914:1031   */\n    tag_108:\n        /* \"#utility.yul\":1023:1024   */\n      0x00\n        /* \"#utility.yul\":1020:1021   */\n      dup1\n        /* \"#utility.yul\":1013:1025   */\n      revert\n        /* \"#utility.yul\":1037:1154   */\n    tag_109:\n        /* \"#utility.yul\":1146:1147   */\n      0x00\n        /* \"#utility.yul\":1143:1144   */\n      dup1\n        /* \"#utility.yul\":1136:1148   */\n      revert\n        /* \"#utility.yul\":1160:1262   */\n    tag_110:\n        /* \"#utility.yul\":1201:1207   */\n      0x00\n        /* \"#utility.yul\":1252:1254   */\n      0x1f\n        /* \"#utility.yul\":1248:1255   */\n      not\n        /* \"#utility.yul\":1243:1245   */\n      0x1f\n        /* \"#utility.yul\":1236:1241   */\n      dup4\n        /* \"#utility.yul\":1232:1246   */\n      add\n        /* \"#utility.yul\":1228:1256   */\n      and\n        /* \"#utility.yul\":1218:1256   */\n      swap1\n      pop\n        /* \"#utility.yul\":1160:1262   */\n      swap2\n      swap1\n      pop\n      jump\t// out\n        /* \"#utility.yul\":1268:1448   */\n    tag_111:\n        /* \"#utility.yul\":1316:1393   */\n      0x4e487b7100000000000000000000000000000000000000000000000000000000\n        /* \"#utility.yul\":1313:1314   */\n      0x00\n        /* \"#utility.yul\":1306:1394   */\n      mstore\n        /* \"#utility.yul\":1413:1417   */\n      0x41\n        /* \"#utility.yul\":1410:1411   */\n      0x04\n        /* \"#utility.yul\":1403:1418   */\n      mstore\n        /* \"#utility.yul\":1437:1441   */\n      0x24\n        /* \"#utility.yul\":1434:1435   */\n      0x00\n        /* \"#utility.yul\":1427:1442   */\n      revert\n        /* \"#utility.yul\":1454:1735   */\n    tag_112:\n        /* \"#utility.yul\":1537:1564   */\n      tag_157\n        /* \"#utility.yul\":1559:1563   */\n      dup3\n        /* \"#utility.yul\":1537:1564   */\n      tag_110\n      jump\t// in\n    tag_157:\n        /* \"#utility.yul\":1529:1535   */\n      dup2\n        /* \"#utility.yul\":1525:1565   */\n      add\n        /* \"#utility.yul\":1667:1673   */\n      dup2\n        /* \"#utility.yul\":1655:1665   */\n      dup2\n        /* \"#utility.yul\":1652:1674   */\n      lt\n        /* \"#utility.yul\":1631:1649   */\n      0xffffffffffffffff\n        /* \"#utility.yul\":1619:1629   */\n      dup3\n        /* \"#utility.yul\":1616:1650   */\n      gt\n        /* \"#utility.yul\":1613:1675   */\n      or\n        /* \"#utility.yul\":1610:1698   */\n      iszero\n      tag_158\n      jumpi\n        /* \"#utility.yul\":1678:1696   */\n      tag_159\n      tag_111\n      jump\t// in\n    tag_159:\n        /* \"#utility.yul\":1610:1698   */\n    tag_158:\n        /* \"#utility.yul\":1718:1728   */\n      dup1\n        /* \"#utility.yul\":1714:1716   */\n      0x40\n        /* \"#utility.yul\":1707:1729   */\n      mstore\n        /* \"#utility.yul\":1497:1735   */\n      pop\n        /* \"#utility.yul\":1454:1735   */\n      pop\n      pop\n      jump\t// out\n        /* \"#utility.yul\":1741:1870   */\n    tag_113:\n        /* \"#utility.yul\":1775:1781   */\n      0x00\n        /* \"#utility.yul\":1802:1822   */\n      tag_161\n      tag_105\n      jump\t// in\n    tag_161:\n        /* \"#utility.yul\":1792:1822   */\n      swap1\n      pop\n        /* \"#utility.yul\":1831:1864   */\n      tag_162\n        /* \"#utility.yul\":1859:1863   */\n      dup3\n        /* \"#utility.yul\":1851:1857   */\n      dup3\n        /* \"#utility.yul\":1831:1864   */\n      tag_112\n      jump\t// in\n    tag_162:\n        /* \"#utility.yul\":1741:1870   */\n      swap2\n      swap1\n      pop\n      jump\t// out\n        /* \"#utility.yul\":1876:2184   */\n    tag_114:\n        /* \"#utility.yul\":1938:1942   */\n      0x00\n        /* \"#utility.yul\":2028:2046   */\n      0xffffffffffffffff\n        /* \"#utility.yul\":2020:2026   */\n      dup3\n        /* \"#utility.yul\":2017:2047   */\n      gt\n        /* \"#utility.yul\":2014:2070   */\n      iszero\n      tag_164\n      jumpi\n        /* \"#utility.yul\":2050:2068   */\n      tag_165\n      tag_111\n      jump\t// in\n    tag_165:\n        /* \"#utility.yul\":2014:2070   */\n    tag_164:\n        /* \"#utility.yul\":2088:2117   */\n      tag_166\n        /* \"#utility.yul\":2110:2116   */\n      dup3\n        /* \"#utility.yul\":2088:2117   */\n      tag_110\n      jump\t// in\n    tag_166:\n        /* \"#utility.yul\":2080:2117   */\n      swap1\n      pop\n        /* \"#utility.yul\":2172:2176   */\n      0x20\n        /* \"#utility.yul\":2166:2170   */\n      dup2\n        /* \"#utility.yul\":2162:2177   */\n      add\n        /* \"#utility.yul\":2154:2177   */\n      swap1\n      pop\n        /* \"#utility.yul\":1876:2184   */\n      swap2\n      swap1\n      pop\n      jump\t// out\n        /* \"#utility.yul\":2190:2344   */\n    tag_115:\n        /* \"#utility.yul\":2274:2280   */\n      dup3\n        /* \"#utility.yul\":2269:2272   */\n      dup2\n        /* \"#utility.yul\":2264:2267   */\n      dup4\n        /* \"#utility.yul\":2251:2281   */\n      calldatacopy\n        /* \"#utility.yul\":2336:2337   */\n      0x00\n        /* \"#utility.yul\":2327:2333   */\n      dup4\n        /* \"#utility.yul\":2322:2325   */\n      dup4\n        /* \"#utility.yul\":2318:2334   */\n      add\n        /* \"#utility.yul\":2311:2338   */\n      mstore\n        /* \"#utility.yul\":2190:2344   */\n      pop\n      pop\n      pop\n      jump\t// out\n        /* \"#utility.yul\":2350:2762   */\n    tag_116:\n        /* \"#utility.yul\":2428:2433   */\n      0x00\n        /* \"#utility.yul\":2453:2519   */\n      tag_169\n        /* \"#utility.yul\":2469:2518   */\n      tag_170\n        /* \"#utility.yul\":2511:2517   */\n      dup5\n        /* \"#utility.yul\":2469:2518   */\n      tag_114\n      jump\t// in\n    tag_170:\n        /* \"#utility.yul\":2453:2519   */\n      tag_113\n      jump\t// in\n    tag_169:\n        /* \"#utility.yul\":2444:2519   */\n      swap1\n      pop\n        /* \"#utility.yul\":2542:2548   */\n      dup3\n        /* \"#utility.yul\":2535:2540   */\n      dup2\n        /* \"#utility.yul\":2528:2549   */\n      mstore\n        /* \"#utility.yul\":2580:2584   */\n      0x20\n        /* \"#utility.yul\":2573:2578   */\n      dup2\n        /* \"#utility.yul\":2569:2585   */\n      add\n        /* \"#utility.yul\":2618:2621   */\n      dup5\n        /* \"#utility.yul\":2609:2615   */\n      dup5\n        /* \"#utility.yul\":2604:2607   */\n      dup5\n        /* \"#utility.yul\":2600:2616   */\n      add\n        /* \"#utility.yul\":2597:2622   */\n      gt\n        /* \"#utility.yul\":2594:2706   */\n      iszero\n      tag_171\n      jumpi\n        /* \"#utility.yul\":2625:2704   */\n      tag_172\n      tag_109\n      jump\t// in\n    tag_172:\n        /* \"#utility.yul\":2594:2706   */\n    tag_171:\n        /* \"#utility.yul\":2715:2756   */\n      tag_173\n        /* \"#utility.yul\":2749:2755   */\n      dup5\n        /* \"#utility.yul\":2744:2747   */\n      dup3\n        /* \"#utility.yul\":2739:2742   */\n      dup6\n        /* \"#utility.yul\":2715:2756   */\n      tag_115\n      jump\t// in\n    tag_173:\n        /* \"#utility.yul\":2434:2762   */\n      pop\n        /* \"#utility.yul\":2350:2762   */\n      swap4\n      swap3\n      pop\n      pop\n      pop\n      jump\t// out\n        /* \"#utility.yul\":2782:3122   */\n    tag_117:\n        /* \"#utility.yul\":2838:2843   */\n      0x00\n        /* \"#utility.yul\":2887:2890   */\n      dup3\n        /* \"#utility.yul\":2880:2884   */\n      0x1f\n        /* \"#utility.yul\":2872:2878   */\n      dup4\n        /* \"#utility.yul\":2868:2885   */\n      add\n        /* \"#utility.yul\":2864:2891   */\n      slt\n        /* \"#utility.yul\":2854:2976   */\n      tag_175\n      jumpi\n        /* \"#utility.yul\":2895:2974   */\n      tag_176\n      tag_108\n      jump\t// in\n    tag_176:\n        /* \"#utility.yul\":2854:2976   */\n    tag_175:\n        /* \"#utility.yul\":3012:3018   */\n      dup2\n        /* \"#utility.yul\":2999:3019   */\n      calldataload\n        /* \"#utility.yul\":3037:3116   */\n      tag_177\n        /* \"#utility.yul\":3112:3115   */\n      dup5\n        /* \"#utility.yul\":3104:3110   */\n      dup3\n        /* \"#utility.yul\":3097:3101   */\n      0x20\n        /* \"#utility.yul\":3089:3095   */\n      dup7\n        /* \"#utility.yul\":3085:3102   */\n      add\n        /* \"#utility.yul\":3037:3116   */\n      tag_116\n      jump\t// in\n    tag_177:\n        /* \"#utility.yul\":3028:3116   */\n      swap2\n      pop\n        /* \"#utility.yul\":2844:3122   */\n      pop\n        /* \"#utility.yul\":2782:3122   */\n      swap3\n      swap2\n      pop\n      pop\n      jump\t// out\n        /* \"#utility.yul\":3128:3637   */\n    tag_21:\n        /* \"#utility.yul\":3197:3203   */\n      0x00\n        /* \"#utility.yul\":3246:3248   */\n      0x20\n        /* \"#utility.yul\":3234:3243   */\n      dup3\n        /* \"#utility.yul\":3225:3232   */\n      dup5\n        /* \"#utility.yul\":3221:3244   */\n      sub\n        /* \"#utility.yul\":3217:3249   */\n      slt\n        /* \"#utility.yul\":3214:3333   */\n      iszero\n      tag_179\n      jumpi\n        /* \"#utility.yul\":3252:3331   */\n      tag_180\n      tag_106\n      jump\t// in\n    tag_180:\n        /* \"#utility.yul\":3214:3333   */\n    tag_179:\n        /* \"#utility.yul\":3400:3401   */\n      0x00\n        /* \"#utility.yul\":3389:3398   */\n      dup3\n        /* \"#utility.yul\":3385:3402   */\n      add\n        /* \"#utility.yul\":3372:3403   */\n      calldataload\n        /* \"#utility.yul\":3430:3448   */\n      0xffffffffffffffff\n        /* \"#utility.yul\":3422:3428   */\n      dup2\n        /* \"#utility.yul\":3419:3449   */\n      gt\n        /* \"#utility.yul\":3416:3533   */\n      iszero\n      tag_181\n      jumpi\n        /* \"#utility.yul\":3452:3531   */\n      tag_182\n      tag_107\n      jump\t// in\n    tag_182:\n        /* \"#utility.yul\":3416:3533   */\n    tag_181:\n        /* \"#utility.yul\":3557:3620   */\n      tag_183\n        /* \"#utility.yul\":3612:3619   */\n      dup5\n        /* \"#utility.yul\":3603:3609   */\n      dup3\n        /* \"#utility.yul\":3592:3601   */\n      dup6\n        /* \"#utility.yul\":3588:3610   */\n      add\n        /* \"#utility.yul\":3557:3620   */\n      tag_117\n      jump\t// in\n    tag_183:\n        /* \"#utility.yul\":3547:3620   */\n      swap2\n      pop\n        /* \"#utility.yul\":3343:3630   */\n      pop\n        /* \"#utility.yul\":3128:3637   */\n      swap3\n      swap2\n      pop\n      pop\n      jump\t// out\n        /* \"#utility.yul\":3643:3765   */\n    tag_118:\n        /* \"#utility.yul\":3716:3740   */\n      tag_185\n        /* \"#utility.yul\":3734:3739   */\n      dup2\n        /* \"#utility.yul\":3716:3740   */\n      tag_103\n      jump\t// in\n    tag_185:\n        /* \"#utility.yul\":3709:3714   */\n      dup2\n        /* \"#utility.yul\":3706:3741   */\n      eq\n        /* \"#utility.yul\":3696:3759   */\n      tag_186\n      jumpi\n        /* \"#utility.yul\":3755:3756   */\n      0x00\n        /* \"#utility.yul\":3752:3753   */\n      dup1\n        /* \"#utility.yul\":3745:3757   */\n      revert\n        /* \"#utility.yul\":3696:3759   */\n    tag_186:\n        /* \"#utility.yul\":3643:3765   */\n      pop\n      jump\t// out\n        /* \"#utility.yul\":3771:3910   */\n    tag_119:\n        /* \"#utility.yul\":3817:3822   */\n      0x00\n        /* \"#utility.yul\":3855:3861   */\n      dup2\n        /* \"#utility.yul\":3842:3862   */\n      calldataload\n        /* \"#utility.yul\":3833:3862   */\n      swap1\n      pop\n        /* \"#utility.yul\":3871:3904   */\n      tag_188\n        /* \"#utility.yul\":3898:3903   */\n      dup2\n        /* \"#utility.yul\":3871:3904   */\n      tag_118\n      jump\t// in\n    tag_188:\n        /* \"#utility.yul\":3771:3910   */\n      swap3\n      swap2\n      pop\n      pop\n      jump\t// out\n        /* \"#utility.yul\":3916:4042   */\n    tag_120:\n        /* \"#utility.yul\":3953:3960   */\n      0x00\n        /* \"#utility.yul\":3993:4035   */\n      0xffffffffffffffffffffffffffffffffffffffff\n        /* \"#utility.yul\":3986:3991   */\n      dup3\n        /* \"#utility.yul\":3982:4036   */\n      and\n        /* \"#utility.yul\":3971:4036   */\n      swap1\n      pop\n        /* \"#utility.yul\":3916:4042   */\n      swap2\n      swap1\n      pop\n      jump\t// out\n        /* \"#utility.yul\":4048:4152   */\n    tag_121:\n        /* \"#utility.yul\":4093:4100   */\n      0x00\n        /* \"#utility.yul\":4122:4146   */\n      tag_191\n        /* \"#utility.yul\":4140:4145   */\n      dup3\n        /* \"#utility.yul\":4122:4146   */\n      tag_120\n      jump\t// in\n    tag_191:\n        /* \"#utility.yul\":4111:4146   */\n      swap1\n      pop\n        /* \"#utility.yul\":4048:4152   */\n      swap2\n      swap1\n      pop\n      jump\t// out\n        /* \"#utility.yul\":4158:4296   */\n    tag_122:\n        /* \"#utility.yul\":4239:4271   */\n      tag_193\n        /* \"#utility.yul\":4265:4270   */\n      dup2\n        /* \"#utility.yul\":4239:4271   */\n      tag_121\n      jump\t// in\n    tag_193:\n        /* \"#utility.yul\":4232:4237   */\n      dup2\n        /* \"#utility.yul\":4229:4272   */\n      eq\n        /* \"#utility.yul\":4219:4290   */\n      tag_194\n      jumpi\n        /* \"#utility.yul\":4286:4287   */\n      0x00\n        /* \"#utility.yul\":4283:4284   */\n      dup1\n        /* \"#utility.yul\":4276:4288   */\n      revert\n        /* \"#utility.yul\":4219:4290   */\n    tag_194:\n        /* \"#utility.yul\":4158:4296   */\n      pop\n      jump\t// out\n        /* \"#utility.yul\":4302:4457   */\n    tag_123:\n        /* \"#utility.yul\":4356:4361   */\n      0x00\n        /* \"#utility.yul\":4394:4400   */\n      dup2\n        /* \"#utility.yul\":4381:4401   */\n      calldataload\n        /* \"#utility.yul\":4372:4401   */\n      swap1\n      pop\n        /* \"#utility.yul\":4410:4451   */\n      tag_196\n        /* \"#utility.yul\":4445:4450   */\n      dup2\n        /* \"#utility.yul\":4410:4451   */\n      tag_122\n      jump\t// in\n    tag_196:\n        /* \"#utility.yul\":4302:4457   */\n      swap3\n      swap2\n      pop\n      pop\n      jump\t// out\n        /* \"#utility.yul\":4463:4953   */\n    tag_29:\n        /* \"#utility.yul\":4539:4545   */\n      0x00\n        /* \"#utility.yul\":4547:4553   */\n      dup1\n        /* \"#utility.yul\":4596:4598   */\n      0x40\n        /* \"#utility.yul\":4584:4593   */\n      dup4\n        /* \"#utility.yul\":4575:4582   */\n      dup6\n        /* \"#utility.yul\":4571:4594   */\n      sub\n        /* \"#utility.yul\":4567:4599   */\n      slt\n        /* \"#utility.yul\":4564:4683   */\n      iszero\n      tag_198\n      jumpi\n        /* \"#utility.yul\":4602:4681   */\n      tag_199\n      tag_106\n      jump\t// in\n    tag_199:\n        /* \"#utility.yul\":4564:4683   */\n    tag_198:\n        /* \"#utility.yul\":4722:4723   */\n      0x00\n        /* \"#utility.yul\":4747:4800   */\n      tag_200\n        /* \"#utility.yul\":4792:4799   */\n      dup6\n        /* \"#utility.yul\":4783:4789   */\n      dup3\n        /* \"#utility.yul\":4772:4781   */\n      dup7\n        /* \"#utility.yul\":4768:4790   */\n      add\n        /* \"#utility.yul\":4747:4800   */\n      tag_119\n      jump\t// in\n    tag_200:\n        /* \"#utility.yul\":4737:4800   */\n      swap3\n      pop\n        /* \"#utility.yul\":4693:4810   */\n      pop\n        /* \"#utility.yul\":4849:4851   */\n      0x20\n        /* \"#utility.yul\":4875:4936   */\n      tag_201\n        /* \"#utility.yul\":4928:4935   */\n      dup6\n        /* \"#utility.yul\":4919:4925   */\n      dup3\n        /* \"#utility.yul\":4908:4917   */\n      dup7\n        /* \"#utility.yul\":4904:4926   */\n      add\n        /* \"#utility.yul\":4875:4936   */\n      tag_123\n      jump\t// in\n    tag_201:\n        /* \"#utility.yul\":4865:4936   */\n      swap2\n      pop\n        /* \"#utility.yul\":4820:4946   */\n      pop\n        /* \"#utility.yul\":4463:4953   */\n      swap3\n      pop\n      swap3\n      swap1\n      pop\n      jump\t// out\n        /* \"#utility.yul\":4959:5288   */\n    tag_34:\n        /* \"#utility.yul\":5018:5024   */\n      0x00\n        /* \"#utility.yul\":5067:5069   */\n      0x20\n        /* \"#utility.yul\":5055:5064   */\n      dup3\n        /* \"#utility.yul\":5046:5053   */\n      dup5\n        /* \"#utility.yul\":5042:5065   */\n      sub\n        /* \"#utility.yul\":5038:5070   */\n      slt\n        /* \"#utility.yul\":5035:5154   */\n      iszero\n      tag_203\n      jumpi\n        /* \"#utility.yul\":5073:5152   */\n      tag_204\n      tag_106\n      jump\t// in\n    tag_204:\n        /* \"#utility.yul\":5035:5154   */\n    tag_203:\n        /* \"#utility.yul\":5193:5194   */\n      0x00\n        /* \"#utility.yul\":5218:5271   */\n      tag_205\n        /* \"#utility.yul\":5263:5270   */\n      dup5\n        /* \"#utility.yul\":5254:5260   */\n      dup3\n        /* \"#utility.yul\":5243:5252   */\n      dup6\n        /* \"#utility.yul\":5239:5261   */\n      add\n        /* \"#utility.yul\":5218:5271   */\n      tag_119\n      jump\t// in\n    tag_205:\n        /* \"#utility.yul\":5208:5271   */\n      swap2\n      pop\n        /* \"#utility.yul\":5164:5281   */\n      pop\n        /* \"#utility.yul\":4959:5288   */\n      swap3\n      swap2\n      pop\n      pop\n      jump\t// out\n        /* \"#utility.yul\":5294:5412   */\n    tag_124:\n        /* \"#utility.yul\":5381:5405   */\n      tag_207\n        /* \"#utility.yul\":5399:5404   */\n      dup2\n        /* \"#utility.yul\":5381:5405   */\n      tag_103\n      jump\t// in\n    tag_207:\n        /* \"#utility.yul\":5376:5379   */\n      dup3\n        /* \"#utility.yul\":5369:5406   */\n      mstore\n        /* \"#utility.yul\":5294:5412   */\n      pop\n      pop\n      jump\t// out\n        /* \"#utility.yul\":5418:5640   */\n    tag_40:\n        /* \"#utility.yul\":5511:5515   */\n      0x00\n        /* \"#utility.yul\":5549:5551   */\n      0x20\n        /* \"#utility.yul\":5538:5547   */\n      dup3\n        /* \"#utility.yul\":5534:5552   */\n      add\n        /* \"#utility.yul\":5526:5552   */\n      swap1\n      pop\n        /* \"#utility.yul\":5562:5633   */\n      tag_209\n        /* \"#utility.yul\":5630:5631   */\n      0x00\n        /* \"#utility.yul\":5619:5628   */\n      dup4\n        /* \"#utility.yul\":5615:5632   */\n      add\n        /* \"#utility.yul\":5606:5612   */\n      dup5\n        /* \"#utility.yul\":5562:5633   */\n      tag_124\n      jump\t// in\n    tag_209:\n        /* \"#utility.yul\":5418:5640   */\n      swap3\n      swap2\n      pop\n      pop\n      jump\t// out\n        /* \"#utility.yul\":5646:5826   */\n    tag_125:\n        /* \"#utility.yul\":5694:5771   */\n      0x4e487b7100000000000000000000000000000000000000000000000000000000\n        /* \"#utility.yul\":5691:5692   */\n      0x00\n        /* \"#utility.yul\":5684:5772   */\n      mstore\n        /* \"#utility.yul\":5791:5795   */\n      0x22\n        /* \"#utility.yul\":5788:5789   */\n      0x04\n        /* \"#utility.yul\":5781:5796   */\n      mstore\n        /* \"#utility.yul\":5815:5819   */\n      0x24\n        /* \"#utility.yul\":5812:5813   */\n      0x00\n        /* \"#utility.yul\":5805:5820   */\n      revert\n        /* \"#utility.yul\":5832:6152   */\n    tag_50:\n        /* \"#utility.yul\":5876:5882   */\n      0x00\n        /* \"#utility.yul\":5913:5914   */\n      0x02\n        /* \"#utility.yul\":5907:5911   */\n      dup3\n        /* \"#utility.yul\":5903:5915   */\n      div\n        /* \"#utility.yul\":5893:5915   */\n      swap1\n      pop\n        /* \"#utility.yul\":5960:5961   */\n      0x01\n        /* \"#utility.yul\":5954:5958   */\n      dup3\n        /* \"#utility.yul\":5950:5962   */\n      and\n        /* \"#utility.yul\":5981:5999   */\n      dup1\n        /* \"#utility.yul\":5971:6052   */\n      tag_212\n      jumpi\n        /* \"#utility.yul\":6037:6041   */\n      0x7f\n        /* \"#utility.yul\":6029:6035   */\n      dup3\n        /* \"#utility.yul\":6025:6042   */\n      and\n        /* \"#utility.yul\":6015:6042   */\n      swap2\n      pop\n        /* \"#utility.yul\":5971:6052   */\n    tag_212:\n        /* \"#utility.yul\":6099:6101   */\n      0x20\n        /* \"#utility.yul\":6091:6097   */\n      dup3\n        /* \"#utility.yul\":6088:6102   */\n      lt\n        /* \"#utility.yul\":6068:6086   */\n      dup2\n        /* \"#utility.yul\":6065:6103   */\n      sub\n        /* \"#utility.yul\":6062:6146   */\n      tag_213\n      jumpi\n        /* \"#utility.yul\":6118:6136   */\n      tag_214\n      tag_125\n      jump\t// in\n    tag_214:\n        /* \"#utility.yul\":6062:6146   */\n    tag_213:\n        /* \"#utility.yul\":5883:6152   */\n      pop\n        /* \"#utility.yul\":5832:6152   */\n      swap2\n      swap1\n      pop\n      jump\t// out\n        /* \"#utility.yul\":6158:6327   */\n    tag_126:\n        /* \"#utility.yul\":6242:6253   */\n      0x00\n        /* \"#utility.yul\":6276:6282   */\n      dup3\n        /* \"#utility.yul\":6271:6274   */\n      dup3\n        /* \"#utility.yul\":6264:6283   */\n      mstore\n        /* \"#utility.yul\":6316:6320   */\n      0x20\n        /* \"#utility.yul\":6311:6314   */\n      dup3\n        /* \"#utility.yul\":6307:6321   */\n      add\n        /* \"#utility.yul\":6292:6321   */\n      swap1\n      pop\n        /* \"#utility.yul\":6158:6327   */\n      swap3\n      swap2\n      pop\n      pop\n      jump\t// out\n        /* \"#utility.yul\":6333:6501   */\n    tag_127:\n        /* \"#utility.yul\":6473:6493   */\n      0x496e76616c696420706173737068726173650000000000000000000000000000\n        /* \"#utility.yul\":6469:6470   */\n      0x00\n        /* \"#utility.yul\":6461:6467   */\n      dup3\n        /* \"#utility.yul\":6457:6471   */\n      add\n        /* \"#utility.yul\":6450:6494   */\n      mstore\n        /* \"#utility.yul\":6333:6501   */\n      pop\n      jump\t// out\n        /* \"#utility.yul\":6507:6873   */\n    tag_128:\n        /* \"#utility.yul\":6649:6652   */\n      0x00\n        /* \"#utility.yul\":6670:6737   */\n      tag_218\n        /* \"#utility.yul\":6734:6736   */\n      0x12\n        /* \"#utility.yul\":6729:6732   */\n      dup4\n        /* \"#utility.yul\":6670:6737   */\n      tag_126\n      jump\t// in\n    tag_218:\n        /* \"#utility.yul\":6663:6737   */\n      swap2\n      pop\n        /* \"#utility.yul\":6746:6839   */\n      tag_219\n        /* \"#utility.yul\":6835:6838   */\n      dup3\n        /* \"#utility.yul\":6746:6839   */\n      tag_127\n      jump\t// in\n    tag_219:\n        /* \"#utility.yul\":6864:6866   */\n      0x20\n        /* \"#utility.yul\":6859:6862   */\n      dup3\n        /* \"#utility.yul\":6855:6867   */\n      add\n        /* \"#utility.yul\":6848:6867   */\n      swap1\n      pop\n        /* \"#utility.yul\":6507:6873   */\n      swap2\n      swap1\n      pop\n      jump\t// out\n        /* \"#utility.yul\":6879:7298   */\n    tag_58:\n        /* \"#utility.yul\":7045:7049   */\n      0x00\n        /* \"#utility.yul\":7083:7085   */\n      0x20\n        /* \"#utility.yul\":7072:7081   */\n      dup3\n        /* \"#utility.yul\":7068:7086   */\n      add\n        /* \"#utility.yul\":7060:7086   */\n      swap1\n      pop\n        /* \"#utility.yul\":7132:7141   */\n      dup2\n        /* \"#utility.yul\":7126:7130   */\n      dup2\n        /* \"#utility.yul\":7122:7142   */\n      sub\n        /* \"#utility.yul\":7118:7119   */\n      0x00\n        /* \"#utility.yul\":7107:7116   */\n      dup4\n        /* \"#utility.yul\":7103:7120   */\n      add\n        /* \"#utility.yul\":7096:7143   */\n      mstore\n        /* \"#utility.yul\":7160:7291   */\n      tag_221\n        /* \"#utility.yul\":7286:7290   */\n      dup2\n        /* \"#utility.yul\":7160:7291   */\n      tag_128\n      jump\t// in\n    tag_221:\n        /* \"#utility.yul\":7152:7291   */\n      swap1\n      pop\n        /* \"#utility.yul\":6879:7298   */\n      swap2\n      swap1\n      pop\n      jump\t// out\n        /* \"#utility.yul\":7304:7545   */\n    tag_129:\n        /* \"#utility.yul\":7444:7478   */\n      0x57616c6c6574207472616e736665722063616e6e6f7420626520646f6e652074\n        /* \"#utility.yul\":7440:7441   */\n      0x00\n        /* \"#utility.yul\":7432:7438   */\n      dup3\n        /* \"#utility.yul\":7428:7442   */\n      add\n        /* \"#utility.yul\":7421:7479   */\n      mstore\n        /* \"#utility.yul\":7513:7537   */\n      0x6f206e6f6e2d677561726469616e206163636f756e7400000000000000000000\n        /* \"#utility.yul\":7508:7510   */\n      0x20\n        /* \"#utility.yul\":7500:7506   */\n      dup3\n        /* \"#utility.yul\":7496:7511   */\n      add\n        /* \"#utility.yul\":7489:7538   */\n      mstore\n        /* \"#utility.yul\":7304:7545   */\n      pop\n      jump\t// out\n        /* \"#utility.yul\":7551:7917   */\n    tag_130:\n        /* \"#utility.yul\":7693:7696   */\n      0x00\n        /* \"#utility.yul\":7714:7781   */\n      tag_224\n        /* \"#utility.yul\":7778:7780   */\n      0x36\n        /* \"#utility.yul\":7773:7776   */\n      dup4\n        /* \"#utility.yul\":7714:7781   */\n      tag_126\n      jump\t// in\n    tag_224:\n        /* \"#utility.yul\":7707:7781   */\n      swap2\n      pop\n        /* \"#utility.yul\":7790:7883   */\n      tag_225\n        /* \"#utility.yul\":7879:7882   */\n      dup3\n        /* \"#utility.yul\":7790:7883   */\n      tag_129\n      jump\t// in\n    tag_225:\n        /* \"#utility.yul\":7908:7910   */\n      0x40\n        /* \"#utility.yul\":7903:7906   */\n      dup3\n        /* \"#utility.yul\":7899:7911   */\n      add\n        /* \"#utility.yul\":7892:7911   */\n      swap1\n      pop\n        /* \"#utility.yul\":7551:7917   */\n      swap2\n      swap1\n      pop\n      jump\t// out\n        /* \"#utility.yul\":7923:8342   */\n    tag_62:\n        /* \"#utility.yul\":8089:8093   */\n      0x00\n        /* \"#utility.yul\":8127:8129   */\n      0x20\n        /* \"#utility.yul\":8116:8125   */\n      dup3\n        /* \"#utility.yul\":8112:8130   */\n      add\n        /* \"#utility.yul\":8104:8130   */\n      swap1\n      pop\n        /* \"#utility.yul\":8176:8185   */\n      dup2\n        /* \"#utility.yul\":8170:8174   */\n      dup2\n        /* \"#utility.yul\":8166:8186   */\n      sub\n        /* \"#utility.yul\":8162:8163   */\n      0x00\n        /* \"#utility.yul\":8151:8160   */\n      dup4\n        /* \"#utility.yul\":8147:8164   */\n      add\n        /* \"#utility.yul\":8140:8187   */\n      mstore\n        /* \"#utility.yul\":8204:8335   */\n      tag_227\n        /* \"#utility.yul\":8330:8334   */\n      dup2\n        /* \"#utility.yul\":8204:8335   */\n      tag_130\n      jump\t// in\n    tag_227:\n        /* \"#utility.yul\":8196:8335   */\n      swap1\n      pop\n        /* \"#utility.yul\":7923:8342   */\n      swap2\n      swap1\n      pop\n      jump\t// out\n        /* \"#utility.yul\":8348:8515   */\n    tag_131:\n        /* \"#utility.yul\":8488:8507   */\n      0x596f75206861766520746f206c6f67696e000000000000000000000000000000\n        /* \"#utility.yul\":8484:8485   */\n      0x00\n        /* \"#utility.yul\":8476:8482   */\n      dup3\n        /* \"#utility.yul\":8472:8486   */\n      add\n        /* \"#utility.yul\":8465:8508   */\n      mstore\n        /* \"#utility.yul\":8348:8515   */\n      pop\n      jump\t// out\n        /* \"#utility.yul\":8521:8887   */\n    tag_132:\n        /* \"#utility.yul\":8663:8666   */\n      0x00\n        /* \"#utility.yul\":8684:8751   */\n      tag_230\n        /* \"#utility.yul\":8748:8750   */\n      0x11\n        /* \"#utility.yul\":8743:8746   */\n      dup4\n        /* \"#utility.yul\":8684:8751   */\n      tag_126\n      jump\t// in\n    tag_230:\n        /* \"#utility.yul\":8677:8751   */\n      swap2\n      pop\n        /* \"#utility.yul\":8760:8853   */\n      tag_231\n        /* \"#utility.yul\":8849:8852   */\n      dup3\n        /* \"#utility.yul\":8760:8853   */\n      tag_131\n      jump\t// in\n    tag_231:\n        /* \"#utility.yul\":8878:8880   */\n      0x20\n        /* \"#utility.yul\":8873:8876   */\n      dup3\n        /* \"#utility.yul\":8869:8881   */\n      add\n        /* \"#utility.yul\":8862:8881   */\n      swap1\n      pop\n        /* \"#utility.yul\":8521:8887   */\n      swap2\n      swap1\n      pop\n      jump\t// out\n        /* \"#utility.yul\":8893:9312   */\n    tag_68:\n        /* \"#utility.yul\":9059:9063   */\n      0x00\n        /* \"#utility.yul\":9097:9099   */\n      0x20\n        /* \"#utility.yul\":9086:9095   */\n      dup3\n        /* \"#utility.yul\":9082:9100   */\n      add\n        /* \"#utility.yul\":9074:9100   */\n      swap1\n      pop\n        /* \"#utility.yul\":9146:9155   */\n      dup2\n        /* \"#utility.yul\":9140:9144   */\n      dup2\n        /* \"#utility.yul\":9136:9156   */\n      sub\n        /* \"#utility.yul\":9132:9133   */\n      0x00\n        /* \"#utility.yul\":9121:9130   */\n      dup4\n        /* \"#utility.yul\":9117:9134   */\n      add\n        /* \"#utility.yul\":9110:9157   */\n      mstore\n        /* \"#utility.yul\":9174:9305   */\n      tag_233\n        /* \"#utility.yul\":9300:9304   */\n      dup2\n        /* \"#utility.yul\":9174:9305   */\n      tag_132\n      jump\t// in\n    tag_233:\n        /* \"#utility.yul\":9166:9305   */\n      swap1\n      pop\n        /* \"#utility.yul\":8893:9312   */\n      swap2\n      swap1\n      pop\n      jump\t// out\n        /* \"#utility.yul\":9318:9558   */\n    tag_133:\n        /* \"#utility.yul\":9458:9492   */\n      0x5769746864726177616c20416d6f756e74206973206772656174657220746861\n        /* \"#utility.yul\":9454:9455   */\n      0x00\n        /* \"#utility.yul\":9446:9452   */\n      dup3\n        /* \"#utility.yul\":9442:9456   */\n      add\n        /* \"#utility.yul\":9435:9493   */\n      mstore\n        /* \"#utility.yul\":9527:9550   */\n      0x6e20617661696c61626c6520616c6c6f77616e63650000000000000000000000\n        /* \"#utility.yul\":9522:9524   */\n      0x20\n        /* \"#utility.yul\":9514:9520   */\n      dup3\n        /* \"#utility.yul\":9510:9525   */\n      add\n        /* \"#utility.yul\":9503:9551   */\n      mstore\n        /* \"#utility.yul\":9318:9558   */\n      pop\n      jump\t// out\n        /* \"#utility.yul\":9564:9930   */\n    tag_134:\n        /* \"#utility.yul\":9706:9709   */\n      0x00\n        /* \"#utility.yul\":9727:9794   */\n      tag_236\n        /* \"#utility.yul\":9791:9793   */\n      0x35\n        /* \"#utility.yul\":9786:9789   */\n      dup4\n        /* \"#utility.yul\":9727:9794   */\n      tag_126\n      jump\t// in\n    tag_236:\n        /* \"#utility.yul\":9720:9794   */\n      swap2\n      pop\n        /* \"#utility.yul\":9803:9896   */\n      tag_237\n        /* \"#utility.yul\":9892:9895   */\n      dup3\n        /* \"#utility.yul\":9803:9896   */\n      tag_133\n      jump\t// in\n    tag_237:\n        /* \"#utility.yul\":9921:9923   */\n      0x40\n        /* \"#utility.yul\":9916:9919   */\n      dup3\n        /* \"#utility.yul\":9912:9924   */\n      add\n        /* \"#utility.yul\":9905:9924   */\n      swap1\n      pop\n        /* \"#utility.yul\":9564:9930   */\n      swap2\n      swap1\n      pop\n      jump\t// out\n        /* \"#utility.yul\":9936:10355   */\n    tag_71:\n        /* \"#utility.yul\":10102:10106   */\n      0x00\n        /* \"#utility.yul\":10140:10142   */\n      0x20\n        /* \"#utility.yul\":10129:10138   */\n      dup3\n        /* \"#utility.yul\":10125:10143   */\n      add\n        /* \"#utility.yul\":10117:10143   */\n      swap1\n      pop\n        /* \"#utility.yul\":10189:10198   */\n      dup2\n        /* \"#utility.yul\":10183:10187   */\n      dup2\n        /* \"#utility.yul\":10179:10199   */\n      sub\n        /* \"#utility.yul\":10175:10176   */\n      0x00\n        /* \"#utility.yul\":10164:10173   */\n      dup4\n        /* \"#utility.yul\":10160:10177   */\n      add\n        /* \"#utility.yul\":10153:10200   */\n      mstore\n        /* \"#utility.yul\":10217:10348   */\n      tag_239\n        /* \"#utility.yul\":10343:10347   */\n      dup2\n        /* \"#utility.yul\":10217:10348   */\n      tag_134\n      jump\t// in\n    tag_239:\n        /* \"#utility.yul\":10209:10348   */\n      swap1\n      pop\n        /* \"#utility.yul\":9936:10355   */\n      swap2\n      swap1\n      pop\n      jump\t// out\n        /* \"#utility.yul\":10361:10599   */\n    tag_135:\n        /* \"#utility.yul\":10501:10535   */\n      0x5769746864726177616c20416d6f756e74206973206772656174657220746861\n        /* \"#utility.yul\":10497:10498   */\n      0x00\n        /* \"#utility.yul\":10489:10495   */\n      dup3\n        /* \"#utility.yul\":10485:10499   */\n      add\n        /* \"#utility.yul\":10478:10536   */\n      mstore\n        /* \"#utility.yul\":10570:10591   */\n      0x6e20617661696c61626c652062616c616e636500000000000000000000000000\n        /* \"#utility.yul\":10565:10567   */\n      0x20\n        /* \"#utility.yul\":10557:10563   */\n      dup3\n        /* \"#utility.yul\":10553:10568   */\n      add\n        /* \"#utility.yul\":10546:10592   */\n      mstore\n        /* \"#utility.yul\":10361:10599   */\n      pop\n      jump\t// out\n        /* \"#utility.yul\":10605:10971   */\n    tag_136:\n        /* \"#utility.yul\":10747:10750   */\n      0x00\n        /* \"#utility.yul\":10768:10835   */\n      tag_242\n        /* \"#utility.yul\":10832:10834   */\n      0x33\n        /* \"#utility.yul\":10827:10830   */\n      dup4\n        /* \"#utility.yul\":10768:10835   */\n      tag_126\n      jump\t// in\n    tag_242:\n        /* \"#utility.yul\":10761:10835   */\n      swap2\n      pop\n        /* \"#utility.yul\":10844:10937   */\n      tag_243\n        /* \"#utility.yul\":10933:10936   */\n      dup3\n        /* \"#utility.yul\":10844:10937   */\n      tag_135\n      jump\t// in\n    tag_243:\n        /* \"#utility.yul\":10962:10964   */\n      0x40\n        /* \"#utility.yul\":10957:10960   */\n      dup3\n        /* \"#utility.yul\":10953:10965   */\n      add\n        /* \"#utility.yul\":10946:10965   */\n      swap1\n      pop\n        /* \"#utility.yul\":10605:10971   */\n      swap2\n      swap1\n      pop\n      jump\t// out\n        /* \"#utility.yul\":10977:11396   */\n    tag_74:\n        /* \"#utility.yul\":11143:11147   */\n      0x00\n        /* \"#utility.yul\":11181:11183   */\n      0x20\n        /* \"#utility.yul\":11170:11179   */\n      dup3\n        /* \"#utility.yul\":11166:11184   */\n      add\n        /* \"#utility.yul\":11158:11184   */\n      swap1\n      pop\n        /* \"#utility.yul\":11230:11239   */\n      dup2\n        /* \"#utility.yul\":11224:11228   */\n      dup2\n        /* \"#utility.yul\":11220:11240   */\n      sub\n        /* \"#utility.yul\":11216:11217   */\n      0x00\n        /* \"#utility.yul\":11205:11214   */\n      dup4\n        /* \"#utility.yul\":11201:11218   */\n      add\n        /* \"#utility.yul\":11194:11241   */\n      mstore\n        /* \"#utility.yul\":11258:11389   */\n      tag_245\n        /* \"#utility.yul\":11384:11388   */\n      dup2\n        /* \"#utility.yul\":11258:11389   */\n      tag_136\n      jump\t// in\n    tag_245:\n        /* \"#utility.yul\":11250:11389   */\n      swap1\n      pop\n        /* \"#utility.yul\":10977:11396   */\n      swap2\n      swap1\n      pop\n      jump\t// out\n        /* \"#utility.yul\":11402:11593   */\n    tag_76:\n        /* \"#utility.yul\":11442:11446   */\n      0x00\n        /* \"#utility.yul\":11462:11482   */\n      tag_247\n        /* \"#utility.yul\":11480:11481   */\n      dup3\n        /* \"#utility.yul\":11462:11482   */\n      tag_103\n      jump\t// in\n    tag_247:\n        /* \"#utility.yul\":11457:11482   */\n      swap2\n      pop\n        /* \"#utility.yul\":11496:11516   */\n      tag_248\n        /* \"#utility.yul\":11514:11515   */\n      dup4\n        /* \"#utility.yul\":11496:11516   */\n      tag_103\n      jump\t// in\n    tag_248:\n        /* \"#utility.yul\":11491:11516   */\n      swap3\n      pop\n        /* \"#utility.yul\":11535:11536   */\n      dup3\n        /* \"#utility.yul\":11532:11533   */\n      dup3\n        /* \"#utility.yul\":11529:11537   */\n      lt\n        /* \"#utility.yul\":11526:11560   */\n      iszero\n      tag_249\n      jumpi\n        /* \"#utility.yul\":11540:11558   */\n      tag_250\n      tag_104\n      jump\t// in\n    tag_250:\n        /* \"#utility.yul\":11526:11560   */\n    tag_249:\n        /* \"#utility.yul\":11585:11586   */\n      dup3\n        /* \"#utility.yul\":11582:11583   */\n      dup3\n        /* \"#utility.yul\":11578:11587   */\n      sub\n        /* \"#utility.yul\":11570:11587   */\n      swap1\n      pop\n        /* \"#utility.yul\":11402:11593   */\n      swap3\n      swap2\n      pop\n      pop\n      jump\t// out\n        /* \"#utility.yul\":11599:11698   */\n    tag_137:\n        /* \"#utility.yul\":11651:11657   */\n      0x00\n        /* \"#utility.yul\":11685:11690   */\n      dup2\n        /* \"#utility.yul\":11679:11691   */\n      mload\n        /* \"#utility.yul\":11669:11691   */\n      swap1\n      pop\n        /* \"#utility.yul\":11599:11698   */\n      swap2\n      swap1\n      pop\n      jump\t// out\n        /* \"#utility.yul\":11704:11852   */\n    tag_138:\n        /* \"#utility.yul\":11806:11817   */\n      0x00\n        /* \"#utility.yul\":11843:11846   */\n      dup2\n        /* \"#utility.yul\":11828:11846   */\n      swap1\n      pop\n        /* \"#utility.yul\":11704:11852   */\n      swap3\n      swap2\n      pop\n      pop\n      jump\t// out\n        /* \"#utility.yul\":11858:12165   */\n    tag_139:\n        /* \"#utility.yul\":11926:11927   */\n      0x00\n        /* \"#utility.yul\":11936:12049   */\n    tag_254:\n        /* \"#utility.yul\":11950:11956   */\n      dup4\n        /* \"#utility.yul\":11947:11948   */\n      dup2\n        /* \"#utility.yul\":11944:11957   */\n      lt\n        /* \"#utility.yul\":11936:12049   */\n      iszero\n      tag_256\n      jumpi\n        /* \"#utility.yul\":12035:12036   */\n      dup1\n        /* \"#utility.yul\":12030:12033   */\n      dup3\n        /* \"#utility.yul\":12026:12037   */\n      add\n        /* \"#utility.yul\":12020:12038   */\n      mload\n        /* \"#utility.yul\":12016:12017   */\n      dup2\n        /* \"#utility.yul\":12011:12014   */\n      dup5\n        /* \"#utility.yul\":12007:12018   */\n      add\n        /* \"#utility.yul\":12000:12039   */\n      mstore\n        /* \"#utility.yul\":11972:11974   */\n      0x20\n        /* \"#utility.yul\":11969:11970   */\n      dup2\n        /* \"#utility.yul\":11965:11975   */\n      add\n        /* \"#utility.yul\":11960:11975   */\n      swap1\n      pop\n        /* \"#utility.yul\":11936:12049   */\n      jump(tag_254)\n    tag_256:\n        /* \"#utility.yul\":12067:12073   */\n      dup4\n        /* \"#utility.yul\":12064:12065   */\n      dup2\n        /* \"#utility.yul\":12061:12074   */\n      gt\n        /* \"#utility.yul\":12058:12159   */\n      iszero\n      tag_257\n      jumpi\n        /* \"#utility.yul\":12147:12148   */\n      0x00\n        /* \"#utility.yul\":12138:12144   */\n      dup5\n        /* \"#utility.yul\":12133:12136   */\n      dup5\n        /* \"#utility.yul\":12129:12145   */\n      add\n        /* \"#utility.yul\":12122:12149   */\n      mstore\n        /* \"#utility.yul\":12058:12159   */\n    tag_257:\n        /* \"#utility.yul\":11907:12165   */\n      pop\n        /* \"#utility.yul\":11858:12165   */\n      pop\n      pop\n      pop\n      jump\t// out\n        /* \"#utility.yul\":12171:12548   */\n    tag_140:\n        /* \"#utility.yul\":12277:12280   */\n      0x00\n        /* \"#utility.yul\":12305:12344   */\n      tag_259\n        /* \"#utility.yul\":12338:12343   */\n      dup3\n        /* \"#utility.yul\":12305:12344   */\n      tag_137\n      jump\t// in\n    tag_259:\n        /* \"#utility.yul\":12360:12449   */\n      tag_260\n        /* \"#utility.yul\":12442:12448   */\n      dup2\n        /* \"#utility.yul\":12437:12440   */\n      dup6\n        /* \"#utility.yul\":12360:12449   */\n      tag_138\n      jump\t// in\n    tag_260:\n        /* \"#utility.yul\":12353:12449   */\n      swap4\n      pop\n        /* \"#utility.yul\":12458:12510   */\n      tag_261\n        /* \"#utility.yul\":12503:12509   */\n      dup2\n        /* \"#utility.yul\":12498:12501   */\n      dup6\n        /* \"#utility.yul\":12491:12495   */\n      0x20\n        /* \"#utility.yul\":12484:12489   */\n      dup7\n        /* \"#utility.yul\":12480:12496   */\n      add\n        /* \"#utility.yul\":12458:12510   */\n      tag_139\n      jump\t// in\n    tag_261:\n        /* \"#utility.yul\":12535:12541   */\n      dup1\n        /* \"#utility.yul\":12530:12533   */\n      dup5\n        /* \"#utility.yul\":12526:12542   */\n      add\n        /* \"#utility.yul\":12519:12542   */\n      swap2\n      pop\n        /* \"#utility.yul\":12281:12548   */\n      pop\n        /* \"#utility.yul\":12171:12548   */\n      swap3\n      swap2\n      pop\n      pop\n      jump\t// out\n        /* \"#utility.yul\":12554:12829   */\n    tag_101:\n        /* \"#utility.yul\":12686:12689   */\n      0x00\n        /* \"#utility.yul\":12708:12803   */\n      tag_263\n        /* \"#utility.yul\":12799:12802   */\n      dup3\n        /* \"#utility.yul\":12790:12796   */\n      dup5\n        /* \"#utility.yul\":12708:12803   */\n      tag_140\n      jump\t// in\n    tag_263:\n        /* \"#utility.yul\":12701:12803   */\n      swap2\n      pop\n        /* \"#utility.yul\":12820:12823   */\n      dup2\n        /* \"#utility.yul\":12813:12823   */\n      swap1\n      pop\n        /* \"#utility.yul\":12554:12829   */\n      swap3\n      swap2\n      pop\n      pop\n      jump\t// out\n\n    auxdata: 0xa2646970667358221220cb65951b9259a92846dd779a8ccafe084c5d638be1e8fad680b6b885e770560264736f6c634300080f0033\n}\n",
				"bytecode": {
					"linkReferences": {},
					"object": "60806040523480156200001157600080fd5b50604051620016703803806200167083398181016040528101906200003791906200030b565b4760008190555082600190816200004f9190620005d1565b506001600260008473ffffffffffffffffffffffffffffffffffffffff1673ffffffffffffffffffffffffffffffffffffffff16815260200190815260200160002060006101000a81548160ff0219169083151502179055506001600260008373ffffffffffffffffffffffffffffffffffffffff1673ffffffffffffffffffffffffffffffffffffffff16815260200190815260200160002060006101000a81548160ff021916908315150217905550505050620006b8565b6000604051905090565b600080fd5b600080fd5b600080fd5b600080fd5b6000601f19601f8301169050919050565b7f4e487b7100000000000000000000000000000000000000000000000000000000600052604160045260246000fd5b620001728262000127565b810181811067ffffffffffffffff8211171562000194576200019362000138565b5b80604052505050565b6000620001a962000109565b9050620001b7828262000167565b919050565b600067ffffffffffffffff821115620001da57620001d962000138565b5b620001e58262000127565b9050602081019050919050565b60005b8381101562000212578082015181840152602081019050620001f5565b8381111562000222576000848401525b50505050565b60006200023f6200023984620001bc565b6200019d565b9050828152602081018484840111156200025e576200025d62000122565b5b6200026b848285620001f2565b509392505050565b600082601f8301126200028b576200028a6200011d565b5b81516200029d84826020860162000228565b91505092915050565b600073ffffffffffffffffffffffffffffffffffffffff82169050919050565b6000620002d382620002a6565b9050919050565b620002e581620002c6565b8114620002f157600080fd5b50565b6000815190506200030581620002da565b92915050565b60008060006060848603121562000327576200032662000113565b5b600084015167ffffffffffffffff81111562000348576200034762000118565b5b620003568682870162000273565b93505060206200036986828701620002f4565b92505060406200037c86828701620002f4565b9150509250925092565b600081519050919050565b7f4e487b7100000000000000000000000000000000000000000000000000000000600052602260045260246000fd5b60006002820490506001821680620003d957607f821691505b602082108103620003ef57620003ee62000391565b5b50919050565b60008190508160005260206000209050919050565b60006020601f8301049050919050565b600082821b905092915050565b600060088302620004597fffffffffffffffffffffffffffffffffffffffffffffffffffffffffffffffff826200041a565b6200046586836200041a565b95508019841693508086168417925050509392505050565b6000819050919050565b6000819050919050565b6000620004b2620004ac620004a6846200047d565b62000487565b6200047d565b9050919050565b6000819050919050565b620004ce8362000491565b620004e6620004dd82620004b9565b84845462000427565b825550505050565b600090565b620004fd620004ee565b6200050a818484620004c3565b505050565b5b81811015620005325762000526600082620004f3565b60018101905062000510565b5050565b601f82111562000581576200054b81620003f5565b62000556846200040a565b8101602085101562000566578190505b6200057e62000575856200040a565b8301826200050f565b50505b505050565b600082821c905092915050565b6000620005a66000198460080262000586565b1980831691505092915050565b6000620005c1838362000593565b9150826002028217905092915050565b620005dc8262000386565b67ffffffffffffffff811115620005f857620005f762000138565b5b620006048254620003c0565b6200061182828562000536565b600060209050601f83116001811462000649576000841562000634578287015190505b620006408582620005b3565b865550620006b0565b601f1984166200065986620003f5565b60005b8281101562000683578489015182556001820191506020850194506020810190506200065c565b86831015620006a357848901516200069f601f89168262000593565b8355505b6001600288020188555050505b505050505050565b610fa880620006c86000396000f3fe6080604052600436106100745760003560e01c8063bd5413021161004e578063bd5413021461010c578063c71daccb14610135578063d0e30db014610160578063eacc29401461016a5761008e565b80633a7d280c146100a357806349649fbf146100cc578063a49b5cb4146100e35761008e565b3661008e57346000546100879190610894565b6000819055005b3460005461009c9190610894565b6000819055005b3480156100af57600080fd5b506100ca60048036038101906100c59190610a44565b610193565b005b3480156100d857600080fd5b506100e1610284565b005b3480156100ef57600080fd5b5061010a60048036038101906101059190610b17565b61035b565b005b34801561011857600080fd5b50610133600480360381019061012e9190610b57565b61052a565b005b34801561014157600080fd5b5061014a6106f8565b6040516101579190610b93565b60405180910390f35b610168610751565b005b34801561017657600080fd5b50610191600480360381019061018c9190610b17565b61076b565b005b61022781600180546101a490610bdd565b80601f01602080910402602001604051908101604052809291908181526020018280546101d090610bdd565b801561021d5780601f106101f25761010080835404028352916020019161021d565b820191906000526020600020905b81548152906001019060200180831161020057829003601f168201915b5050505050610802565b610266576040517f08c379a000000000000000000000000000000000000000000000000000000000815260040161025d90610c6b565b60405180910390fd5b6001600460006101000a81548160ff02191690831515021790555050565b600260003373ffffffffffffffffffffffffffffffffffffffff1673ffffffffffffffffffffffffffffffffffffffff16815260200190815260200160002060009054906101000a900460ff16610310576040517f08c379a000000000000000000000000000000000000000000000000000000000815260040161030790610cfd565b60405180910390fd5b3373ffffffffffffffffffffffffffffffffffffffff166108fc6000549081150290604051600060405180830381858888f19350505050158015610358573d6000803e3d6000fd5b50565b600460009054906101000a900460ff166103aa576040517f08c379a00000000000000000000000000000000000000000000000000000000081526004016103a190610d69565b60405180910390fd5b81600360008373ffffffffffffffffffffffffffffffffffffffff1673ffffffffffffffffffffffffffffffffffffffff16815260200190815260200160002054101561042c576040517f08c379a000000000000000000000000000000000000000000000000000000000815260040161042390610dfb565b60405180910390fd5b816000541015610471576040517f08c379a000000000000000000000000000000000000000000000000000000000815260040161046890610e8d565b60405180910390fd5b816000808282546104829190610ead565b9250508190555081600360008373ffffffffffffffffffffffffffffffffffffffff1673ffffffffffffffffffffffffffffffffffffffff16815260200190815260200160002060008282546104d89190610ead565b925050819055508073ffffffffffffffffffffffffffffffffffffffff166108fc839081150290604051600060405180830381858888f19350505050158015610525573d6000803e3d6000fd5b505050565b600460009054906101000a900460ff16610579576040517f08c379a000000000000000000000000000000000000000000000000000000000815260040161057090610d69565b60405180910390fd5b80600360003373ffffffffffffffffffffffffffffffffffffffff1673ffffffffffffffffffffffffffffffffffffffff1681526020019081526020016000205410156105fb576040517f08c379a00000000000000000000000000000000000000000000000000000000081526004016105f290610dfb565b60405180910390fd5b806000541015610640576040517f08c379a000000000000000000000000000000000000000000000000000000000815260040161063790610e8d565b60405180910390fd5b806000808282546106519190610ead565b9250508190555080600360003373ffffffffffffffffffffffffffffffffffffffff1673ffffffffffffffffffffffffffffffffffffffff16815260200190815260200160002060008282546106a79190610ead565b925050819055503373ffffffffffffffffffffffffffffffffffffffff166108fc829081150290604051600060405180830381858888f193505050501580156106f4573d6000803e3d6000fd5b5050565b6000600460009054906101000a900460ff16610749576040517f08c379a000000000000000000000000000000000000000000000000000000000815260040161074090610d69565b60405180910390fd5b600054905090565b346000808282546107629190610894565b92505081905550565b600460009054906101000a900460ff166107ba576040517f08c379a00000000000000000000000000000000000000000000000000000000081526004016107b190610d69565b60405180910390fd5b81600360008373ffffffffffffffffffffffffffffffffffffffff1673ffffffffffffffffffffffffffffffffffffffff168152602001908152602001600020819055505050565b6000816040516020016108159190610f5b565b604051602081830303815290604052805190602001208360405160200161083c9190610f5b565b6040516020818303038152906040528051906020012014905092915050565b6000819050919050565b7f4e487b7100000000000000000000000000000000000000000000000000000000600052601160045260246000fd5b600061089f8261085b565b91506108aa8361085b565b9250827fffffffffffffffffffffffffffffffffffffffffffffffffffffffffffffffff038211156108df576108de610865565b5b828201905092915050565b6000604051905090565b600080fd5b600080fd5b600080fd5b600080fd5b6000601f19601f8301169050919050565b7f4e487b7100000000000000000000000000000000000000000000000000000000600052604160045260246000fd5b61095182610908565b810181811067ffffffffffffffff821117156109705761096f610919565b5b80604052505050565b60006109836108ea565b905061098f8282610948565b919050565b600067ffffffffffffffff8211156109af576109ae610919565b5b6109b882610908565b9050602081019050919050565b82818337600083830152505050565b60006109e76109e284610994565b610979565b905082815260208101848484011115610a0357610a02610903565b5b610a0e8482856109c5565b509392505050565b600082601f830112610a2b57610a2a6108fe565b5b8135610a3b8482602086016109d4565b91505092915050565b600060208284031215610a5a57610a596108f4565b5b600082013567ffffffffffffffff811115610a7857610a776108f9565b5b610a8484828501610a16565b91505092915050565b610a968161085b565b8114610aa157600080fd5b50565b600081359050610ab381610a8d565b92915050565b600073ffffffffffffffffffffffffffffffffffffffff82169050919050565b6000610ae482610ab9565b9050919050565b610af481610ad9565b8114610aff57600080fd5b50565b600081359050610b1181610aeb565b92915050565b60008060408385031215610b2e57610b2d6108f4565b5b6000610b3c85828601610aa4565b9250506020610b4d85828601610b02565b9150509250929050565b600060208284031215610b6d57610b6c6108f4565b5b6000610b7b84828501610aa4565b91505092915050565b610b8d8161085b565b82525050565b6000602082019050610ba86000830184610b84565b92915050565b7f4e487b7100000000000000000000000000000000000000000000000000000000600052602260045260246000fd5b60006002820490506001821680610bf557607f821691505b602082108103610c0857610c07610bae565b5b50919050565b600082825260208201905092915050565b7f496e76616c696420706173737068726173650000000000000000000000000000600082015250565b6000610c55601283610c0e565b9150610c6082610c1f565b602082019050919050565b60006020820190508181036000830152610c8481610c48565b9050919050565b7f57616c6c6574207472616e736665722063616e6e6f7420626520646f6e65207460008201527f6f206e6f6e2d677561726469616e206163636f756e7400000000000000000000602082015250565b6000610ce7603683610c0e565b9150610cf282610c8b565b604082019050919050565b60006020820190508181036000830152610d1681610cda565b9050919050565b7f596f75206861766520746f206c6f67696e000000000000000000000000000000600082015250565b6000610d53601183610c0e565b9150610d5e82610d1d565b602082019050919050565b60006020820190508181036000830152610d8281610d46565b9050919050565b7f5769746864726177616c20416d6f756e7420697320677265617465722074686160008201527f6e20617661696c61626c6520616c6c6f77616e63650000000000000000000000602082015250565b6000610de5603583610c0e565b9150610df082610d89565b604082019050919050565b60006020820190508181036000830152610e1481610dd8565b9050919050565b7f5769746864726177616c20416d6f756e7420697320677265617465722074686160008201527f6e20617661696c61626c652062616c616e636500000000000000000000000000602082015250565b6000610e77603383610c0e565b9150610e8282610e1b565b604082019050919050565b60006020820190508181036000830152610ea681610e6a565b9050919050565b6000610eb88261085b565b9150610ec38361085b565b925082821015610ed657610ed5610865565b5b828203905092915050565b600081519050919050565b600081905092915050565b60005b83811015610f15578082015181840152602081019050610efa565b83811115610f24576000848401525b50505050565b6000610f3582610ee1565b610f3f8185610eec565b9350610f4f818560208601610ef7565b80840191505092915050565b6000610f678284610f2a565b91508190509291505056fea2646970667358221220cb65951b9259a92846dd779a8ccafe084c5d638be1e8fad680b6b885e770560264736f6c634300080f0033",
					"opcodes": "PUSH1 0x80 PUSH1 0x40 MSTORE CALLVALUE DUP1 ISZERO PUSH3 0x11 JUMPI PUSH1 0x0 DUP1 REVERT JUMPDEST POP PUSH1 0x40 MLOAD PUSH3 0x1670 CODESIZE SUB DUP1 PUSH3 0x1670 DUP4 CODECOPY DUP2 DUP2 ADD PUSH1 0x40 MSTORE DUP2 ADD SWAP1 PUSH3 0x37 SWAP2 SWAP1 PUSH3 0x30B JUMP JUMPDEST SELFBALANCE PUSH1 0x0 DUP2 SWAP1 SSTORE POP DUP3 PUSH1 0x1 SWAP1 DUP2 PUSH3 0x4F SWAP2 SWAP1 PUSH3 0x5D1 JUMP JUMPDEST POP PUSH1 0x1 PUSH1 0x2 PUSH1 0x0 DUP5 PUSH20 0xFFFFFFFFFFFFFFFFFFFFFFFFFFFFFFFFFFFFFFFF AND PUSH20 0xFFFFFFFFFFFFFFFFFFFFFFFFFFFFFFFFFFFFFFFF AND DUP2 MSTORE PUSH1 0x20 ADD SWAP1 DUP2 MSTORE PUSH1 0x20 ADD PUSH1 0x0 KECCAK256 PUSH1 0x0 PUSH2 0x100 EXP DUP2 SLOAD DUP2 PUSH1 0xFF MUL NOT AND SWAP1 DUP4 ISZERO ISZERO MUL OR SWAP1 SSTORE POP PUSH1 0x1 PUSH1 0x2 PUSH1 0x0 DUP4 PUSH20 0xFFFFFFFFFFFFFFFFFFFFFFFFFFFFFFFFFFFFFFFF AND PUSH20 0xFFFFFFFFFFFFFFFFFFFFFFFFFFFFFFFFFFFFFFFF AND DUP2 MSTORE PUSH1 0x20 ADD SWAP1 DUP2 MSTORE PUSH1 0x20 ADD PUSH1 0x0 KECCAK256 PUSH1 0x0 PUSH2 0x100 EXP DUP2 SLOAD DUP2 PUSH1 0xFF MUL NOT AND SWAP1 DUP4 ISZERO ISZERO MUL OR SWAP1 SSTORE POP POP POP POP PUSH3 0x6B8 JUMP JUMPDEST PUSH1 0x0 PUSH1 0x40 MLOAD SWAP1 POP SWAP1 JUMP JUMPDEST PUSH1 0x0 DUP1 REVERT JUMPDEST PUSH1 0x0 DUP1 REVERT JUMPDEST PUSH1 0x0 DUP1 REVERT JUMPDEST PUSH1 0x0 DUP1 REVERT JUMPDEST PUSH1 0x0 PUSH1 0x1F NOT PUSH1 0x1F DUP4 ADD AND SWAP1 POP SWAP2 SWAP1 POP JUMP JUMPDEST PUSH32 0x4E487B7100000000000000000000000000000000000000000000000000000000 PUSH1 0x0 MSTORE PUSH1 0x41 PUSH1 0x4 MSTORE PUSH1 0x24 PUSH1 0x0 REVERT JUMPDEST PUSH3 0x172 DUP3 PUSH3 0x127 JUMP JUMPDEST DUP2 ADD DUP2 DUP2 LT PUSH8 0xFFFFFFFFFFFFFFFF DUP3 GT OR ISZERO PUSH3 0x194 JUMPI PUSH3 0x193 PUSH3 0x138 JUMP JUMPDEST JUMPDEST DUP1 PUSH1 0x40 MSTORE POP POP POP JUMP JUMPDEST PUSH1 0x0 PUSH3 0x1A9 PUSH3 0x109 JUMP JUMPDEST SWAP1 POP PUSH3 0x1B7 DUP3 DUP3 PUSH3 0x167 JUMP JUMPDEST SWAP2 SWAP1 POP JUMP JUMPDEST PUSH1 0x0 PUSH8 0xFFFFFFFFFFFFFFFF DUP3 GT ISZERO PUSH3 0x1DA JUMPI PUSH3 0x1D9 PUSH3 0x138 JUMP JUMPDEST JUMPDEST PUSH3 0x1E5 DUP3 PUSH3 0x127 JUMP JUMPDEST SWAP1 POP PUSH1 0x20 DUP2 ADD SWAP1 POP SWAP2 SWAP1 POP JUMP JUMPDEST PUSH1 0x0 JUMPDEST DUP4 DUP2 LT ISZERO PUSH3 0x212 JUMPI DUP1 DUP3 ADD MLOAD DUP2 DUP5 ADD MSTORE PUSH1 0x20 DUP2 ADD SWAP1 POP PUSH3 0x1F5 JUMP JUMPDEST DUP4 DUP2 GT ISZERO PUSH3 0x222 JUMPI PUSH1 0x0 DUP5 DUP5 ADD MSTORE JUMPDEST POP POP POP POP JUMP JUMPDEST PUSH1 0x0 PUSH3 0x23F PUSH3 0x239 DUP5 PUSH3 0x1BC JUMP JUMPDEST PUSH3 0x19D JUMP JUMPDEST SWAP1 POP DUP3 DUP2 MSTORE PUSH1 0x20 DUP2 ADD DUP5 DUP5 DUP5 ADD GT ISZERO PUSH3 0x25E JUMPI PUSH3 0x25D PUSH3 0x122 JUMP JUMPDEST JUMPDEST PUSH3 0x26B DUP5 DUP3 DUP6 PUSH3 0x1F2 JUMP JUMPDEST POP SWAP4 SWAP3 POP POP POP JUMP JUMPDEST PUSH1 0x0 DUP3 PUSH1 0x1F DUP4 ADD SLT PUSH3 0x28B JUMPI PUSH3 0x28A PUSH3 0x11D JUMP JUMPDEST JUMPDEST DUP2 MLOAD PUSH3 0x29D DUP5 DUP3 PUSH1 0x20 DUP7 ADD PUSH3 0x228 JUMP JUMPDEST SWAP2 POP POP SWAP3 SWAP2 POP POP JUMP JUMPDEST PUSH1 0x0 PUSH20 0xFFFFFFFFFFFFFFFFFFFFFFFFFFFFFFFFFFFFFFFF DUP3 AND SWAP1 POP SWAP2 SWAP1 POP JUMP JUMPDEST PUSH1 0x0 PUSH3 0x2D3 DUP3 PUSH3 0x2A6 JUMP JUMPDEST SWAP1 POP SWAP2 SWAP1 POP JUMP JUMPDEST PUSH3 0x2E5 DUP2 PUSH3 0x2C6 JUMP JUMPDEST DUP2 EQ PUSH3 0x2F1 JUMPI PUSH1 0x0 DUP1 REVERT JUMPDEST POP JUMP JUMPDEST PUSH1 0x0 DUP2 MLOAD SWAP1 POP PUSH3 0x305 DUP2 PUSH3 0x2DA JUMP JUMPDEST SWAP3 SWAP2 POP POP JUMP JUMPDEST PUSH1 0x0 DUP1 PUSH1 0x0 PUSH1 0x60 DUP5 DUP7 SUB SLT ISZERO PUSH3 0x327 JUMPI PUSH3 0x326 PUSH3 0x113 JUMP JUMPDEST JUMPDEST PUSH1 0x0 DUP5 ADD MLOAD PUSH8 0xFFFFFFFFFFFFFFFF DUP2 GT ISZERO PUSH3 0x348 JUMPI PUSH3 0x347 PUSH3 0x118 JUMP JUMPDEST JUMPDEST PUSH3 0x356 DUP7 DUP3 DUP8 ADD PUSH3 0x273 JUMP JUMPDEST SWAP4 POP POP PUSH1 0x20 PUSH3 0x369 DUP7 DUP3 DUP8 ADD PUSH3 0x2F4 JUMP JUMPDEST SWAP3 POP POP PUSH1 0x40 PUSH3 0x37C DUP7 DUP3 DUP8 ADD PUSH3 0x2F4 JUMP JUMPDEST SWAP2 POP POP SWAP3 POP SWAP3 POP SWAP3 JUMP JUMPDEST PUSH1 0x0 DUP2 MLOAD SWAP1 POP SWAP2 SWAP1 POP JUMP JUMPDEST PUSH32 0x4E487B7100000000000000000000000000000000000000000000000000000000 PUSH1 0x0 MSTORE PUSH1 0x22 PUSH1 0x4 MSTORE PUSH1 0x24 PUSH1 0x0 REVERT JUMPDEST PUSH1 0x0 PUSH1 0x2 DUP3 DIV SWAP1 POP PUSH1 0x1 DUP3 AND DUP1 PUSH3 0x3D9 JUMPI PUSH1 0x7F DUP3 AND SWAP2 POP JUMPDEST PUSH1 0x20 DUP3 LT DUP2 SUB PUSH3 0x3EF JUMPI PUSH3 0x3EE PUSH3 0x391 JUMP JUMPDEST JUMPDEST POP SWAP2 SWAP1 POP JUMP JUMPDEST PUSH1 0x0 DUP2 SWAP1 POP DUP2 PUSH1 0x0 MSTORE PUSH1 0x20 PUSH1 0x0 KECCAK256 SWAP1 POP SWAP2 SWAP1 POP JUMP JUMPDEST PUSH1 0x0 PUSH1 0x20 PUSH1 0x1F DUP4 ADD DIV SWAP1 POP SWAP2 SWAP1 POP JUMP JUMPDEST PUSH1 0x0 DUP3 DUP3 SHL SWAP1 POP SWAP3 SWAP2 POP POP JUMP JUMPDEST PUSH1 0x0 PUSH1 0x8 DUP4 MUL PUSH3 0x459 PUSH32 0xFFFFFFFFFFFFFFFFFFFFFFFFFFFFFFFFFFFFFFFFFFFFFFFFFFFFFFFFFFFFFFFF DUP3 PUSH3 0x41A JUMP JUMPDEST PUSH3 0x465 DUP7 DUP4 PUSH3 0x41A JUMP JUMPDEST SWAP6 POP DUP1 NOT DUP5 AND SWAP4 POP DUP1 DUP7 AND DUP5 OR SWAP3 POP POP POP SWAP4 SWAP3 POP POP POP JUMP JUMPDEST PUSH1 0x0 DUP2 SWAP1 POP SWAP2 SWAP1 POP JUMP JUMPDEST PUSH1 0x0 DUP2 SWAP1 POP SWAP2 SWAP1 POP JUMP JUMPDEST PUSH1 0x0 PUSH3 0x4B2 PUSH3 0x4AC PUSH3 0x4A6 DUP5 PUSH3 0x47D JUMP JUMPDEST PUSH3 0x487 JUMP JUMPDEST PUSH3 0x47D JUMP JUMPDEST SWAP1 POP SWAP2 SWAP1 POP JUMP JUMPDEST PUSH1 0x0 DUP2 SWAP1 POP SWAP2 SWAP1 POP JUMP JUMPDEST PUSH3 0x4CE DUP4 PUSH3 0x491 JUMP JUMPDEST PUSH3 0x4E6 PUSH3 0x4DD DUP3 PUSH3 0x4B9 JUMP JUMPDEST DUP5 DUP5 SLOAD PUSH3 0x427 JUMP JUMPDEST DUP3 SSTORE POP POP POP POP JUMP JUMPDEST PUSH1 0x0 SWAP1 JUMP JUMPDEST PUSH3 0x4FD PUSH3 0x4EE JUMP JUMPDEST PUSH3 0x50A DUP2 DUP5 DUP5 PUSH3 0x4C3 JUMP JUMPDEST POP POP POP JUMP JUMPDEST JUMPDEST DUP2 DUP2 LT ISZERO PUSH3 0x532 JUMPI PUSH3 0x526 PUSH1 0x0 DUP3 PUSH3 0x4F3 JUMP JUMPDEST PUSH1 0x1 DUP2 ADD SWAP1 POP PUSH3 0x510 JUMP JUMPDEST POP POP JUMP JUMPDEST PUSH1 0x1F DUP3 GT ISZERO PUSH3 0x581 JUMPI PUSH3 0x54B DUP2 PUSH3 0x3F5 JUMP JUMPDEST PUSH3 0x556 DUP5 PUSH3 0x40A JUMP JUMPDEST DUP2 ADD PUSH1 0x20 DUP6 LT ISZERO PUSH3 0x566 JUMPI DUP2 SWAP1 POP JUMPDEST PUSH3 0x57E PUSH3 0x575 DUP6 PUSH3 0x40A JUMP JUMPDEST DUP4 ADD DUP3 PUSH3 0x50F JUMP JUMPDEST POP POP JUMPDEST POP POP POP JUMP JUMPDEST PUSH1 0x0 DUP3 DUP3 SHR SWAP1 POP SWAP3 SWAP2 POP POP JUMP JUMPDEST PUSH1 0x0 PUSH3 0x5A6 PUSH1 0x0 NOT DUP5 PUSH1 0x8 MUL PUSH3 0x586 JUMP JUMPDEST NOT DUP1 DUP4 AND SWAP2 POP POP SWAP3 SWAP2 POP POP JUMP JUMPDEST PUSH1 0x0 PUSH3 0x5C1 DUP4 DUP4 PUSH3 0x593 JUMP JUMPDEST SWAP2 POP DUP3 PUSH1 0x2 MUL DUP3 OR SWAP1 POP SWAP3 SWAP2 POP POP JUMP JUMPDEST PUSH3 0x5DC DUP3 PUSH3 0x386 JUMP JUMPDEST PUSH8 0xFFFFFFFFFFFFFFFF DUP2 GT ISZERO PUSH3 0x5F8 JUMPI PUSH3 0x5F7 PUSH3 0x138 JUMP JUMPDEST JUMPDEST PUSH3 0x604 DUP3 SLOAD PUSH3 0x3C0 JUMP JUMPDEST PUSH3 0x611 DUP3 DUP3 DUP6 PUSH3 0x536 JUMP JUMPDEST PUSH1 0x0 PUSH1 0x20 SWAP1 POP PUSH1 0x1F DUP4 GT PUSH1 0x1 DUP2 EQ PUSH3 0x649 JUMPI PUSH1 0x0 DUP5 ISZERO PUSH3 0x634 JUMPI DUP3 DUP8 ADD MLOAD SWAP1 POP JUMPDEST PUSH3 0x640 DUP6 DUP3 PUSH3 0x5B3 JUMP JUMPDEST DUP7 SSTORE POP PUSH3 0x6B0 JUMP JUMPDEST PUSH1 0x1F NOT DUP5 AND PUSH3 0x659 DUP7 PUSH3 0x3F5 JUMP JUMPDEST PUSH1 0x0 JUMPDEST DUP3 DUP2 LT ISZERO PUSH3 0x683 JUMPI DUP5 DUP10 ADD MLOAD DUP3 SSTORE PUSH1 0x1 DUP3 ADD SWAP2 POP PUSH1 0x20 DUP6 ADD SWAP5 POP PUSH1 0x20 DUP2 ADD SWAP1 POP PUSH3 0x65C JUMP JUMPDEST DUP7 DUP4 LT ISZERO PUSH3 0x6A3 JUMPI DUP5 DUP10 ADD MLOAD PUSH3 0x69F PUSH1 0x1F DUP10 AND DUP3 PUSH3 0x593 JUMP JUMPDEST DUP4 SSTORE POP JUMPDEST PUSH1 0x1 PUSH1 0x2 DUP9 MUL ADD DUP9 SSTORE POP POP POP JUMPDEST POP POP POP POP POP POP JUMP JUMPDEST PUSH2 0xFA8 DUP1 PUSH3 0x6C8 PUSH1 0x0 CODECOPY PUSH1 0x0 RETURN INVALID PUSH1 0x80 PUSH1 0x40 MSTORE PUSH1 0x4 CALLDATASIZE LT PUSH2 0x74 JUMPI PUSH1 0x0 CALLDATALOAD PUSH1 0xE0 SHR DUP1 PUSH4 0xBD541302 GT PUSH2 0x4E JUMPI DUP1 PUSH4 0xBD541302 EQ PUSH2 0x10C JUMPI DUP1 PUSH4 0xC71DACCB EQ PUSH2 0x135 JUMPI DUP1 PUSH4 0xD0E30DB0 EQ PUSH2 0x160 JUMPI DUP1 PUSH4 0xEACC2940 EQ PUSH2 0x16A JUMPI PUSH2 0x8E JUMP JUMPDEST DUP1 PUSH4 0x3A7D280C EQ PUSH2 0xA3 JUMPI DUP1 PUSH4 0x49649FBF EQ PUSH2 0xCC JUMPI DUP1 PUSH4 0xA49B5CB4 EQ PUSH2 0xE3 JUMPI PUSH2 0x8E JUMP JUMPDEST CALLDATASIZE PUSH2 0x8E JUMPI CALLVALUE PUSH1 0x0 SLOAD PUSH2 0x87 SWAP2 SWAP1 PUSH2 0x894 JUMP JUMPDEST PUSH1 0x0 DUP2 SWAP1 SSTORE STOP JUMPDEST CALLVALUE PUSH1 0x0 SLOAD PUSH2 0x9C SWAP2 SWAP1 PUSH2 0x894 JUMP JUMPDEST PUSH1 0x0 DUP2 SWAP1 SSTORE STOP JUMPDEST CALLVALUE DUP1 ISZERO PUSH2 0xAF JUMPI PUSH1 0x0 DUP1 REVERT JUMPDEST POP PUSH2 0xCA PUSH1 0x4 DUP1 CALLDATASIZE SUB DUP2 ADD SWAP1 PUSH2 0xC5 SWAP2 SWAP1 PUSH2 0xA44 JUMP JUMPDEST PUSH2 0x193 JUMP JUMPDEST STOP JUMPDEST CALLVALUE DUP1 ISZERO PUSH2 0xD8 JUMPI PUSH1 0x0 DUP1 REVERT JUMPDEST POP PUSH2 0xE1 PUSH2 0x284 JUMP JUMPDEST STOP JUMPDEST CALLVALUE DUP1 ISZERO PUSH2 0xEF JUMPI PUSH1 0x0 DUP1 REVERT JUMPDEST POP PUSH2 0x10A PUSH1 0x4 DUP1 CALLDATASIZE SUB DUP2 ADD SWAP1 PUSH2 0x105 SWAP2 SWAP1 PUSH2 0xB17 JUMP JUMPDEST PUSH2 0x35B JUMP JUMPDEST STOP JUMPDEST CALLVALUE DUP1 ISZERO PUSH2 0x118 JUMPI PUSH1 0x0 DUP1 REVERT JUMPDEST POP PUSH2 0x133 PUSH1 0x4 DUP1 CALLDATASIZE SUB DUP2 ADD SWAP1 PUSH2 0x12E SWAP2 SWAP1 PUSH2 0xB57 JUMP JUMPDEST PUSH2 0x52A JUMP JUMPDEST STOP JUMPDEST CALLVALUE DUP1 ISZERO PUSH2 0x141 JUMPI PUSH1 0x0 DUP1 REVERT JUMPDEST POP PUSH2 0x14A PUSH2 0x6F8 JUMP JUMPDEST PUSH1 0x40 MLOAD PUSH2 0x157 SWAP2 SWAP1 PUSH2 0xB93 JUMP JUMPDEST PUSH1 0x40 MLOAD DUP1 SWAP2 SUB SWAP1 RETURN JUMPDEST PUSH2 0x168 PUSH2 0x751 JUMP JUMPDEST STOP JUMPDEST CALLVALUE DUP1 ISZERO PUSH2 0x176 JUMPI PUSH1 0x0 DUP1 REVERT JUMPDEST POP PUSH2 0x191 PUSH1 0x4 DUP1 CALLDATASIZE SUB DUP2 ADD SWAP1 PUSH2 0x18C SWAP2 SWAP1 PUSH2 0xB17 JUMP JUMPDEST PUSH2 0x76B JUMP JUMPDEST STOP JUMPDEST PUSH2 0x227 DUP2 PUSH1 0x1 DUP1 SLOAD PUSH2 0x1A4 SWAP1 PUSH2 0xBDD JUMP JUMPDEST DUP1 PUSH1 0x1F ADD PUSH1 0x20 DUP1 SWAP2 DIV MUL PUSH1 0x20 ADD PUSH1 0x40 MLOAD SWAP1 DUP2 ADD PUSH1 0x40 MSTORE DUP1 SWAP3 SWAP2 SWAP1 DUP2 DUP2 MSTORE PUSH1 0x20 ADD DUP3 DUP1 SLOAD PUSH2 0x1D0 SWAP1 PUSH2 0xBDD JUMP JUMPDEST DUP1 ISZERO PUSH2 0x21D JUMPI DUP1 PUSH1 0x1F LT PUSH2 0x1F2 JUMPI PUSH2 0x100 DUP1 DUP4 SLOAD DIV MUL DUP4 MSTORE SWAP2 PUSH1 0x20 ADD SWAP2 PUSH2 0x21D JUMP JUMPDEST DUP3 ADD SWAP2 SWAP1 PUSH1 0x0 MSTORE PUSH1 0x20 PUSH1 0x0 KECCAK256 SWAP1 JUMPDEST DUP2 SLOAD DUP2 MSTORE SWAP1 PUSH1 0x1 ADD SWAP1 PUSH1 0x20 ADD DUP1 DUP4 GT PUSH2 0x200 JUMPI DUP3 SWAP1 SUB PUSH1 0x1F AND DUP3 ADD SWAP2 JUMPDEST POP POP POP POP POP PUSH2 0x802 JUMP JUMPDEST PUSH2 0x266 JUMPI PUSH1 0x40 MLOAD PUSH32 0x8C379A000000000000000000000000000000000000000000000000000000000 DUP2 MSTORE PUSH1 0x4 ADD PUSH2 0x25D SWAP1 PUSH2 0xC6B JUMP JUMPDEST PUSH1 0x40 MLOAD DUP1 SWAP2 SUB SWAP1 REVERT JUMPDEST PUSH1 0x1 PUSH1 0x4 PUSH1 0x0 PUSH2 0x100 EXP DUP2 SLOAD DUP2 PUSH1 0xFF MUL NOT AND SWAP1 DUP4 ISZERO ISZERO MUL OR SWAP1 SSTORE POP POP JUMP JUMPDEST PUSH1 0x2 PUSH1 0x0 CALLER PUSH20 0xFFFFFFFFFFFFFFFFFFFFFFFFFFFFFFFFFFFFFFFF AND PUSH20 0xFFFFFFFFFFFFFFFFFFFFFFFFFFFFFFFFFFFFFFFF AND DUP2 MSTORE PUSH1 0x20 ADD SWAP1 DUP2 MSTORE PUSH1 0x20 ADD PUSH1 0x0 KECCAK256 PUSH1 0x0 SWAP1 SLOAD SWAP1 PUSH2 0x100 EXP SWAP1 DIV PUSH1 0xFF AND PUSH2 0x310 JUMPI PUSH1 0x40 MLOAD PUSH32 0x8C379A000000000000000000000000000000000000000000000000000000000 DUP2 MSTORE PUSH1 0x4 ADD PUSH2 0x307 SWAP1 PUSH2 0xCFD JUMP JUMPDEST PUSH1 0x40 MLOAD DUP1 SWAP2 SUB SWAP1 REVERT JUMPDEST CALLER PUSH20 0xFFFFFFFFFFFFFFFFFFFFFFFFFFFFFFFFFFFFFFFF AND PUSH2 0x8FC PUSH1 0x0 SLOAD SWAP1 DUP2 ISZERO MUL SWAP1 PUSH1 0x40 MLOAD PUSH1 0x0 PUSH1 0x40 MLOAD DUP1 DUP4 SUB DUP2 DUP6 DUP9 DUP9 CALL SWAP4 POP POP POP POP ISZERO DUP1 ISZERO PUSH2 0x358 JUMPI RETURNDATASIZE PUSH1 0x0 DUP1 RETURNDATACOPY RETURNDATASIZE PUSH1 0x0 REVERT JUMPDEST POP JUMP JUMPDEST PUSH1 0x4 PUSH1 0x0 SWAP1 SLOAD SWAP1 PUSH2 0x100 EXP SWAP1 DIV PUSH1 0xFF AND PUSH2 0x3AA JUMPI PUSH1 0x40 MLOAD PUSH32 0x8C379A000000000000000000000000000000000000000000000000000000000 DUP2 MSTORE PUSH1 0x4 ADD PUSH2 0x3A1 SWAP1 PUSH2 0xD69 JUMP JUMPDEST PUSH1 0x40 MLOAD DUP1 SWAP2 SUB SWAP1 REVERT JUMPDEST DUP2 PUSH1 0x3 PUSH1 0x0 DUP4 PUSH20 0xFFFFFFFFFFFFFFFFFFFFFFFFFFFFFFFFFFFFFFFF AND PUSH20 0xFFFFFFFFFFFFFFFFFFFFFFFFFFFFFFFFFFFFFFFF AND DUP2 MSTORE PUSH1 0x20 ADD SWAP1 DUP2 MSTORE PUSH1 0x20 ADD PUSH1 0x0 KECCAK256 SLOAD LT ISZERO PUSH2 0x42C JUMPI PUSH1 0x40 MLOAD PUSH32 0x8C379A000000000000000000000000000000000000000000000000000000000 DUP2 MSTORE PUSH1 0x4 ADD PUSH2 0x423 SWAP1 PUSH2 0xDFB JUMP JUMPDEST PUSH1 0x40 MLOAD DUP1 SWAP2 SUB SWAP1 REVERT JUMPDEST DUP2 PUSH1 0x0 SLOAD LT ISZERO PUSH2 0x471 JUMPI PUSH1 0x40 MLOAD PUSH32 0x8C379A000000000000000000000000000000000000000000000000000000000 DUP2 MSTORE PUSH1 0x4 ADD PUSH2 0x468 SWAP1 PUSH2 0xE8D JUMP JUMPDEST PUSH1 0x40 MLOAD DUP1 SWAP2 SUB SWAP1 REVERT JUMPDEST DUP2 PUSH1 0x0 DUP1 DUP3 DUP3 SLOAD PUSH2 0x482 SWAP2 SWAP1 PUSH2 0xEAD JUMP JUMPDEST SWAP3 POP POP DUP2 SWAP1 SSTORE POP DUP2 PUSH1 0x3 PUSH1 0x0 DUP4 PUSH20 0xFFFFFFFFFFFFFFFFFFFFFFFFFFFFFFFFFFFFFFFF AND PUSH20 0xFFFFFFFFFFFFFFFFFFFFFFFFFFFFFFFFFFFFFFFF AND DUP2 MSTORE PUSH1 0x20 ADD SWAP1 DUP2 MSTORE PUSH1 0x20 ADD PUSH1 0x0 KECCAK256 PUSH1 0x0 DUP3 DUP3 SLOAD PUSH2 0x4D8 SWAP2 SWAP1 PUSH2 0xEAD JUMP JUMPDEST SWAP3 POP POP DUP2 SWAP1 SSTORE POP DUP1 PUSH20 0xFFFFFFFFFFFFFFFFFFFFFFFFFFFFFFFFFFFFFFFF AND PUSH2 0x8FC DUP4 SWAP1 DUP2 ISZERO MUL SWAP1 PUSH1 0x40 MLOAD PUSH1 0x0 PUSH1 0x40 MLOAD DUP1 DUP4 SUB DUP2 DUP6 DUP9 DUP9 CALL SWAP4 POP POP POP POP ISZERO DUP1 ISZERO PUSH2 0x525 JUMPI RETURNDATASIZE PUSH1 0x0 DUP1 RETURNDATACOPY RETURNDATASIZE PUSH1 0x0 REVERT JUMPDEST POP POP POP JUMP JUMPDEST PUSH1 0x4 PUSH1 0x0 SWAP1 SLOAD SWAP1 PUSH2 0x100 EXP SWAP1 DIV PUSH1 0xFF AND PUSH2 0x579 JUMPI PUSH1 0x40 MLOAD PUSH32 0x8C379A000000000000000000000000000000000000000000000000000000000 DUP2 MSTORE PUSH1 0x4 ADD PUSH2 0x570 SWAP1 PUSH2 0xD69 JUMP JUMPDEST PUSH1 0x40 MLOAD DUP1 SWAP2 SUB SWAP1 REVERT JUMPDEST DUP1 PUSH1 0x3 PUSH1 0x0 CALLER PUSH20 0xFFFFFFFFFFFFFFFFFFFFFFFFFFFFFFFFFFFFFFFF AND PUSH20 0xFFFFFFFFFFFFFFFFFFFFFFFFFFFFFFFFFFFFFFFF AND DUP2 MSTORE PUSH1 0x20 ADD SWAP1 DUP2 MSTORE PUSH1 0x20 ADD PUSH1 0x0 KECCAK256 SLOAD LT ISZERO PUSH2 0x5FB JUMPI PUSH1 0x40 MLOAD PUSH32 0x8C379A000000000000000000000000000000000000000000000000000000000 DUP2 MSTORE PUSH1 0x4 ADD PUSH2 0x5F2 SWAP1 PUSH2 0xDFB JUMP JUMPDEST PUSH1 0x40 MLOAD DUP1 SWAP2 SUB SWAP1 REVERT JUMPDEST DUP1 PUSH1 0x0 SLOAD LT ISZERO PUSH2 0x640 JUMPI PUSH1 0x40 MLOAD PUSH32 0x8C379A000000000000000000000000000000000000000000000000000000000 DUP2 MSTORE PUSH1 0x4 ADD PUSH2 0x637 SWAP1 PUSH2 0xE8D JUMP JUMPDEST PUSH1 0x40 MLOAD DUP1 SWAP2 SUB SWAP1 REVERT JUMPDEST DUP1 PUSH1 0x0 DUP1 DUP3 DUP3 SLOAD PUSH2 0x651 SWAP2 SWAP1 PUSH2 0xEAD JUMP JUMPDEST SWAP3 POP POP DUP2 SWAP1 SSTORE POP DUP1 PUSH1 0x3 PUSH1 0x0 CALLER PUSH20 0xFFFFFFFFFFFFFFFFFFFFFFFFFFFFFFFFFFFFFFFF AND PUSH20 0xFFFFFFFFFFFFFFFFFFFFFFFFFFFFFFFFFFFFFFFF AND DUP2 MSTORE PUSH1 0x20 ADD SWAP1 DUP2 MSTORE PUSH1 0x20 ADD PUSH1 0x0 KECCAK256 PUSH1 0x0 DUP3 DUP3 SLOAD PUSH2 0x6A7 SWAP2 SWAP1 PUSH2 0xEAD JUMP JUMPDEST SWAP3 POP POP DUP2 SWAP1 SSTORE POP CALLER PUSH20 0xFFFFFFFFFFFFFFFFFFFFFFFFFFFFFFFFFFFFFFFF AND PUSH2 0x8FC DUP3 SWAP1 DUP2 ISZERO MUL SWAP1 PUSH1 0x40 MLOAD PUSH1 0x0 PUSH1 0x40 MLOAD DUP1 DUP4 SUB DUP2 DUP6 DUP9 DUP9 CALL SWAP4 POP POP POP POP ISZERO DUP1 ISZERO PUSH2 0x6F4 JUMPI RETURNDATASIZE PUSH1 0x0 DUP1 RETURNDATACOPY RETURNDATASIZE PUSH1 0x0 REVERT JUMPDEST POP POP JUMP JUMPDEST PUSH1 0x0 PUSH1 0x4 PUSH1 0x0 SWAP1 SLOAD SWAP1 PUSH2 0x100 EXP SWAP1 DIV PUSH1 0xFF AND PUSH2 0x749 JUMPI PUSH1 0x40 MLOAD PUSH32 0x8C379A000000000000000000000000000000000000000000000000000000000 DUP2 MSTORE PUSH1 0x4 ADD PUSH2 0x740 SWAP1 PUSH2 0xD69 JUMP JUMPDEST PUSH1 0x40 MLOAD DUP1 SWAP2 SUB SWAP1 REVERT JUMPDEST PUSH1 0x0 SLOAD SWAP1 POP SWAP1 JUMP JUMPDEST CALLVALUE PUSH1 0x0 DUP1 DUP3 DUP3 SLOAD PUSH2 0x762 SWAP2 SWAP1 PUSH2 0x894 JUMP JUMPDEST SWAP3 POP POP DUP2 SWAP1 SSTORE POP JUMP JUMPDEST PUSH1 0x4 PUSH1 0x0 SWAP1 SLOAD SWAP1 PUSH2 0x100 EXP SWAP1 DIV PUSH1 0xFF AND PUSH2 0x7BA JUMPI PUSH1 0x40 MLOAD PUSH32 0x8C379A000000000000000000000000000000000000000000000000000000000 DUP2 MSTORE PUSH1 0x4 ADD PUSH2 0x7B1 SWAP1 PUSH2 0xD69 JUMP JUMPDEST PUSH1 0x40 MLOAD DUP1 SWAP2 SUB SWAP1 REVERT JUMPDEST DUP2 PUSH1 0x3 PUSH1 0x0 DUP4 PUSH20 0xFFFFFFFFFFFFFFFFFFFFFFFFFFFFFFFFFFFFFFFF AND PUSH20 0xFFFFFFFFFFFFFFFFFFFFFFFFFFFFFFFFFFFFFFFF AND DUP2 MSTORE PUSH1 0x20 ADD SWAP1 DUP2 MSTORE PUSH1 0x20 ADD PUSH1 0x0 KECCAK256 DUP2 SWAP1 SSTORE POP POP POP JUMP JUMPDEST PUSH1 0x0 DUP2 PUSH1 0x40 MLOAD PUSH1 0x20 ADD PUSH2 0x815 SWAP2 SWAP1 PUSH2 0xF5B JUMP JUMPDEST PUSH1 0x40 MLOAD PUSH1 0x20 DUP2 DUP4 SUB SUB DUP2 MSTORE SWAP1 PUSH1 0x40 MSTORE DUP1 MLOAD SWAP1 PUSH1 0x20 ADD KECCAK256 DUP4 PUSH1 0x40 MLOAD PUSH1 0x20 ADD PUSH2 0x83C SWAP2 SWAP1 PUSH2 0xF5B JUMP JUMPDEST PUSH1 0x40 MLOAD PUSH1 0x20 DUP2 DUP4 SUB SUB DUP2 MSTORE SWAP1 PUSH1 0x40 MSTORE DUP1 MLOAD SWAP1 PUSH1 0x20 ADD KECCAK256 EQ SWAP1 POP SWAP3 SWAP2 POP POP JUMP JUMPDEST PUSH1 0x0 DUP2 SWAP1 POP SWAP2 SWAP1 POP JUMP JUMPDEST PUSH32 0x4E487B7100000000000000000000000000000000000000000000000000000000 PUSH1 0x0 MSTORE PUSH1 0x11 PUSH1 0x4 MSTORE PUSH1 0x24 PUSH1 0x0 REVERT JUMPDEST PUSH1 0x0 PUSH2 0x89F DUP3 PUSH2 0x85B JUMP JUMPDEST SWAP2 POP PUSH2 0x8AA DUP4 PUSH2 0x85B JUMP JUMPDEST SWAP3 POP DUP3 PUSH32 0xFFFFFFFFFFFFFFFFFFFFFFFFFFFFFFFFFFFFFFFFFFFFFFFFFFFFFFFFFFFFFFFF SUB DUP3 GT ISZERO PUSH2 0x8DF JUMPI PUSH2 0x8DE PUSH2 0x865 JUMP JUMPDEST JUMPDEST DUP3 DUP3 ADD SWAP1 POP SWAP3 SWAP2 POP POP JUMP JUMPDEST PUSH1 0x0 PUSH1 0x40 MLOAD SWAP1 POP SWAP1 JUMP JUMPDEST PUSH1 0x0 DUP1 REVERT JUMPDEST PUSH1 0x0 DUP1 REVERT JUMPDEST PUSH1 0x0 DUP1 REVERT JUMPDEST PUSH1 0x0 DUP1 REVERT JUMPDEST PUSH1 0x0 PUSH1 0x1F NOT PUSH1 0x1F DUP4 ADD AND SWAP1 POP SWAP2 SWAP1 POP JUMP JUMPDEST PUSH32 0x4E487B7100000000000000000000000000000000000000000000000000000000 PUSH1 0x0 MSTORE PUSH1 0x41 PUSH1 0x4 MSTORE PUSH1 0x24 PUSH1 0x0 REVERT JUMPDEST PUSH2 0x951 DUP3 PUSH2 0x908 JUMP JUMPDEST DUP2 ADD DUP2 DUP2 LT PUSH8 0xFFFFFFFFFFFFFFFF DUP3 GT OR ISZERO PUSH2 0x970 JUMPI PUSH2 0x96F PUSH2 0x919 JUMP JUMPDEST JUMPDEST DUP1 PUSH1 0x40 MSTORE POP POP POP JUMP JUMPDEST PUSH1 0x0 PUSH2 0x983 PUSH2 0x8EA JUMP JUMPDEST SWAP1 POP PUSH2 0x98F DUP3 DUP3 PUSH2 0x948 JUMP JUMPDEST SWAP2 SWAP1 POP JUMP JUMPDEST PUSH1 0x0 PUSH8 0xFFFFFFFFFFFFFFFF DUP3 GT ISZERO PUSH2 0x9AF JUMPI PUSH2 0x9AE PUSH2 0x919 JUMP JUMPDEST JUMPDEST PUSH2 0x9B8 DUP3 PUSH2 0x908 JUMP JUMPDEST SWAP1 POP PUSH1 0x20 DUP2 ADD SWAP1 POP SWAP2 SWAP1 POP JUMP JUMPDEST DUP3 DUP2 DUP4 CALLDATACOPY PUSH1 0x0 DUP4 DUP4 ADD MSTORE POP POP POP JUMP JUMPDEST PUSH1 0x0 PUSH2 0x9E7 PUSH2 0x9E2 DUP5 PUSH2 0x994 JUMP JUMPDEST PUSH2 0x979 JUMP JUMPDEST SWAP1 POP DUP3 DUP2 MSTORE PUSH1 0x20 DUP2 ADD DUP5 DUP5 DUP5 ADD GT ISZERO PUSH2 0xA03 JUMPI PUSH2 0xA02 PUSH2 0x903 JUMP JUMPDEST JUMPDEST PUSH2 0xA0E DUP5 DUP3 DUP6 PUSH2 0x9C5 JUMP JUMPDEST POP SWAP4 SWAP3 POP POP POP JUMP JUMPDEST PUSH1 0x0 DUP3 PUSH1 0x1F DUP4 ADD SLT PUSH2 0xA2B JUMPI PUSH2 0xA2A PUSH2 0x8FE JUMP JUMPDEST JUMPDEST DUP2 CALLDATALOAD PUSH2 0xA3B DUP5 DUP3 PUSH1 0x20 DUP7 ADD PUSH2 0x9D4 JUMP JUMPDEST SWAP2 POP POP SWAP3 SWAP2 POP POP JUMP JUMPDEST PUSH1 0x0 PUSH1 0x20 DUP3 DUP5 SUB SLT ISZERO PUSH2 0xA5A JUMPI PUSH2 0xA59 PUSH2 0x8F4 JUMP JUMPDEST JUMPDEST PUSH1 0x0 DUP3 ADD CALLDATALOAD PUSH8 0xFFFFFFFFFFFFFFFF DUP2 GT ISZERO PUSH2 0xA78 JUMPI PUSH2 0xA77 PUSH2 0x8F9 JUMP JUMPDEST JUMPDEST PUSH2 0xA84 DUP5 DUP3 DUP6 ADD PUSH2 0xA16 JUMP JUMPDEST SWAP2 POP POP SWAP3 SWAP2 POP POP JUMP JUMPDEST PUSH2 0xA96 DUP2 PUSH2 0x85B JUMP JUMPDEST DUP2 EQ PUSH2 0xAA1 JUMPI PUSH1 0x0 DUP1 REVERT JUMPDEST POP JUMP JUMPDEST PUSH1 0x0 DUP2 CALLDATALOAD SWAP1 POP PUSH2 0xAB3 DUP2 PUSH2 0xA8D JUMP JUMPDEST SWAP3 SWAP2 POP POP JUMP JUMPDEST PUSH1 0x0 PUSH20 0xFFFFFFFFFFFFFFFFFFFFFFFFFFFFFFFFFFFFFFFF DUP3 AND SWAP1 POP SWAP2 SWAP1 POP JUMP JUMPDEST PUSH1 0x0 PUSH2 0xAE4 DUP3 PUSH2 0xAB9 JUMP JUMPDEST SWAP1 POP SWAP2 SWAP1 POP JUMP JUMPDEST PUSH2 0xAF4 DUP2 PUSH2 0xAD9 JUMP JUMPDEST DUP2 EQ PUSH2 0xAFF JUMPI PUSH1 0x0 DUP1 REVERT JUMPDEST POP JUMP JUMPDEST PUSH1 0x0 DUP2 CALLDATALOAD SWAP1 POP PUSH2 0xB11 DUP2 PUSH2 0xAEB JUMP JUMPDEST SWAP3 SWAP2 POP POP JUMP JUMPDEST PUSH1 0x0 DUP1 PUSH1 0x40 DUP4 DUP6 SUB SLT ISZERO PUSH2 0xB2E JUMPI PUSH2 0xB2D PUSH2 0x8F4 JUMP JUMPDEST JUMPDEST PUSH1 0x0 PUSH2 0xB3C DUP6 DUP3 DUP7 ADD PUSH2 0xAA4 JUMP JUMPDEST SWAP3 POP POP PUSH1 0x20 PUSH2 0xB4D DUP6 DUP3 DUP7 ADD PUSH2 0xB02 JUMP JUMPDEST SWAP2 POP POP SWAP3 POP SWAP3 SWAP1 POP JUMP JUMPDEST PUSH1 0x0 PUSH1 0x20 DUP3 DUP5 SUB SLT ISZERO PUSH2 0xB6D JUMPI PUSH2 0xB6C PUSH2 0x8F4 JUMP JUMPDEST JUMPDEST PUSH1 0x0 PUSH2 0xB7B DUP5 DUP3 DUP6 ADD PUSH2 0xAA4 JUMP JUMPDEST SWAP2 POP POP SWAP3 SWAP2 POP POP JUMP JUMPDEST PUSH2 0xB8D DUP2 PUSH2 0x85B JUMP JUMPDEST DUP3 MSTORE POP POP JUMP JUMPDEST PUSH1 0x0 PUSH1 0x20 DUP3 ADD SWAP1 POP PUSH2 0xBA8 PUSH1 0x0 DUP4 ADD DUP5 PUSH2 0xB84 JUMP JUMPDEST SWAP3 SWAP2 POP POP JUMP JUMPDEST PUSH32 0x4E487B7100000000000000000000000000000000000000000000000000000000 PUSH1 0x0 MSTORE PUSH1 0x22 PUSH1 0x4 MSTORE PUSH1 0x24 PUSH1 0x0 REVERT JUMPDEST PUSH1 0x0 PUSH1 0x2 DUP3 DIV SWAP1 POP PUSH1 0x1 DUP3 AND DUP1 PUSH2 0xBF5 JUMPI PUSH1 0x7F DUP3 AND SWAP2 POP JUMPDEST PUSH1 0x20 DUP3 LT DUP2 SUB PUSH2 0xC08 JUMPI PUSH2 0xC07 PUSH2 0xBAE JUMP JUMPDEST JUMPDEST POP SWAP2 SWAP1 POP JUMP JUMPDEST PUSH1 0x0 DUP3 DUP3 MSTORE PUSH1 0x20 DUP3 ADD SWAP1 POP SWAP3 SWAP2 POP POP JUMP JUMPDEST PUSH32 0x496E76616C696420706173737068726173650000000000000000000000000000 PUSH1 0x0 DUP3 ADD MSTORE POP JUMP JUMPDEST PUSH1 0x0 PUSH2 0xC55 PUSH1 0x12 DUP4 PUSH2 0xC0E JUMP JUMPDEST SWAP2 POP PUSH2 0xC60 DUP3 PUSH2 0xC1F JUMP JUMPDEST PUSH1 0x20 DUP3 ADD SWAP1 POP SWAP2 SWAP1 POP JUMP JUMPDEST PUSH1 0x0 PUSH1 0x20 DUP3 ADD SWAP1 POP DUP2 DUP2 SUB PUSH1 0x0 DUP4 ADD MSTORE PUSH2 0xC84 DUP2 PUSH2 0xC48 JUMP JUMPDEST SWAP1 POP SWAP2 SWAP1 POP JUMP JUMPDEST PUSH32 0x57616C6C6574207472616E736665722063616E6E6F7420626520646F6E652074 PUSH1 0x0 DUP3 ADD MSTORE PUSH32 0x6F206E6F6E2D677561726469616E206163636F756E7400000000000000000000 PUSH1 0x20 DUP3 ADD MSTORE POP JUMP JUMPDEST PUSH1 0x0 PUSH2 0xCE7 PUSH1 0x36 DUP4 PUSH2 0xC0E JUMP JUMPDEST SWAP2 POP PUSH2 0xCF2 DUP3 PUSH2 0xC8B JUMP JUMPDEST PUSH1 0x40 DUP3 ADD SWAP1 POP SWAP2 SWAP1 POP JUMP JUMPDEST PUSH1 0x0 PUSH1 0x20 DUP3 ADD SWAP1 POP DUP2 DUP2 SUB PUSH1 0x0 DUP4 ADD MSTORE PUSH2 0xD16 DUP2 PUSH2 0xCDA JUMP JUMPDEST SWAP1 POP SWAP2 SWAP1 POP JUMP JUMPDEST PUSH32 0x596F75206861766520746F206C6F67696E000000000000000000000000000000 PUSH1 0x0 DUP3 ADD MSTORE POP JUMP JUMPDEST PUSH1 0x0 PUSH2 0xD53 PUSH1 0x11 DUP4 PUSH2 0xC0E JUMP JUMPDEST SWAP2 POP PUSH2 0xD5E DUP3 PUSH2 0xD1D JUMP JUMPDEST PUSH1 0x20 DUP3 ADD SWAP1 POP SWAP2 SWAP1 POP JUMP JUMPDEST PUSH1 0x0 PUSH1 0x20 DUP3 ADD SWAP1 POP DUP2 DUP2 SUB PUSH1 0x0 DUP4 ADD MSTORE PUSH2 0xD82 DUP2 PUSH2 0xD46 JUMP JUMPDEST SWAP1 POP SWAP2 SWAP1 POP JUMP JUMPDEST PUSH32 0x5769746864726177616C20416D6F756E74206973206772656174657220746861 PUSH1 0x0 DUP3 ADD MSTORE PUSH32 0x6E20617661696C61626C6520616C6C6F77616E63650000000000000000000000 PUSH1 0x20 DUP3 ADD MSTORE POP JUMP JUMPDEST PUSH1 0x0 PUSH2 0xDE5 PUSH1 0x35 DUP4 PUSH2 0xC0E JUMP JUMPDEST SWAP2 POP PUSH2 0xDF0 DUP3 PUSH2 0xD89 JUMP JUMPDEST PUSH1 0x40 DUP3 ADD SWAP1 POP SWAP2 SWAP1 POP JUMP JUMPDEST PUSH1 0x0 PUSH1 0x20 DUP3 ADD SWAP1 POP DUP2 DUP2 SUB PUSH1 0x0 DUP4 ADD MSTORE PUSH2 0xE14 DUP2 PUSH2 0xDD8 JUMP JUMPDEST SWAP1 POP SWAP2 SWAP1 POP JUMP JUMPDEST PUSH32 0x5769746864726177616C20416D6F756E74206973206772656174657220746861 PUSH1 0x0 DUP3 ADD MSTORE PUSH32 0x6E20617661696C61626C652062616C616E636500000000000000000000000000 PUSH1 0x20 DUP3 ADD MSTORE POP JUMP JUMPDEST PUSH1 0x0 PUSH2 0xE77 PUSH1 0x33 DUP4 PUSH2 0xC0E JUMP JUMPDEST SWAP2 POP PUSH2 0xE82 DUP3 PUSH2 0xE1B JUMP JUMPDEST PUSH1 0x40 DUP3 ADD SWAP1 POP SWAP2 SWAP1 POP JUMP JUMPDEST PUSH1 0x0 PUSH1 0x20 DUP3 ADD SWAP1 POP DUP2 DUP2 SUB PUSH1 0x0 DUP4 ADD MSTORE PUSH2 0xEA6 DUP2 PUSH2 0xE6A JUMP JUMPDEST SWAP1 POP SWAP2 SWAP1 POP JUMP JUMPDEST PUSH1 0x0 PUSH2 0xEB8 DUP3 PUSH2 0x85B JUMP JUMPDEST SWAP2 POP PUSH2 0xEC3 DUP4 PUSH2 0x85B JUMP JUMPDEST SWAP3 POP DUP3 DUP3 LT ISZERO PUSH2 0xED6 JUMPI PUSH2 0xED5 PUSH2 0x865 JUMP JUMPDEST JUMPDEST DUP3 DUP3 SUB SWAP1 POP SWAP3 SWAP2 POP POP JUMP JUMPDEST PUSH1 0x0 DUP2 MLOAD SWAP1 POP SWAP2 SWAP1 POP JUMP JUMPDEST PUSH1 0x0 DUP2 SWAP1 POP SWAP3 SWAP2 POP POP JUMP JUMPDEST PUSH1 0x0 JUMPDEST DUP4 DUP2 LT ISZERO PUSH2 0xF15 JUMPI DUP1 DUP3 ADD MLOAD DUP2 DUP5 ADD MSTORE PUSH1 0x20 DUP2 ADD SWAP1 POP PUSH2 0xEFA JUMP JUMPDEST DUP4 DUP2 GT ISZERO PUSH2 0xF24 JUMPI PUSH1 0x0 DUP5 DUP5 ADD MSTORE JUMPDEST POP POP POP POP JUMP JUMPDEST PUSH1 0x0 PUSH2 0xF35 DUP3 PUSH2 0xEE1 JUMP JUMPDEST PUSH2 0xF3F DUP2 DUP6 PUSH2 0xEEC JUMP JUMPDEST SWAP4 POP PUSH2 0xF4F DUP2 DUP6 PUSH1 0x20 DUP7 ADD PUSH2 0xEF7 JUMP JUMPDEST DUP1 DUP5 ADD SWAP2 POP POP SWAP3 SWAP2 POP POP JUMP JUMPDEST PUSH1 0x0 PUSH2 0xF67 DUP3 DUP5 PUSH2 0xF2A JUMP JUMPDEST SWAP2 POP DUP2 SWAP1 POP SWAP3 SWAP2 POP POP JUMP INVALID LOG2 PUSH5 0x6970667358 0x22 SLT KECCAK256 0xCB PUSH6 0x951B9259A928 CHAINID 0xDD PUSH24 0x9A8CCAFE084C5D638BE1E8FAD680B6B885E770560264736F PUSH13 0x634300080F0033000000000000 "
				},
				"gasEstimates": {
					"creation": {
						"codeDepositCost": "801600",
						"executionCost": "infinite",
						"totalCost": "infinite"
					},
					"external": {
						"": "infinite",
						"checkBalance()": "4612",
						"deposit()": "infinite",
						"login(string)": "infinite",
						"updateAllowance(uint256,address)": "25051",
						"withdrawAllFunds()": "infinite",
						"withdrawToAccount(uint256,address)": "infinite",
						"withdrawToCaller(uint256)": "infinite"
					},
					"internal": {
						"compareStrings(string memory,string memory)": "infinite"
					}
				},
				"methodIdentifiers": {
					"checkBalance()": "c71daccb",
					"deposit()": "d0e30db0",
					"login(string)": "3a7d280c",
					"updateAllowance(uint256,address)": "eacc2940",
					"withdrawAllFunds()": "49649fbf",
					"withdrawToAccount(uint256,address)": "a49b5cb4",
					"withdrawToCaller(uint256)": "bd541302"
				}
			},
			"storageLayout": {
				"storage": [
					{
						"astId": 3,
						"contract": "contracts/Wallet.sol:Wallet",
						"label": "balance",
						"offset": 0,
						"slot": "0",
						"type": "t_uint256"
					},
					{
						"astId": 5,
						"contract": "contracts/Wallet.sol:Wallet",
						"label": "passphrase",
						"offset": 0,
						"slot": "1",
						"type": "t_string_storage"
					},
					{
						"astId": 9,
						"contract": "contracts/Wallet.sol:Wallet",
						"label": "guardianAccounts",
						"offset": 0,
						"slot": "2",
						"type": "t_mapping(t_address,t_bool)"
					},
					{
						"astId": 13,
						"contract": "contracts/Wallet.sol:Wallet",
						"label": "allowance",
						"offset": 0,
						"slot": "3",
						"type": "t_mapping(t_address,t_uint256)"
					},
					{
						"astId": 15,
						"contract": "contracts/Wallet.sol:Wallet",
						"label": "isLoggedIn",
						"offset": 0,
						"slot": "4",
						"type": "t_bool"
					}
				],
				"types": {
					"t_address": {
						"encoding": "inplace",
						"label": "address",
						"numberOfBytes": "20"
					},
					"t_bool": {
						"encoding": "inplace",
						"label": "bool",
						"numberOfBytes": "1"
					},
					"t_mapping(t_address,t_bool)": {
						"encoding": "mapping",
						"key": "t_address",
						"label": "mapping(address => bool)",
						"numberOfBytes": "32",
						"value": "t_bool"
					},
					"t_mapping(t_address,t_uint256)": {
						"encoding": "mapping",
						"key": "t_address",
						"label": "mapping(address => uint256)",
						"numberOfBytes": "32",
						"value": "t_uint256"
					},
					"t_string_storage": {
						"encoding": "bytes",
						"label": "string",
						"numberOfBytes": "32"
					},
					"t_uint256": {
						"encoding": "inplace",
						"label": "uint256",
						"numberOfBytes": "32"
					}
				}
			},
			"userdoc": {
				"kind": "user",
				"methods": {},
				"version": 1
			}
		}
	}
}