{
	"contracts/Wallet.sol": {
		"Wallet": {
			"abi": [
				{
					"inputs": [],
					"stateMutability": "nonpayable",
					"type": "constructor"
				},
				{
					"stateMutability": "nonpayable",
					"type": "fallback"
				},
				{
					"inputs": [],
					"name": "balance",
					"outputs": [
						{
							"internalType": "uint256",
							"name": "",
							"type": "uint256"
						}
					],
					"stateMutability": "view",
					"type": "function"
				},
				{
					"inputs": [],
					"name": "deposit",
					"outputs": [],
					"stateMutability": "payable",
					"type": "function"
				},
				{
					"inputs": [
						{
							"internalType": "uint256",
							"name": "amount",
							"type": "uint256"
						},
						{
							"internalType": "address",
							"name": "toAccount",
							"type": "address"
						}
					],
					"name": "withdrawToAccount",
					"outputs": [
						{
							"internalType": "string",
							"name": "",
							"type": "string"
						}
					],
					"stateMutability": "nonpayable",
					"type": "function"
				},
				{
					"inputs": [
						{
							"internalType": "uint256",
							"name": "amount",
							"type": "uint256"
						}
					],
					"name": "withdrawToCaller",
					"outputs": [
						{
							"internalType": "string",
							"name": "",
							"type": "string"
						}
					],
					"stateMutability": "nonpayable",
					"type": "function"
				},
				{
					"stateMutability": "payable",
					"type": "receive"
				}
			],
			"devdoc": {
				"kind": "dev",
				"methods": {},
				"version": 1
			},
			"evm": {
				"assembly": "    /* \"contracts/Wallet.sol\":61:1101  contract Wallet {... */\n  mstore(0x40, 0x80)\n    /* \"contracts/Wallet.sol\":114:178  constructor() {... */\n  callvalue\n  dup1\n  iszero\n  tag_1\n  jumpi\n  0x00\n  dup1\n  revert\ntag_1:\n  pop\n    /* \"contracts/Wallet.sol\":149:170  address(this).balance */\n  selfbalance\n    /* \"contracts/Wallet.sol\":139:146  balance */\n  0x00\n    /* \"contracts/Wallet.sol\":139:170  balance = address(this).balance */\n  dup2\n  swap1\n  sstore\n  pop\n    /* \"contracts/Wallet.sol\":61:1101  contract Wallet {... */\n  dataSize(sub_0)\n  dup1\n  dataOffset(sub_0)\n  0x00\n  codecopy\n  0x00\n  return\nstop\n\nsub_0: assembly {\n        /* \"contracts/Wallet.sol\":61:1101  contract Wallet {... */\n      mstore(0x40, 0x80)\n      jumpi(tag_1, lt(calldatasize, 0x04))\n      shr(0xe0, calldataload(0x00))\n      dup1\n      0xa49b5cb4\n      eq\n      tag_3\n      jumpi\n      dup1\n      0xb69ef8a8\n      eq\n      tag_4\n      jumpi\n      dup1\n      0xbd541302\n      eq\n      tag_5\n      jumpi\n      dup1\n      0xd0e30db0\n      eq\n      tag_6\n      jumpi\n      jump(tag_2)\n    tag_1:\n      jumpi(tag_2, calldatasize)\n        /* \"contracts/Wallet.sol\":1031:1040  msg.value */\n      callvalue\n        /* \"contracts/Wallet.sol\":1021:1028  balance */\n      sload(0x00)\n        /* \"contracts/Wallet.sol\":1021:1040  balance + msg.value */\n      tag_9\n      swap2\n      swap1\n      tag_10\n      jump\t// in\n    tag_9:\n        /* \"contracts/Wallet.sol\":1011:1018  balance */\n      0x00\n        /* \"contracts/Wallet.sol\":1011:1040  balance = balance + msg.value */\n      dup2\n      swap1\n      sstore\n      stop\n        /* \"contracts/Wallet.sol\":61:1101  contract Wallet {... */\n    tag_2:\n      callvalue\n      dup1\n      iszero\n      tag_11\n      jumpi\n      0x00\n      dup1\n      revert\n    tag_11:\n      stop\n        /* \"contracts/Wallet.sol\":530:885  function withdrawToAccount(uint amount, address toAccount) public returns(string memory){... */\n    tag_3:\n      callvalue\n      dup1\n      iszero\n      tag_14\n      jumpi\n      0x00\n      dup1\n      revert\n    tag_14:\n      pop\n      tag_15\n      0x04\n      dup1\n      calldatasize\n      sub\n      dup2\n      add\n      swap1\n      tag_16\n      swap2\n      swap1\n      tag_17\n      jump\t// in\n    tag_16:\n      tag_18\n      jump\t// in\n    tag_15:\n      mload(0x40)\n      tag_19\n      swap2\n      swap1\n      tag_20\n      jump\t// in\n    tag_19:\n      mload(0x40)\n      dup1\n      swap2\n      sub\n      swap1\n      return\n        /* \"contracts/Wallet.sol\":86:105  uint public balance */\n    tag_4:\n      callvalue\n      dup1\n      iszero\n      tag_21\n      jumpi\n      0x00\n      dup1\n      revert\n    tag_21:\n      pop\n      tag_22\n      tag_23\n      jump\t// in\n    tag_22:\n      mload(0x40)\n      tag_24\n      swap2\n      swap1\n      tag_25\n      jump\t// in\n    tag_24:\n      mload(0x40)\n      dup1\n      swap2\n      sub\n      swap1\n      return\n        /* \"contracts/Wallet.sol\":186:522  function withdrawToCaller(uint amount) public returns(string memory){... */\n    tag_5:\n      callvalue\n      dup1\n      iszero\n      tag_26\n      jumpi\n      0x00\n      dup1\n      revert\n    tag_26:\n      pop\n      tag_27\n      0x04\n      dup1\n      calldatasize\n      sub\n      dup2\n      add\n      swap1\n      tag_28\n      swap2\n      swap1\n      tag_29\n      jump\t// in\n    tag_28:\n      tag_30\n      jump\t// in\n    tag_27:\n      mload(0x40)\n      tag_31\n      swap2\n      swap1\n      tag_20\n      jump\t// in\n    tag_31:\n      mload(0x40)\n      dup1\n      swap2\n      sub\n      swap1\n      return\n        /* \"contracts/Wallet.sol\":893:965  function deposit() public payable{... */\n    tag_6:\n      tag_32\n      tag_33\n      jump\t// in\n    tag_32:\n      stop\n        /* \"contracts/Wallet.sol\":530:885  function withdrawToAccount(uint amount, address toAccount) public returns(string memory){... */\n    tag_18:\n        /* \"contracts/Wallet.sol\":604:617  string memory */\n      0x60\n        /* \"contracts/Wallet.sol\":642:649  balance */\n      sload(0x00)\n        /* \"contracts/Wallet.sol\":632:638  amount */\n      dup4\n        /* \"contracts/Wallet.sol\":632:649  amount <= balance */\n      gt\n        /* \"contracts/Wallet.sol\":629:878  if(amount <= balance){... */\n      tag_35\n      jumpi\n        /* \"contracts/Wallet.sol\":673:682  toAccount */\n      dup2\n        /* \"contracts/Wallet.sol\":665:692  payable(toAccount).transfer */\n      0xffffffffffffffffffffffffffffffffffffffff\n      and\n        /* \"contracts/Wallet.sol\":665:700  payable(toAccount).transfer(amount) */\n      0x08fc\n        /* \"contracts/Wallet.sol\":693:699  amount */\n      dup5\n        /* \"contracts/Wallet.sol\":665:700  payable(toAccount).transfer(amount) */\n      swap1\n      dup2\n      iszero\n      mul\n      swap1\n      mload(0x40)\n      0x00\n      mload(0x40)\n      dup1\n      dup4\n      sub\n      dup2\n      dup6\n      dup9\n      dup9\n      call\n      swap4\n      pop\n      pop\n      pop\n      pop\n      iszero\n      dup1\n      iszero\n      tag_37\n      jumpi\n      returndatasize\n      0x00\n      dup1\n      returndatacopy\n      revert(0x00, returndatasize)\n    tag_37:\n      pop\n        /* \"contracts/Wallet.sol\":735:741  amount */\n      dup3\n        /* \"contracts/Wallet.sol\":725:732  balance */\n      sload(0x00)\n        /* \"contracts/Wallet.sol\":725:741  balance - amount */\n      tag_38\n      swap2\n      swap1\n      tag_39\n      jump\t// in\n    tag_38:\n        /* \"contracts/Wallet.sol\":715:722  balance */\n      0x00\n        /* \"contracts/Wallet.sol\":715:741  balance = balance - amount */\n      dup2\n      swap1\n      sstore\n      pop\n        /* \"contracts/Wallet.sol\":756:775  return \"successful\" */\n      mload(0x40)\n      dup1\n      0x40\n      add\n      0x40\n      mstore\n      dup1\n      0x0a\n      dup2\n      mstore\n      0x20\n      add\n      0x7375636365737366756c00000000000000000000000000000000000000000000\n      dup2\n      mstore\n      pop\n      swap1\n      pop\n      jump(tag_34)\n        /* \"contracts/Wallet.sol\":629:878  if(amount <= balance){... */\n    tag_35:\n        /* \"contracts/Wallet.sol\":806:866  return \"Withdrawal Amount is greater than available balance\" */\n      mload(0x40)\n      dup1\n      0x60\n      add\n      0x40\n      mstore\n      dup1\n      0x33\n      dup2\n      mstore\n      0x20\n      add\n      data_80c367fa0334f4707e13a2b6d59b807a4b5f1471370152f221d22caaded61bff\n      0x33\n      swap2\n      codecopy\n      swap1\n      pop\n        /* \"contracts/Wallet.sol\":530:885  function withdrawToAccount(uint amount, address toAccount) public returns(string memory){... */\n    tag_34:\n      swap3\n      swap2\n      pop\n      pop\n      jump\t// out\n        /* \"contracts/Wallet.sol\":86:105  uint public balance */\n    tag_23:\n      sload(0x00)\n      dup2\n      jump\t// out\n        /* \"contracts/Wallet.sol\":186:522  function withdrawToCaller(uint amount) public returns(string memory){... */\n    tag_30:\n        /* \"contracts/Wallet.sol\":240:253  string memory */\n      0x60\n        /* \"contracts/Wallet.sol\":278:285  balance */\n      sload(0x00)\n        /* \"contracts/Wallet.sol\":268:274  amount */\n      dup3\n        /* \"contracts/Wallet.sol\":268:285  amount <= balance */\n      gt\n        /* \"contracts/Wallet.sol\":265:515  if(amount <= balance){... */\n      tag_42\n      jumpi\n        /* \"contracts/Wallet.sol\":309:319  msg.sender */\n      caller\n        /* \"contracts/Wallet.sol\":301:329  payable(msg.sender).transfer */\n      0xffffffffffffffffffffffffffffffffffffffff\n      and\n        /* \"contracts/Wallet.sol\":301:337  payable(msg.sender).transfer(amount) */\n      0x08fc\n        /* \"contracts/Wallet.sol\":330:336  amount */\n      dup4\n        /* \"contracts/Wallet.sol\":301:337  payable(msg.sender).transfer(amount) */\n      swap1\n      dup2\n      iszero\n      mul\n      swap1\n      mload(0x40)\n      0x00\n      mload(0x40)\n      dup1\n      dup4\n      sub\n      dup2\n      dup6\n      dup9\n      dup9\n      call\n      swap4\n      pop\n      pop\n      pop\n      pop\n      iszero\n      dup1\n      iszero\n      tag_44\n      jumpi\n      returndatasize\n      0x00\n      dup1\n      returndatacopy\n      revert(0x00, returndatasize)\n    tag_44:\n      pop\n        /* \"contracts/Wallet.sol\":372:378  amount */\n      dup2\n        /* \"contracts/Wallet.sol\":362:369  balance */\n      sload(0x00)\n        /* \"contracts/Wallet.sol\":362:378  balance - amount */\n      tag_45\n      swap2\n      swap1\n      tag_39\n      jump\t// in\n    tag_45:\n        /* \"contracts/Wallet.sol\":352:359  balance */\n      0x00\n        /* \"contracts/Wallet.sol\":352:378  balance = balance - amount */\n      dup2\n      swap1\n      sstore\n      pop\n        /* \"contracts/Wallet.sol\":393:412  return \"successful\" */\n      mload(0x40)\n      dup1\n      0x40\n      add\n      0x40\n      mstore\n      dup1\n      0x0a\n      dup2\n      mstore\n      0x20\n      add\n      0x7375636365737366756c00000000000000000000000000000000000000000000\n      dup2\n      mstore\n      pop\n      swap1\n      pop\n      jump(tag_41)\n        /* \"contracts/Wallet.sol\":265:515  if(amount <= balance){... */\n    tag_42:\n        /* \"contracts/Wallet.sol\":443:503  return \"Withdrawal Amount is greater than available balance\" */\n      mload(0x40)\n      dup1\n      0x60\n      add\n      0x40\n      mstore\n      dup1\n      0x33\n      dup2\n      mstore\n      0x20\n      add\n      data_80c367fa0334f4707e13a2b6d59b807a4b5f1471370152f221d22caaded61bff\n      0x33\n      swap2\n      codecopy\n      swap1\n      pop\n        /* \"contracts/Wallet.sol\":186:522  function withdrawToCaller(uint amount) public returns(string memory){... */\n    tag_41:\n      swap2\n      swap1\n      pop\n      jump\t// out\n        /* \"contracts/Wallet.sol\":893:965  function deposit() public payable{... */\n    tag_33:\n        /* \"contracts/Wallet.sol\":948:957  msg.value */\n      callvalue\n        /* \"contracts/Wallet.sol\":937:944  balance */\n      0x00\n      dup1\n        /* \"contracts/Wallet.sol\":937:957  balance += msg.value */\n      dup3\n      dup3\n      sload\n      tag_48\n      swap2\n      swap1\n      tag_10\n      jump\t// in\n    tag_48:\n      swap3\n      pop\n      pop\n      dup2\n      swap1\n      sstore\n      pop\n        /* \"contracts/Wallet.sol\":893:965  function deposit() public payable{... */\n      jump\t// out\n        /* \"#utility.yul\":7:84   */\n    tag_49:\n        /* \"#utility.yul\":44:51   */\n      0x00\n        /* \"#utility.yul\":73:78   */\n      dup2\n        /* \"#utility.yul\":62:78   */\n      swap1\n      pop\n        /* \"#utility.yul\":7:84   */\n      swap2\n      swap1\n      pop\n      jump\t// out\n        /* \"#utility.yul\":90:270   */\n    tag_50:\n        /* \"#utility.yul\":138:215   */\n      0x4e487b7100000000000000000000000000000000000000000000000000000000\n        /* \"#utility.yul\":135:136   */\n      0x00\n        /* \"#utility.yul\":128:216   */\n      mstore\n        /* \"#utility.yul\":235:239   */\n      0x11\n        /* \"#utility.yul\":232:233   */\n      0x04\n        /* \"#utility.yul\":225:240   */\n      mstore\n        /* \"#utility.yul\":259:263   */\n      0x24\n        /* \"#utility.yul\":256:257   */\n      0x00\n        /* \"#utility.yul\":249:264   */\n      revert\n        /* \"#utility.yul\":276:581   */\n    tag_10:\n        /* \"#utility.yul\":316:319   */\n      0x00\n        /* \"#utility.yul\":335:355   */\n      tag_70\n        /* \"#utility.yul\":353:354   */\n      dup3\n        /* \"#utility.yul\":335:355   */\n      tag_49\n      jump\t// in\n    tag_70:\n        /* \"#utility.yul\":330:355   */\n      swap2\n      pop\n        /* \"#utility.yul\":369:389   */\n      tag_71\n        /* \"#utility.yul\":387:388   */\n      dup4\n        /* \"#utility.yul\":369:389   */\n      tag_49\n      jump\t// in\n    tag_71:\n        /* \"#utility.yul\":364:389   */\n      swap3\n      pop\n        /* \"#utility.yul\":523:524   */\n      dup3\n        /* \"#utility.yul\":455:521   */\n      0xffffffffffffffffffffffffffffffffffffffffffffffffffffffffffffffff\n        /* \"#utility.yul\":451:525   */\n      sub\n        /* \"#utility.yul\":448:449   */\n      dup3\n        /* \"#utility.yul\":445:526   */\n      gt\n        /* \"#utility.yul\":442:549   */\n      iszero\n      tag_72\n      jumpi\n        /* \"#utility.yul\":529:547   */\n      tag_73\n      tag_50\n      jump\t// in\n    tag_73:\n        /* \"#utility.yul\":442:549   */\n    tag_72:\n        /* \"#utility.yul\":573:574   */\n      dup3\n        /* \"#utility.yul\":570:571   */\n      dup3\n        /* \"#utility.yul\":566:575   */\n      add\n        /* \"#utility.yul\":559:575   */\n      swap1\n      pop\n        /* \"#utility.yul\":276:581   */\n      swap3\n      swap2\n      pop\n      pop\n      jump\t// out\n        /* \"#utility.yul\":668:785   */\n    tag_52:\n        /* \"#utility.yul\":777:778   */\n      0x00\n        /* \"#utility.yul\":774:775   */\n      dup1\n        /* \"#utility.yul\":767:779   */\n      revert\n        /* \"#utility.yul\":914:1036   */\n    tag_54:\n        /* \"#utility.yul\":987:1011   */\n      tag_78\n        /* \"#utility.yul\":1005:1010   */\n      dup2\n        /* \"#utility.yul\":987:1011   */\n      tag_49\n      jump\t// in\n    tag_78:\n        /* \"#utility.yul\":980:985   */\n      dup2\n        /* \"#utility.yul\":977:1012   */\n      eq\n        /* \"#utility.yul\":967:1030   */\n      tag_79\n      jumpi\n        /* \"#utility.yul\":1026:1027   */\n      0x00\n        /* \"#utility.yul\":1023:1024   */\n      dup1\n        /* \"#utility.yul\":1016:1028   */\n      revert\n        /* \"#utility.yul\":967:1030   */\n    tag_79:\n        /* \"#utility.yul\":914:1036   */\n      pop\n      jump\t// out\n        /* \"#utility.yul\":1042:1181   */\n    tag_55:\n        /* \"#utility.yul\":1088:1093   */\n      0x00\n        /* \"#utility.yul\":1126:1132   */\n      dup2\n        /* \"#utility.yul\":1113:1133   */\n      calldataload\n        /* \"#utility.yul\":1104:1133   */\n      swap1\n      pop\n        /* \"#utility.yul\":1142:1175   */\n      tag_81\n        /* \"#utility.yul\":1169:1174   */\n      dup2\n        /* \"#utility.yul\":1142:1175   */\n      tag_54\n      jump\t// in\n    tag_81:\n        /* \"#utility.yul\":1042:1181   */\n      swap3\n      swap2\n      pop\n      pop\n      jump\t// out\n        /* \"#utility.yul\":1187:1313   */\n    tag_56:\n        /* \"#utility.yul\":1224:1231   */\n      0x00\n        /* \"#utility.yul\":1264:1306   */\n      0xffffffffffffffffffffffffffffffffffffffff\n        /* \"#utility.yul\":1257:1262   */\n      dup3\n        /* \"#utility.yul\":1253:1307   */\n      and\n        /* \"#utility.yul\":1242:1307   */\n      swap1\n      pop\n        /* \"#utility.yul\":1187:1313   */\n      swap2\n      swap1\n      pop\n      jump\t// out\n        /* \"#utility.yul\":1319:1415   */\n    tag_57:\n        /* \"#utility.yul\":1356:1363   */\n      0x00\n        /* \"#utility.yul\":1385:1409   */\n      tag_84\n        /* \"#utility.yul\":1403:1408   */\n      dup3\n        /* \"#utility.yul\":1385:1409   */\n      tag_56\n      jump\t// in\n    tag_84:\n        /* \"#utility.yul\":1374:1409   */\n      swap1\n      pop\n        /* \"#utility.yul\":1319:1415   */\n      swap2\n      swap1\n      pop\n      jump\t// out\n        /* \"#utility.yul\":1421:1543   */\n    tag_58:\n        /* \"#utility.yul\":1494:1518   */\n      tag_86\n        /* \"#utility.yul\":1512:1517   */\n      dup2\n        /* \"#utility.yul\":1494:1518   */\n      tag_57\n      jump\t// in\n    tag_86:\n        /* \"#utility.yul\":1487:1492   */\n      dup2\n        /* \"#utility.yul\":1484:1519   */\n      eq\n        /* \"#utility.yul\":1474:1537   */\n      tag_87\n      jumpi\n        /* \"#utility.yul\":1533:1534   */\n      0x00\n        /* \"#utility.yul\":1530:1531   */\n      dup1\n        /* \"#utility.yul\":1523:1535   */\n      revert\n        /* \"#utility.yul\":1474:1537   */\n    tag_87:\n        /* \"#utility.yul\":1421:1543   */\n      pop\n      jump\t// out\n        /* \"#utility.yul\":1549:1688   */\n    tag_59:\n        /* \"#utility.yul\":1595:1600   */\n      0x00\n        /* \"#utility.yul\":1633:1639   */\n      dup2\n        /* \"#utility.yul\":1620:1640   */\n      calldataload\n        /* \"#utility.yul\":1611:1640   */\n      swap1\n      pop\n        /* \"#utility.yul\":1649:1682   */\n      tag_89\n        /* \"#utility.yul\":1676:1681   */\n      dup2\n        /* \"#utility.yul\":1649:1682   */\n      tag_58\n      jump\t// in\n    tag_89:\n        /* \"#utility.yul\":1549:1688   */\n      swap3\n      swap2\n      pop\n      pop\n      jump\t// out\n        /* \"#utility.yul\":1694:2168   */\n    tag_17:\n        /* \"#utility.yul\":1762:1768   */\n      0x00\n        /* \"#utility.yul\":1770:1776   */\n      dup1\n        /* \"#utility.yul\":1819:1821   */\n      0x40\n        /* \"#utility.yul\":1807:1816   */\n      dup4\n        /* \"#utility.yul\":1798:1805   */\n      dup6\n        /* \"#utility.yul\":1794:1817   */\n      sub\n        /* \"#utility.yul\":1790:1822   */\n      slt\n        /* \"#utility.yul\":1787:1906   */\n      iszero\n      tag_91\n      jumpi\n        /* \"#utility.yul\":1825:1904   */\n      tag_92\n      tag_52\n      jump\t// in\n    tag_92:\n        /* \"#utility.yul\":1787:1906   */\n    tag_91:\n        /* \"#utility.yul\":1945:1946   */\n      0x00\n        /* \"#utility.yul\":1970:2023   */\n      tag_93\n        /* \"#utility.yul\":2015:2022   */\n      dup6\n        /* \"#utility.yul\":2006:2012   */\n      dup3\n        /* \"#utility.yul\":1995:2004   */\n      dup7\n        /* \"#utility.yul\":1991:2013   */\n      add\n        /* \"#utility.yul\":1970:2023   */\n      tag_55\n      jump\t// in\n    tag_93:\n        /* \"#utility.yul\":1960:2023   */\n      swap3\n      pop\n        /* \"#utility.yul\":1916:2033   */\n      pop\n        /* \"#utility.yul\":2072:2074   */\n      0x20\n        /* \"#utility.yul\":2098:2151   */\n      tag_94\n        /* \"#utility.yul\":2143:2150   */\n      dup6\n        /* \"#utility.yul\":2134:2140   */\n      dup3\n        /* \"#utility.yul\":2123:2132   */\n      dup7\n        /* \"#utility.yul\":2119:2141   */\n      add\n        /* \"#utility.yul\":2098:2151   */\n      tag_59\n      jump\t// in\n    tag_94:\n        /* \"#utility.yul\":2088:2151   */\n      swap2\n      pop\n        /* \"#utility.yul\":2043:2161   */\n      pop\n        /* \"#utility.yul\":1694:2168   */\n      swap3\n      pop\n      swap3\n      swap1\n      pop\n      jump\t// out\n        /* \"#utility.yul\":2174:2273   */\n    tag_60:\n        /* \"#utility.yul\":2226:2232   */\n      0x00\n        /* \"#utility.yul\":2260:2265   */\n      dup2\n        /* \"#utility.yul\":2254:2266   */\n      mload\n        /* \"#utility.yul\":2244:2266   */\n      swap1\n      pop\n        /* \"#utility.yul\":2174:2273   */\n      swap2\n      swap1\n      pop\n      jump\t// out\n        /* \"#utility.yul\":2279:2448   */\n    tag_61:\n        /* \"#utility.yul\":2363:2374   */\n      0x00\n        /* \"#utility.yul\":2397:2403   */\n      dup3\n        /* \"#utility.yul\":2392:2395   */\n      dup3\n        /* \"#utility.yul\":2385:2404   */\n      mstore\n        /* \"#utility.yul\":2437:2441   */\n      0x20\n        /* \"#utility.yul\":2432:2435   */\n      dup3\n        /* \"#utility.yul\":2428:2442   */\n      add\n        /* \"#utility.yul\":2413:2442   */\n      swap1\n      pop\n        /* \"#utility.yul\":2279:2448   */\n      swap3\n      swap2\n      pop\n      pop\n      jump\t// out\n        /* \"#utility.yul\":2454:2761   */\n    tag_62:\n        /* \"#utility.yul\":2522:2523   */\n      0x00\n        /* \"#utility.yul\":2532:2645   */\n    tag_98:\n        /* \"#utility.yul\":2546:2552   */\n      dup4\n        /* \"#utility.yul\":2543:2544   */\n      dup2\n        /* \"#utility.yul\":2540:2553   */\n      lt\n        /* \"#utility.yul\":2532:2645   */\n      iszero\n      tag_100\n      jumpi\n        /* \"#utility.yul\":2631:2632   */\n      dup1\n        /* \"#utility.yul\":2626:2629   */\n      dup3\n        /* \"#utility.yul\":2622:2633   */\n      add\n        /* \"#utility.yul\":2616:2634   */\n      mload\n        /* \"#utility.yul\":2612:2613   */\n      dup2\n        /* \"#utility.yul\":2607:2610   */\n      dup5\n        /* \"#utility.yul\":2603:2614   */\n      add\n        /* \"#utility.yul\":2596:2635   */\n      mstore\n        /* \"#utility.yul\":2568:2570   */\n      0x20\n        /* \"#utility.yul\":2565:2566   */\n      dup2\n        /* \"#utility.yul\":2561:2571   */\n      add\n        /* \"#utility.yul\":2556:2571   */\n      swap1\n      pop\n        /* \"#utility.yul\":2532:2645   */\n      jump(tag_98)\n    tag_100:\n        /* \"#utility.yul\":2663:2669   */\n      dup4\n        /* \"#utility.yul\":2660:2661   */\n      dup2\n        /* \"#utility.yul\":2657:2670   */\n      gt\n        /* \"#utility.yul\":2654:2755   */\n      iszero\n      tag_101\n      jumpi\n        /* \"#utility.yul\":2743:2744   */\n      0x00\n        /* \"#utility.yul\":2734:2740   */\n      dup5\n        /* \"#utility.yul\":2729:2732   */\n      dup5\n        /* \"#utility.yul\":2725:2741   */\n      add\n        /* \"#utility.yul\":2718:2745   */\n      mstore\n        /* \"#utility.yul\":2654:2755   */\n    tag_101:\n        /* \"#utility.yul\":2503:2761   */\n      pop\n        /* \"#utility.yul\":2454:2761   */\n      pop\n      pop\n      pop\n      jump\t// out\n        /* \"#utility.yul\":2767:2869   */\n    tag_63:\n        /* \"#utility.yul\":2808:2814   */\n      0x00\n        /* \"#utility.yul\":2859:2861   */\n      0x1f\n        /* \"#utility.yul\":2855:2862   */\n      not\n        /* \"#utility.yul\":2850:2852   */\n      0x1f\n        /* \"#utility.yul\":2843:2848   */\n      dup4\n        /* \"#utility.yul\":2839:2853   */\n      add\n        /* \"#utility.yul\":2835:2863   */\n      and\n        /* \"#utility.yul\":2825:2863   */\n      swap1\n      pop\n        /* \"#utility.yul\":2767:2869   */\n      swap2\n      swap1\n      pop\n      jump\t// out\n        /* \"#utility.yul\":2875:3239   */\n    tag_64:\n        /* \"#utility.yul\":2963:2966   */\n      0x00\n        /* \"#utility.yul\":2991:3030   */\n      tag_104\n        /* \"#utility.yul\":3024:3029   */\n      dup3\n        /* \"#utility.yul\":2991:3030   */\n      tag_60\n      jump\t// in\n    tag_104:\n        /* \"#utility.yul\":3046:3117   */\n      tag_105\n        /* \"#utility.yul\":3110:3116   */\n      dup2\n        /* \"#utility.yul\":3105:3108   */\n      dup6\n        /* \"#utility.yul\":3046:3117   */\n      tag_61\n      jump\t// in\n    tag_105:\n        /* \"#utility.yul\":3039:3117   */\n      swap4\n      pop\n        /* \"#utility.yul\":3126:3178   */\n      tag_106\n        /* \"#utility.yul\":3171:3177   */\n      dup2\n        /* \"#utility.yul\":3166:3169   */\n      dup6\n        /* \"#utility.yul\":3159:3163   */\n      0x20\n        /* \"#utility.yul\":3152:3157   */\n      dup7\n        /* \"#utility.yul\":3148:3164   */\n      add\n        /* \"#utility.yul\":3126:3178   */\n      tag_62\n      jump\t// in\n    tag_106:\n        /* \"#utility.yul\":3203:3232   */\n      tag_107\n        /* \"#utility.yul\":3225:3231   */\n      dup2\n        /* \"#utility.yul\":3203:3232   */\n      tag_63\n      jump\t// in\n    tag_107:\n        /* \"#utility.yul\":3198:3201   */\n      dup5\n        /* \"#utility.yul\":3194:3233   */\n      add\n        /* \"#utility.yul\":3187:3233   */\n      swap2\n      pop\n        /* \"#utility.yul\":2967:3239   */\n      pop\n        /* \"#utility.yul\":2875:3239   */\n      swap3\n      swap2\n      pop\n      pop\n      jump\t// out\n        /* \"#utility.yul\":3245:3558   */\n    tag_20:\n        /* \"#utility.yul\":3358:3362   */\n      0x00\n        /* \"#utility.yul\":3396:3398   */\n      0x20\n        /* \"#utility.yul\":3385:3394   */\n      dup3\n        /* \"#utility.yul\":3381:3399   */\n      add\n        /* \"#utility.yul\":3373:3399   */\n      swap1\n      pop\n        /* \"#utility.yul\":3445:3454   */\n      dup2\n        /* \"#utility.yul\":3439:3443   */\n      dup2\n        /* \"#utility.yul\":3435:3455   */\n      sub\n        /* \"#utility.yul\":3431:3432   */\n      0x00\n        /* \"#utility.yul\":3420:3429   */\n      dup4\n        /* \"#utility.yul\":3416:3433   */\n      add\n        /* \"#utility.yul\":3409:3456   */\n      mstore\n        /* \"#utility.yul\":3473:3551   */\n      tag_109\n        /* \"#utility.yul\":3546:3550   */\n      dup2\n        /* \"#utility.yul\":3537:3543   */\n      dup5\n        /* \"#utility.yul\":3473:3551   */\n      tag_64\n      jump\t// in\n    tag_109:\n        /* \"#utility.yul\":3465:3551   */\n      swap1\n      pop\n        /* \"#utility.yul\":3245:3558   */\n      swap3\n      swap2\n      pop\n      pop\n      jump\t// out\n        /* \"#utility.yul\":3564:3682   */\n    tag_65:\n        /* \"#utility.yul\":3651:3675   */\n      tag_111\n        /* \"#utility.yul\":3669:3674   */\n      dup2\n        /* \"#utility.yul\":3651:3675   */\n      tag_49\n      jump\t// in\n    tag_111:\n        /* \"#utility.yul\":3646:3649   */\n      dup3\n        /* \"#utility.yul\":3639:3676   */\n      mstore\n        /* \"#utility.yul\":3564:3682   */\n      pop\n      pop\n      jump\t// out\n        /* \"#utility.yul\":3688:3910   */\n    tag_25:\n        /* \"#utility.yul\":3781:3785   */\n      0x00\n        /* \"#utility.yul\":3819:3821   */\n      0x20\n        /* \"#utility.yul\":3808:3817   */\n      dup3\n        /* \"#utility.yul\":3804:3822   */\n      add\n        /* \"#utility.yul\":3796:3822   */\n      swap1\n      pop\n        /* \"#utility.yul\":3832:3903   */\n      tag_113\n        /* \"#utility.yul\":3900:3901   */\n      0x00\n        /* \"#utility.yul\":3889:3898   */\n      dup4\n        /* \"#utility.yul\":3885:3902   */\n      add\n        /* \"#utility.yul\":3876:3882   */\n      dup5\n        /* \"#utility.yul\":3832:3903   */\n      tag_65\n      jump\t// in\n    tag_113:\n        /* \"#utility.yul\":3688:3910   */\n      swap3\n      swap2\n      pop\n      pop\n      jump\t// out\n        /* \"#utility.yul\":3916:4245   */\n    tag_29:\n        /* \"#utility.yul\":3975:3981   */\n      0x00\n        /* \"#utility.yul\":4024:4026   */\n      0x20\n        /* \"#utility.yul\":4012:4021   */\n      dup3\n        /* \"#utility.yul\":4003:4010   */\n      dup5\n        /* \"#utility.yul\":3999:4022   */\n      sub\n        /* \"#utility.yul\":3995:4027   */\n      slt\n        /* \"#utility.yul\":3992:4111   */\n      iszero\n      tag_115\n      jumpi\n        /* \"#utility.yul\":4030:4109   */\n      tag_116\n      tag_52\n      jump\t// in\n    tag_116:\n        /* \"#utility.yul\":3992:4111   */\n    tag_115:\n        /* \"#utility.yul\":4150:4151   */\n      0x00\n        /* \"#utility.yul\":4175:4228   */\n      tag_117\n        /* \"#utility.yul\":4220:4227   */\n      dup5\n        /* \"#utility.yul\":4211:4217   */\n      dup3\n        /* \"#utility.yul\":4200:4209   */\n      dup6\n        /* \"#utility.yul\":4196:4218   */\n      add\n        /* \"#utility.yul\":4175:4228   */\n      tag_55\n      jump\t// in\n    tag_117:\n        /* \"#utility.yul\":4165:4228   */\n      swap2\n      pop\n        /* \"#utility.yul\":4121:4238   */\n      pop\n        /* \"#utility.yul\":3916:4245   */\n      swap3\n      swap2\n      pop\n      pop\n      jump\t// out\n        /* \"#utility.yul\":4251:4442   */\n    tag_39:\n        /* \"#utility.yul\":4291:4295   */\n      0x00\n        /* \"#utility.yul\":4311:4331   */\n      tag_119\n        /* \"#utility.yul\":4329:4330   */\n      dup3\n        /* \"#utility.yul\":4311:4331   */\n      tag_49\n      jump\t// in\n    tag_119:\n        /* \"#utility.yul\":4306:4331   */\n      swap2\n      pop\n        /* \"#utility.yul\":4345:4365   */\n      tag_120\n        /* \"#utility.yul\":4363:4364   */\n      dup4\n        /* \"#utility.yul\":4345:4365   */\n      tag_49\n      jump\t// in\n    tag_120:\n        /* \"#utility.yul\":4340:4365   */\n      swap3\n      pop\n        /* \"#utility.yul\":4384:4385   */\n      dup3\n        /* \"#utility.yul\":4381:4382   */\n      dup3\n        /* \"#utility.yul\":4378:4386   */\n      lt\n        /* \"#utility.yul\":4375:4409   */\n      iszero\n      tag_121\n      jumpi\n        /* \"#utility.yul\":4389:4407   */\n      tag_122\n      tag_50\n      jump\t// in\n    tag_122:\n        /* \"#utility.yul\":4375:4409   */\n    tag_121:\n        /* \"#utility.yul\":4434:4435   */\n      dup3\n        /* \"#utility.yul\":4431:4432   */\n      dup3\n        /* \"#utility.yul\":4427:4436   */\n      sub\n        /* \"#utility.yul\":4419:4436   */\n      swap1\n      pop\n        /* \"#utility.yul\":4251:4442   */\n      swap3\n      swap2\n      pop\n      pop\n      jump\t// out\n    stop\n    data_80c367fa0334f4707e13a2b6d59b807a4b5f1471370152f221d22caaded61bff 5769746864726177616c20416d6f756e742069732067726561746572207468616e20617661696c61626c652062616c616e6365\n\n    auxdata: 0xa26469706673582212206771668c2a5039bc84134a7499613fe7a9d0add04aa701640613f72a04d7d97464736f6c634300080f0033\n}\n",
				"bytecode": {
					"linkReferences": {},
					"object": "608060405234801561001057600080fd5b50476000819055506105d0806100276000396000f3fe6080604052600436106100435760003560e01c8063a49b5cb41461006b578063b69ef8a8146100a8578063bd541302146100d3578063d0e30db0146101105761005d565b3661005d573460005461005691906102fc565b6000819055005b34801561006957600080fd5b005b34801561007757600080fd5b50610092600480360381019061008d91906103e1565b61011a565b60405161009f91906104ba565b60405180910390f35b3480156100b457600080fd5b506100bd6101df565b6040516100ca91906104eb565b60405180910390f35b3480156100df57600080fd5b506100fa60048036038101906100f59190610506565b6101e5565b60405161010791906104ba565b60405180910390f35b6101186102a9565b005b606060005483116101bd578173ffffffffffffffffffffffffffffffffffffffff166108fc849081150290604051600060405180830381858888f1935050505015801561016b573d6000803e3d6000fd5b508260005461017a9190610533565b6000819055506040518060400160405280600a81526020017f7375636365737366756c0000000000000000000000000000000000000000000081525090506101d9565b6040518060600160405280603381526020016105686033913990505b92915050565b60005481565b60606000548211610288573373ffffffffffffffffffffffffffffffffffffffff166108fc839081150290604051600060405180830381858888f19350505050158015610236573d6000803e3d6000fd5b50816000546102459190610533565b6000819055506040518060400160405280600a81526020017f7375636365737366756c0000000000000000000000000000000000000000000081525090506102a4565b6040518060600160405280603381526020016105686033913990505b919050565b346000808282546102ba91906102fc565b92505081905550565b6000819050919050565b7f4e487b7100000000000000000000000000000000000000000000000000000000600052601160045260246000fd5b6000610307826102c3565b9150610312836102c3565b9250827fffffffffffffffffffffffffffffffffffffffffffffffffffffffffffffffff03821115610347576103466102cd565b5b828201905092915050565b600080fd5b610360816102c3565b811461036b57600080fd5b50565b60008135905061037d81610357565b92915050565b600073ffffffffffffffffffffffffffffffffffffffff82169050919050565b60006103ae82610383565b9050919050565b6103be816103a3565b81146103c957600080fd5b50565b6000813590506103db816103b5565b92915050565b600080604083850312156103f8576103f7610352565b5b60006104068582860161036e565b9250506020610417858286016103cc565b9150509250929050565b600081519050919050565b600082825260208201905092915050565b60005b8381101561045b578082015181840152602081019050610440565b8381111561046a576000848401525b50505050565b6000601f19601f8301169050919050565b600061048c82610421565b610496818561042c565b93506104a681856020860161043d565b6104af81610470565b840191505092915050565b600060208201905081810360008301526104d48184610481565b905092915050565b6104e5816102c3565b82525050565b600060208201905061050060008301846104dc565b92915050565b60006020828403121561051c5761051b610352565b5b600061052a8482850161036e565b91505092915050565b600061053e826102c3565b9150610549836102c3565b92508282101561055c5761055b6102cd565b5b82820390509291505056fe5769746864726177616c20416d6f756e742069732067726561746572207468616e20617661696c61626c652062616c616e6365a26469706673582212206771668c2a5039bc84134a7499613fe7a9d0add04aa701640613f72a04d7d97464736f6c634300080f0033",
					"opcodes": "PUSH1 0x80 PUSH1 0x40 MSTORE CALLVALUE DUP1 ISZERO PUSH2 0x10 JUMPI PUSH1 0x0 DUP1 REVERT JUMPDEST POP SELFBALANCE PUSH1 0x0 DUP2 SWAP1 SSTORE POP PUSH2 0x5D0 DUP1 PUSH2 0x27 PUSH1 0x0 CODECOPY PUSH1 0x0 RETURN INVALID PUSH1 0x80 PUSH1 0x40 MSTORE PUSH1 0x4 CALLDATASIZE LT PUSH2 0x43 JUMPI PUSH1 0x0 CALLDATALOAD PUSH1 0xE0 SHR DUP1 PUSH4 0xA49B5CB4 EQ PUSH2 0x6B JUMPI DUP1 PUSH4 0xB69EF8A8 EQ PUSH2 0xA8 JUMPI DUP1 PUSH4 0xBD541302 EQ PUSH2 0xD3 JUMPI DUP1 PUSH4 0xD0E30DB0 EQ PUSH2 0x110 JUMPI PUSH2 0x5D JUMP JUMPDEST CALLDATASIZE PUSH2 0x5D JUMPI CALLVALUE PUSH1 0x0 SLOAD PUSH2 0x56 SWAP2 SWAP1 PUSH2 0x2FC JUMP JUMPDEST PUSH1 0x0 DUP2 SWAP1 SSTORE STOP JUMPDEST CALLVALUE DUP1 ISZERO PUSH2 0x69 JUMPI PUSH1 0x0 DUP1 REVERT JUMPDEST STOP JUMPDEST CALLVALUE DUP1 ISZERO PUSH2 0x77 JUMPI PUSH1 0x0 DUP1 REVERT JUMPDEST POP PUSH2 0x92 PUSH1 0x4 DUP1 CALLDATASIZE SUB DUP2 ADD SWAP1 PUSH2 0x8D SWAP2 SWAP1 PUSH2 0x3E1 JUMP JUMPDEST PUSH2 0x11A JUMP JUMPDEST PUSH1 0x40 MLOAD PUSH2 0x9F SWAP2 SWAP1 PUSH2 0x4BA JUMP JUMPDEST PUSH1 0x40 MLOAD DUP1 SWAP2 SUB SWAP1 RETURN JUMPDEST CALLVALUE DUP1 ISZERO PUSH2 0xB4 JUMPI PUSH1 0x0 DUP1 REVERT JUMPDEST POP PUSH2 0xBD PUSH2 0x1DF JUMP JUMPDEST PUSH1 0x40 MLOAD PUSH2 0xCA SWAP2 SWAP1 PUSH2 0x4EB JUMP JUMPDEST PUSH1 0x40 MLOAD DUP1 SWAP2 SUB SWAP1 RETURN JUMPDEST CALLVALUE DUP1 ISZERO PUSH2 0xDF JUMPI PUSH1 0x0 DUP1 REVERT JUMPDEST POP PUSH2 0xFA PUSH1 0x4 DUP1 CALLDATASIZE SUB DUP2 ADD SWAP1 PUSH2 0xF5 SWAP2 SWAP1 PUSH2 0x506 JUMP JUMPDEST PUSH2 0x1E5 JUMP JUMPDEST PUSH1 0x40 MLOAD PUSH2 0x107 SWAP2 SWAP1 PUSH2 0x4BA JUMP JUMPDEST PUSH1 0x40 MLOAD DUP1 SWAP2 SUB SWAP1 RETURN JUMPDEST PUSH2 0x118 PUSH2 0x2A9 JUMP JUMPDEST STOP JUMPDEST PUSH1 0x60 PUSH1 0x0 SLOAD DUP4 GT PUSH2 0x1BD JUMPI DUP2 PUSH20 0xFFFFFFFFFFFFFFFFFFFFFFFFFFFFFFFFFFFFFFFF AND PUSH2 0x8FC DUP5 SWAP1 DUP2 ISZERO MUL SWAP1 PUSH1 0x40 MLOAD PUSH1 0x0 PUSH1 0x40 MLOAD DUP1 DUP4 SUB DUP2 DUP6 DUP9 DUP9 CALL SWAP4 POP POP POP POP ISZERO DUP1 ISZERO PUSH2 0x16B JUMPI RETURNDATASIZE PUSH1 0x0 DUP1 RETURNDATACOPY RETURNDATASIZE PUSH1 0x0 REVERT JUMPDEST POP DUP3 PUSH1 0x0 SLOAD PUSH2 0x17A SWAP2 SWAP1 PUSH2 0x533 JUMP JUMPDEST PUSH1 0x0 DUP2 SWAP1 SSTORE POP PUSH1 0x40 MLOAD DUP1 PUSH1 0x40 ADD PUSH1 0x40 MSTORE DUP1 PUSH1 0xA DUP2 MSTORE PUSH1 0x20 ADD PUSH32 0x7375636365737366756C00000000000000000000000000000000000000000000 DUP2 MSTORE POP SWAP1 POP PUSH2 0x1D9 JUMP JUMPDEST PUSH1 0x40 MLOAD DUP1 PUSH1 0x60 ADD PUSH1 0x40 MSTORE DUP1 PUSH1 0x33 DUP2 MSTORE PUSH1 0x20 ADD PUSH2 0x568 PUSH1 0x33 SWAP2 CODECOPY SWAP1 POP JUMPDEST SWAP3 SWAP2 POP POP JUMP JUMPDEST PUSH1 0x0 SLOAD DUP2 JUMP JUMPDEST PUSH1 0x60 PUSH1 0x0 SLOAD DUP3 GT PUSH2 0x288 JUMPI CALLER PUSH20 0xFFFFFFFFFFFFFFFFFFFFFFFFFFFFFFFFFFFFFFFF AND PUSH2 0x8FC DUP4 SWAP1 DUP2 ISZERO MUL SWAP1 PUSH1 0x40 MLOAD PUSH1 0x0 PUSH1 0x40 MLOAD DUP1 DUP4 SUB DUP2 DUP6 DUP9 DUP9 CALL SWAP4 POP POP POP POP ISZERO DUP1 ISZERO PUSH2 0x236 JUMPI RETURNDATASIZE PUSH1 0x0 DUP1 RETURNDATACOPY RETURNDATASIZE PUSH1 0x0 REVERT JUMPDEST POP DUP2 PUSH1 0x0 SLOAD PUSH2 0x245 SWAP2 SWAP1 PUSH2 0x533 JUMP JUMPDEST PUSH1 0x0 DUP2 SWAP1 SSTORE POP PUSH1 0x40 MLOAD DUP1 PUSH1 0x40 ADD PUSH1 0x40 MSTORE DUP1 PUSH1 0xA DUP2 MSTORE PUSH1 0x20 ADD PUSH32 0x7375636365737366756C00000000000000000000000000000000000000000000 DUP2 MSTORE POP SWAP1 POP PUSH2 0x2A4 JUMP JUMPDEST PUSH1 0x40 MLOAD DUP1 PUSH1 0x60 ADD PUSH1 0x40 MSTORE DUP1 PUSH1 0x33 DUP2 MSTORE PUSH1 0x20 ADD PUSH2 0x568 PUSH1 0x33 SWAP2 CODECOPY SWAP1 POP JUMPDEST SWAP2 SWAP1 POP JUMP JUMPDEST CALLVALUE PUSH1 0x0 DUP1 DUP3 DUP3 SLOAD PUSH2 0x2BA SWAP2 SWAP1 PUSH2 0x2FC JUMP JUMPDEST SWAP3 POP POP DUP2 SWAP1 SSTORE POP JUMP JUMPDEST PUSH1 0x0 DUP2 SWAP1 POP SWAP2 SWAP1 POP JUMP JUMPDEST PUSH32 0x4E487B7100000000000000000000000000000000000000000000000000000000 PUSH1 0x0 MSTORE PUSH1 0x11 PUSH1 0x4 MSTORE PUSH1 0x24 PUSH1 0x0 REVERT JUMPDEST PUSH1 0x0 PUSH2 0x307 DUP3 PUSH2 0x2C3 JUMP JUMPDEST SWAP2 POP PUSH2 0x312 DUP4 PUSH2 0x2C3 JUMP JUMPDEST SWAP3 POP DUP3 PUSH32 0xFFFFFFFFFFFFFFFFFFFFFFFFFFFFFFFFFFFFFFFFFFFFFFFFFFFFFFFFFFFFFFFF SUB DUP3 GT ISZERO PUSH2 0x347 JUMPI PUSH2 0x346 PUSH2 0x2CD JUMP JUMPDEST JUMPDEST DUP3 DUP3 ADD SWAP1 POP SWAP3 SWAP2 POP POP JUMP JUMPDEST PUSH1 0x0 DUP1 REVERT JUMPDEST PUSH2 0x360 DUP2 PUSH2 0x2C3 JUMP JUMPDEST DUP2 EQ PUSH2 0x36B JUMPI PUSH1 0x0 DUP1 REVERT JUMPDEST POP JUMP JUMPDEST PUSH1 0x0 DUP2 CALLDATALOAD SWAP1 POP PUSH2 0x37D DUP2 PUSH2 0x357 JUMP JUMPDEST SWAP3 SWAP2 POP POP JUMP JUMPDEST PUSH1 0x0 PUSH20 0xFFFFFFFFFFFFFFFFFFFFFFFFFFFFFFFFFFFFFFFF DUP3 AND SWAP1 POP SWAP2 SWAP1 POP JUMP JUMPDEST PUSH1 0x0 PUSH2 0x3AE DUP3 PUSH2 0x383 JUMP JUMPDEST SWAP1 POP SWAP2 SWAP1 POP JUMP JUMPDEST PUSH2 0x3BE DUP2 PUSH2 0x3A3 JUMP JUMPDEST DUP2 EQ PUSH2 0x3C9 JUMPI PUSH1 0x0 DUP1 REVERT JUMPDEST POP JUMP JUMPDEST PUSH1 0x0 DUP2 CALLDATALOAD SWAP1 POP PUSH2 0x3DB DUP2 PUSH2 0x3B5 JUMP JUMPDEST SWAP3 SWAP2 POP POP JUMP JUMPDEST PUSH1 0x0 DUP1 PUSH1 0x40 DUP4 DUP6 SUB SLT ISZERO PUSH2 0x3F8 JUMPI PUSH2 0x3F7 PUSH2 0x352 JUMP JUMPDEST JUMPDEST PUSH1 0x0 PUSH2 0x406 DUP6 DUP3 DUP7 ADD PUSH2 0x36E JUMP JUMPDEST SWAP3 POP POP PUSH1 0x20 PUSH2 0x417 DUP6 DUP3 DUP7 ADD PUSH2 0x3CC JUMP JUMPDEST SWAP2 POP POP SWAP3 POP SWAP3 SWAP1 POP JUMP JUMPDEST PUSH1 0x0 DUP2 MLOAD SWAP1 POP SWAP2 SWAP1 POP JUMP JUMPDEST PUSH1 0x0 DUP3 DUP3 MSTORE PUSH1 0x20 DUP3 ADD SWAP1 POP SWAP3 SWAP2 POP POP JUMP JUMPDEST PUSH1 0x0 JUMPDEST DUP4 DUP2 LT ISZERO PUSH2 0x45B JUMPI DUP1 DUP3 ADD MLOAD DUP2 DUP5 ADD MSTORE PUSH1 0x20 DUP2 ADD SWAP1 POP PUSH2 0x440 JUMP JUMPDEST DUP4 DUP2 GT ISZERO PUSH2 0x46A JUMPI PUSH1 0x0 DUP5 DUP5 ADD MSTORE JUMPDEST POP POP POP POP JUMP JUMPDEST PUSH1 0x0 PUSH1 0x1F NOT PUSH1 0x1F DUP4 ADD AND SWAP1 POP SWAP2 SWAP1 POP JUMP JUMPDEST PUSH1 0x0 PUSH2 0x48C DUP3 PUSH2 0x421 JUMP JUMPDEST PUSH2 0x496 DUP2 DUP6 PUSH2 0x42C JUMP JUMPDEST SWAP4 POP PUSH2 0x4A6 DUP2 DUP6 PUSH1 0x20 DUP7 ADD PUSH2 0x43D JUMP JUMPDEST PUSH2 0x4AF DUP2 PUSH2 0x470 JUMP JUMPDEST DUP5 ADD SWAP2 POP POP SWAP3 SWAP2 POP POP JUMP JUMPDEST PUSH1 0x0 PUSH1 0x20 DUP3 ADD SWAP1 POP DUP2 DUP2 SUB PUSH1 0x0 DUP4 ADD MSTORE PUSH2 0x4D4 DUP2 DUP5 PUSH2 0x481 JUMP JUMPDEST SWAP1 POP SWAP3 SWAP2 POP POP JUMP JUMPDEST PUSH2 0x4E5 DUP2 PUSH2 0x2C3 JUMP JUMPDEST DUP3 MSTORE POP POP JUMP JUMPDEST PUSH1 0x0 PUSH1 0x20 DUP3 ADD SWAP1 POP PUSH2 0x500 PUSH1 0x0 DUP4 ADD DUP5 PUSH2 0x4DC JUMP JUMPDEST SWAP3 SWAP2 POP POP JUMP JUMPDEST PUSH1 0x0 PUSH1 0x20 DUP3 DUP5 SUB SLT ISZERO PUSH2 0x51C JUMPI PUSH2 0x51B PUSH2 0x352 JUMP JUMPDEST JUMPDEST PUSH1 0x0 PUSH2 0x52A DUP5 DUP3 DUP6 ADD PUSH2 0x36E JUMP JUMPDEST SWAP2 POP POP SWAP3 SWAP2 POP POP JUMP JUMPDEST PUSH1 0x0 PUSH2 0x53E DUP3 PUSH2 0x2C3 JUMP JUMPDEST SWAP2 POP PUSH2 0x549 DUP4 PUSH2 0x2C3 JUMP JUMPDEST SWAP3 POP DUP3 DUP3 LT ISZERO PUSH2 0x55C JUMPI PUSH2 0x55B PUSH2 0x2CD JUMP JUMPDEST JUMPDEST DUP3 DUP3 SUB SWAP1 POP SWAP3 SWAP2 POP POP JUMP INVALID JUMPI PUSH10 0x746864726177616C2041 PUSH14 0x6F756E7420697320677265617465 PUSH19 0x207468616E20617661696C61626C652062616C PUSH2 0x6E63 PUSH6 0xA26469706673 PC 0x22 SLT KECCAK256 PUSH8 0x71668C2A5039BC84 SGT 0x4A PUSH21 0x99613FE7A9D0ADD04AA701640613F72A04D7D97464 PUSH20 0x6F6C634300080F00330000000000000000000000 "
				},
				"gasEstimates": {
					"creation": {
						"codeDepositCost": "297600",
						"executionCost": "22453",
						"totalCost": "320053"
					},
					"external": {
						"": "178",
						"balance()": "2429",
						"deposit()": "infinite",
						"withdrawToAccount(uint256,address)": "infinite",
						"withdrawToCaller(uint256)": "infinite"
					}
				},
				"methodIdentifiers": {
					"balance()": "b69ef8a8",
					"deposit()": "d0e30db0",
					"withdrawToAccount(uint256,address)": "a49b5cb4",
					"withdrawToCaller(uint256)": "bd541302"
				}
			},
			"storageLayout": {
				"storage": [
					{
						"astId": 3,
						"contract": "contracts/Wallet.sol:Wallet",
						"label": "balance",
						"offset": 0,
						"slot": "0",
						"type": "t_uint256"
					}
				],
				"types": {
					"t_uint256": {
						"encoding": "inplace",
						"label": "uint256",
						"numberOfBytes": "32"
					}
				}
			},
			"userdoc": {
				"kind": "user",
				"methods": {},
				"version": 1
			}
		}
	}
}